:020000040800F2
:10000000008001209D04000881040008830400088A
:100010008504000887040008890400080000000027
:100020000000000000000000000000008B04000839
:100030008D040008000000008F04000891040008EF
:10004000ED040008ED040008ED040008ED040008CC
:10005000ED040008ED040008ED040008ED040008BC
:10006000ED040008ED040008ED040008ED040008AC
:10007000ED040008ED040008ED040008ED0400089C
:10008000ED040008ED040008ED040008ED0400088C
:10009000ED040008ED040008ED040008ED0400087C
:1000A000ED040008ED040008ED040008ED0400086C
:1000B000ED040008ED040008ED040008ED0400085C
:1000C000ED040008ED040008ED040008ED0400084C
:1000D000ED040008ED040008ED040008ED0400083C
:1000E000ED040008ED040008ED040008ED0400082C
:1000F000ED040008ED040008ED040008ED0400081C
:10010000ED040008ED040008ED040008ED0400080B
:10011000ED040008ED040008ED040008ED040008FB
:10012000ED040008ED040008ED040008ED040008EB
:10013000ED040008ED040008ED040008ED040008DB
:10014000ED040008ED040008ED040008ED040008CB
:10015000ED040008ED040008ED040008ED040008BB
:10016000ED040008ED040008ED040008ED040008AB
:10017000ED040008ED040008ED0400080000000094
:08018000ED040008ED04000885
:1001880053B94AB9002908BF00281CBF4FF0FF31F6
:100198004FF0FF3000F00CB8ADF1080C6DE904CE5B
:1001A80001F006FFDDF804E0DDE9022304B0704742
:1001B800704700BF10B5054C237833B9044B13B111
:1001C8000448AFF300800123237010BD1000002005
:1001D800000000001C24000808B5034B1BB10349AC
:1001E8000348AFF3008008BD0000000014000020A1
:1001F8001C24000808B500F04BFB012801D00020A2
:1002080008BD0120FCE7000070B58AB00024059401
:1002180006940794089409942C4BDA6C42F0040273
:10022800DA64DA6C02F004020192019ADA6C42F0A4
:100238008002DA64DA6C02F080020292029ADA6CC6
:1002480042F00102DA64DA6C02F001020392039AC6
:10025800DA6C42F00202DA64DB6C03F00203049306
:10026800049B1B4E22460121304600F018FB224613
:1002780020214FF0904000F012FB4FF400530593FB
:100288004FF404130693079405A9304600F0FAF9D1
:100298000125059506950794089405A9304600F0B0
:1002A800F1F9082305930694079505A9304600F04F
:1002B800E9F92023059306950794089405A94FF0BA
:1002C800904000F0DFF90AB070BD00BF0010024096
:1002D8000008004872B6FEE708B50B480B4B0360F0
:1002E8004FF4E133436000238360C36003610C2251
:1002F80042618361C3610362436201F028FE00B971
:1003080008BDFFF7E7FF00BF2C00002000440040B5
:1003180000B597B04422002105A801F09FFF0023F3
:10032800009301930293039304934FF4007000F039
:10033800CDFA20BB022305934FF480720892102255
:1003480009920F931093012211920A221292072206
:1003580013921493159305A800F0A2FB88B90F23F4
:10036800009303230193002302930393049304212E
:10037800684600F0A3FE30B917B05DF804FBFFF73C
:10038800A9FFFFF7A7FFFFF7A5FF000008B500F0DA
:10039800D3F8FFF7BDFFFFF737FFFFF79DFF06E034
:1003A8000121064800F080FA642000F0EDF80821E9
:1003B8000248FFF71FFF0028F2D1F5E700080048C0
:1003C80082B00A4B1A6E42F001021A661A6E02F0E7
:1003D80001020092009A9A6D42F080529A659B6DD4
:1003E80003F080530193019B02B070470010024054
:1003F80010B5AAB00446002125912691279128918D
:100408002991882203A801F029FF2268184B9A42F3
:1004180001D02AB010BD0223039303A801F09AF873
:1004280010BB144B9A6D42F400329A659A6D02F42F
:1004380000320192019ADA6C42F00102DA64DB6C54
:1004480003F001030293029B0C23259302232693B6
:1004580000232793032328930723299325A94FF0E3
:10046800904000F00FF9D4E7FFF734FFD9E700BF59
:100478000044004000100240FEE7FEE7FEE7FEE70A
:10048800FEE770477047704708B500F06BF808BD85
:1004980070470000DFF834D0FFF7FAFF0C480D4929
:1004A8000D4A002302E0D458C4500433C4188C42C7
:1004B800F9D30A4A0A4C002301E013600432A2422D
:1004C800FBD301F01DFFFFF761FFFEE7008001206D
:1004D80000000020100000209024000810000020D8
:1004E80050020020FEE70000104B1B780BB90120DA
:1004F800704710B504464FF47A70B0FBF3F30C4A1A
:100508001068B0FBF3F000F0A9F868B90F2C01D916
:1005180001200AE0002221464FF0FF3000F08EF85B
:10052800044B1C60002000E0012010BD04000020E6
:10053800000000200800002010B5094A136843F4A1
:1005480080731360032000F067F80020FFF7CCFFEA
:1005580010B10124204610BD0446FFF731FFF9E72A
:1005680000200240034B1B78034A11680B441360B8
:10057800704700BF04000020B4000020014B186839
:10058800704700BFB400002038B50446FFF7F6FFF7
:100598000546B4F1FF3F02D0044B1B781C44FFF71B
:1005A800EDFF401BA042FAD338BD00BF0400002075
:1005B800002808DB0901C9B200F1604000F561407C
:1005C80080F80013704700F00F000901C9B2014B11
:1005D8001954704714ED00E000B500F00700C0F1B1
:1005E800070CBCF1040F28BF4FF0040C031D062BA9
:1005F8000FD9C31E4FF0FF3E0EFA0CF021EA00019E
:1006080099400EFA03FE22EA0E0241EA02005DF862
:1006180004FB0023EEE70000074AD36823F4E063F5
:100628001B041B0C000200F4E060034343F0BF63AB
:1006380043F40033D360704700ED00E010B5044682
:10064800054BD868C0F30220FFF7C6FF01462046D5
:10065800FFF7AEFF10BD00BF00ED00E00138B0F1BC
:10066800807F0BD24FF0E0235861054AF02182F8D1
:1006780023100020986107221A61704701207047F3
:1006880000ED00E070B582B000236EE085685E0082
:100698000324B44025EA0405CC68B4402C438460A4
:1006A800456825EA0C054C68C4F300149C402C43AB
:1006B80044606DE0C56A25EA0C05C4F3C0049C409B
:1006C8002C43C4626AE0DD08083550F8254003F081
:1006D800070C4FEA8C0C4FF00F0E0EFA0CFE24EAB2
:1006E8000E0E0C6904FA0CF444EA0E0440F8254096
:1006F8006CE0062400E0002404FA0EF42C430CF10C
:10070800020C5F4D45F82C405E4CA568D44325EAA1
:100718000206D1F804C01CF4801F01D042EA050685
:10072800584DAE60ED6804EA0506D1F804C01CF423
:10073800001F01D042EA0506524DEE606D6804EADA
:100748000506D1F804C01CF4003F01D042EA0506B2
:100758004C4D6E602D682C404E6816F4803F01D0D9
:1007680042EA0504474A146001330A6832FA03F47E
:1007780000F083804FF0010C0CFA03FC1CEA020223
:10078800F2D04C6804F00304013C012C7FF67EAFE4
:100798004C6804F0030EBEF1030F8BD04C6804F0D4
:1007A8000304032C0CD0C4685D004FF0030C0CFA52
:1007B80005FC24EA0C0C8C68AC4044EA0C04C460C8
:1007C8004C6804F00304022C3FF47DAF04684FEA40
:1007D800430E4FF0030C0CFA0EFC24EA0C0C4C6888
:1007E80004F0030404FA0EF444EA0C0404604C68B0
:1007F80014F4403FB8D0244C256E45F00105256619
:10080800246E04F001040194019C4FEA930C0CF14E
:1008180002051B4C54F8255003F0030E4FEA8E0EC8
:100828000F2404FA0EF425EA0405B0F1904F3FF4C2
:1008380062AF164CA04216D004F58064A04214D0D2
:1008480004F58064A04212D004F58064A04210D060
:1008580004F58064A0420ED004F58064A0423FF401
:1008680048AF072448E7012446E7022444E7032465
:1008780042E7042440E705243EE702B070BD00BF0C
:10088800000001400004014000100240000400483C
:100898000369194201D001207047002070470AB14E
:1008A8008161704781627047436901EA030221EA66
:1008B800030141EA0241816170470000024B186858
:1008C80000F4C060704700BF00700040B0F5007FC2
:1008D8000FD01F4B1B6803F4C063B3F5806F34D08F
:1008E8001B4A136823F4C06343F480631360002039
:1008F8007047174B1B6803F4C063B3F5007F20D023
:10090800134A136823F4C06343F400731360114B54
:100918001B68322202FB03F30F4AA2FB03239B0C42
:10092800013300E0013B0A4A526912F4806F01D09A
:10093800002BF7D1064B5B6913F4806F03D10020BD
:10094800704700207047032070470020704700BFA1
:10095800007000400000002083DE1B4330B583B0E8
:100968000446204B9B6D13F0805F0BD0FFF7A6FF6A
:10097800B0F5007F17D0802C1FD82DD0702C2DD02B
:1009880000211BE0174DAB6D43F08053AB65AB6D99
:1009980003F080530193019BFFF790FFAB6D23F0A9
:1009A8008053AB65E4E7802C03D9A02C03D902213E
:1009B80004E0002102E0012100E003210A4A136853
:1009C80023F007030B431360136803F007038B42FC
:1009D80006D1002003B030BD0221EFE70121EDE789
:1009E8000120F7E70010024000200240284A9368DF
:1009F800D26802F0030213F00C030AD00C2B06D0C5
:100A0800042B1FD0082B20D00020024610E0012A1A
:100A1800F6D11F4A126812F0080F0CD11C4AD2F8FE
:100A28009420C2F303221B4951F8222043B100202D
:100A38000C2B0DD07047164A1268C2F30312F2E766
:100A48001046F5E714480022F2E714480022EFE7C1
:100A58000F4BDB6803F00303022B03D0032B02D1F7
:100A68000E4A00E00C4A0A49CB68C3F3021301336B
:100A7800C868C0F3062002FB00F0B0FBF3F0CB68B7
:100A8800C3F3416301335B00B0FBF3F0D2E700BF6F
:100A980000100240342400080024F40000127A00F8
:100AA800002800F0F182F0B583B00446964B9D68AB
:100AB80005F00C05DE6806F00306036813F0100F56
:100AC8005AD0E5B10C2D18D0A369002B00F0BB80DB
:100AD8008D4A136843F001031360FFF74FFD074683
:100AE800894B1B6813F0020F40F09A80FFF746FD10
:100AF800C01B0228F4D90320D1E2012EE4D1824B95
:100B08001B6813F0020F03D0A369002B00F0BE820C
:100B1800206A7D4B1B6813F0080F5BD07A4B1B686B
:100B280003F0F00398425CD8774B1A6842F0080249
:100B38001A601A6822F0F002216A0A431A605A6899
:100B480022F47F42E16942EA01225A60002D60D016
:100B5800FFF74CFF6C4B9B68C3F303136B4AD35CE2
:100B680003F01F03D8406A4B18606A4B1868FFF7F8
:100B7800BBFC002840F09382236813F0010F00F0BB
:100B88008180082D75D00C2D71D06368B3F5803F36
:100B980000F09780B3F5A02F00F099805A4B1A689F
:100BA80022F480321A601A6822F480221A6063687C
:100BB800002B00F09980FFF7E1FC0746524B1B68B9
:100BC80013F4003F5ED1FFF7D9FCC01B6428F5D9A8
:100BD800032064E24C4BD3F894301B0903F0F00374
:100BE800A0E7FFF7BBFE002840F05282464B1A6888
:100BF80042F008021A601A6822F0F002216A0A43D9
:100C08001A605A6822F47F42E16942EA01225A6076
:100C18009EE7206AFFF7A2FE002899D001203EE255
:100C2800394B1A6842F008021A601A6822F0F0027A
:100C3800216A0A431A605A6822F47F42E16942EA4B
:100C480001225A6098E7304A136823F001031360C1
:100C5800FFF794FC07462C4B1B6813F0020F8BD050
:100C6800FFF78CFCC01B0228F5D9032017E2032EDE
:100C78008BD1254B1B6813F4003F03D06368002B0E
:100C880000F00882236813F0020F58D0042D45D0D5
:100C98000C2D41D0E368002B77D01B4A136843F42E
:100CA80080731360FFF76AFC0646174B1B6813F442
:100CB800806F61D1FFF762FC801B0228F5D9032001
:100CC800EDE1114A136843F4803313606FE703F1D1
:100CD8008043A3F53C331A6842F480221A601A68EC
:100CE80042F480321A6062E7FFF748FC0746064B79
:100CF8001B6813F4003FC5D0FFF740FCC01B6428F5
:100D0800F5D90320CBE100BF001002406C24000895
:100D18000000002008000020022EBBD1A34B1B6856
:100D280013F4806F03D0E368002B00F0B5819F4A6D
:100D3800536823F0F853216943EA01635360236839
:100D480013F0080F4CD063699BB3984AD2F89430DB
:100D580043F00103C2F89430FFF710FC0646934BAA
:100D6800D3F8943013F0020F3AD1FFF707FC801B39
:100D78000228F4D9032092E18C4A536823F0F853EF
:100D8800216943EA01635360D9E7884A136823F469
:100D980080731360FFF7F2FB0646844B1B6813F45D
:100DA800806FCCD0FFF7EAFB801B0228F5D903201F
:100DB80075E17E4AD2F8943023F00103C2F89430EA
:100DC800FFF7DCFB0646794BD3F8943013F0020F9B
:100DD80006D0FFF7D3FB801B0228F4D903205EE17D
:100DE800236813F0040F7AD0704B9B6D13F0805F6B
:100DF80036D16E4B9A6D42F080529A659B6D03F026
:100E080080530193019B0126694B1B6813F4807F73
:100E180028D0A368012B39D0052B3FD0634BD3F8DA
:100E2800902022F00102C3F89020D3F8902022F0FD
:100E38000402C3F89020A368002B3DD0FFF79EFB67
:100E480007465A4BD3F8903013F0020F46D1FFF7FC
:100E580095FBC01B41F288339842F2D903201EE16A
:100E68000026D1E7524A136843F480731360FFF7F2
:100E780085FB07464E4B1B6813F4807FC9D1FFF7EB
:100E88007DFBC01B0228F5D9032008E1474AD2F8A8
:100E9800903043F00103C2F89030CCE7434BD3F8CD
:100EA800902042F00402C3F89020D3F8902042F03A
:100EB8000102C3F89020BEE7FFF760FB07463B4BF3
:100EC800D3F8903013F0020F08D0FFF757FBC01B80
:100ED80041F288339842F2D90320E0E0EEB9A36AE0
:100EE800002B00F0DB80022B1DD00C2D00F0DD80E4
:100EF8002E4A136823F080731360FFF73FFB044604
:100F08002A4B1B6813F0007F00F0B780FFF736FB11
:100F1800001B0228F4D90320C1E0244A936D23F072
:100F280080539365DBE7214BDB6803F00301E26A3A
:100F380091420FD00C2D00F0B4801C4B1B6813F0AD
:100F4800806F40F0B080194B1B6813F0805F31D080
:100F58000120A4E003F07002216B0139B2EB011FFC
:100F6800E8D103F4FE42616BB2EB012FE2D103F446
:100F78000031A26B073A18BF01229142DAD103F47B
:100F8800C001E26B5208013AB1EB425FD2D103F0E3
:100F9800C063226C5208013AB3EB426FCAD1034BCB
:100FA8001B6813F0007F4ED0002078E0001002404C
:100FB800007000403E4A136823F080731360FFF707
:100FC800DDFA05463A4B1B6813F0007F06D0FFF7A1
:100FD800D5FA401B0228F5D9032060E0344AD368CB
:100FE80034491940E36A206B013843EA0013606B07
:100FF80043EA0023E06B4008013843EA4053206C81
:101008004008013843EA4063A06B000943EA4043C3
:101018001943D160136843F080731360D36843F0B9
:101028008073D360FFF7AAFA0446214B1B6813F0BC
:10103800007F06D1FFF7A2FA001B0228F5D903208A
:101048002DE000202BE01A4B1A6842F080721A60DB
:10105800DA6842F08072DA60FFF790FA0446144BBF
:101068001B6813F0007F06D1FFF788FA031B022BD9
:10107800F5D9032013E0002011E00D4AD1680E4B8A
:101088000B40D36000200AE001207047012006E0F1
:10109800012004E0012002E0012000E0002003B06C
:1010A800F0BD0120FBE70120F9E70120F7E700BFC9
:1010B800001002408C809DF9FCFFEEFE002800F035
:1010C800AF8070B50D460446594B1B6803F0070303
:1010D8008B420BD2564A136823F007030B43136065
:1010E800136803F007038B4240F09C80236813F0D9
:1010F800020F0CD0A2684F4B9B6803F0F0039A4292
:1011080005D94C498B6823F0F0031A438A60236899
:1011180013F0010F39D06368032B09D0022B26D0B6
:1011280063BB444A126812F0020F06D1012076E030
:10113800404A126812F0007F76D03E498A6822F051
:10114800030213438B60FFF719FA0646394B9B6875
:1011580003F00C036268B3EB820F16D0FFF70EFAA8
:10116800801B41F288339842F0D9032057E0314A76
:10117800126812F4003FE0D1012050E02D4A1268B5
:1011880012F4806FD9D1012049E0236813F0020FCF
:101198000CD0A268274B9B6803F0F0039A4205D253
:1011A80024498B6823F0F0031A438A60204B1B689C
:1011B80003F00703AB420AD91D4A136823F007035B
:1011C8002B431360136803F00703AB422ED1236847
:1011D80013F0040F06D0174A936823F4E063E1681C
:1011E8000B439360236813F0080F07D0114A9368E4
:1011F80023F46053216943EAC1039360FFF7F6FBC8
:101208000C4B9B68C3F303130B4AD35C03F01F0317
:10121800D8400A4B18600A4B1868FFF765F970BD8B
:10122800012070470120FAE70120F8E70120F6E7DE
:1012380000200240001002406C240008000000203A
:1012480008000020014B1868704700BF000000200C
:1012580008B5FFF7F7FF054B9B68C3F30223044A61
:10126800D35C03F01F03D84008BD00BF0010024044
:101278006424000808B5FFF7E5FF054B9B68C3F336
:10128800C223044AD35C03F01F03D84008BD00BF43
:101298000010024064240008F8B504460D46594B76
:1012A800DB6813F0030F18D0564BDB6803F0030319
:1012B8000268934202D001263046F8BD002A00F0A9
:1012C8009D80504BDB68C3F302130133426893429D
:1012D80001D00126F0E7002619E00368022B56D05A
:1012E800032B5BD0012B40F08B80464A126812F02A
:1012F800020F5FD04348C26822F073026168013967
:1013080043EA01131343C3600026002ED4D13D4A9B
:10131800136823F080631360FFF730F90746394BF1
:101328001B6813F0006F05D0FFF728F9C31B022BC9
:10133800F5D90326002EBFD1002D3DD131490B69C7
:1013480023F41F3323F44073A068E268120952049F
:1013580042EA002213430B612A4A136843F0806370
:101368001360FFF70BF90546264B1B6813F0006F57
:1013780005D1FFF703F9401B0228F5D90326002EF3
:101388009AD1204A1369A1690B43136194E71D4A56
:10139800126812F4806FADD101268DE7194A1268E0
:1013A80012F4003FA6D1174A126812F4802FA1D177
:1013B800012681E70126A8E7012D0FD0114802690F
:1013C80022F0C06222F4FE42A16863695B08013B17
:1013D8005B0643EA01231A430261BDE70948026933
:1013E80022F4C00222F4FE42A16823695B08013B93
:1013F8005B0543EA01231A430261ADE701265BE777
:10140800012659E700100240F8B504460D46504B36
:10141800DB6813F0030F18D04D4BDB6803F00303B0
:101428000268934202D001263046F8BD002A00F037
:101438008A80474BDB68C3F3021301334268934247
:1014480001D00126F0E7002618E00368022B55D0EA
:10145800032B5AD0012B78D13D4A126812F0020FA3
:101468005FD03B48C26822F073026168013943EAE1
:1014780001131343C3600026002ED5D1344A1368E4
:1014880023F080531360FFF779F80746304B1B6849
:1014980013F0005F05D0FFF771F8C31B022BF5D9D5
:1014A8000326002EC0D1002D3DD129494B6923F4D4
:1014B8001F3323F44073A068E2681209520442EA19
:1014C800002213434B61224A136843F08053136090
:1014D800FFF754F805461E4B1B6813F0005F05D153
:1014E800FFF74CF8401B0228F5D90326002E9BD1A4
:1014F800174A536961690B43536195E7144A1268A7
:1015080012F4806FADD101268EE7114A126812F4E9
:10151800003FA6D10E4A126812F4802FA1D10126ED
:1015280082E70126A8E70A48426922F0C06222F44D
:10153800FE42A16823695B08013B5B0643EA01237D
:101548001A434261BFE701266EE701266CE700BF38
:10155800001002402DE9F04182B00446036813F4FC
:10156800006F33D0436EB3F5000F15D00CD823B3FA
:10157800B3F5800F05D100212030FFF745FF06465F
:1015880020E001273E4623E0B3F5400F01D10026B5
:1015980008E001273E461BE05E4AD36843F48033E7
:1015A800D36000265B4AD2F8883023F44003616E8A
:1015B8000B43C2F8883000270AE000210430FFF707
:1015C8006BFE0646002EEDD0374601E000273E466A
:1015D800236813F4805F30D0A36EB3F1007F1FD06F
:1015E8000DD81BB3B3F1807F06D1002104F1200090
:1015F800FFF70AFF064605E001273E461DE0B3F166
:10160800407F0AD1C6B9434AD2F8883023F04073E4
:10161800A16E0B43C2F888300FE001273E460CE06C
:101628003C4AD36843F48033D360EBE70021201DA4
:10163800FFF732FE0646E5E73746236813F4003F16
:1016480071D0344B9B6D13F0805F4ED1314B9A6D46
:1016580042F080529A659B6D03F080530193019B81
:101668004FF001082C4A136843F480731360FEF7A7
:1016780085FF0546284B1B6813F4807F05D1FEF7CC
:101688007DFF401B0228F5D90326002E46D1214BA9
:10169800D3F8903013F4407316D0D4F884209A42CB
:1016A80012D01C4AD2F8903023F44073D2F890102C
:1016B80041F48031C2F89010D2F8901021F48031B2
:1016C800C2F89010C2F8903013F0010F10D1002E1C
:1016D80040F027810F4AD2F8903023F44073D4F8B1
:1016E80084100B43C2F8903019E04FF00008B9E7B6
:1016F800FEF744FF0546074BD3F8903013F0020F6E
:10170800E5D1FEF73BFF401B41F288339842F2D9FE
:101718000326DCE700100240007000403746B8F1AD
:10172800000F40F00081236813F0010F08D09D4A94
:10173800D2F8883023F00303A16B0B43C2F888303A
:10174800236813F0020F08D0964AD2F8883023F0A5
:101758000C03E16B0B43C2F88830236813F0040FC5
:1017680008D0904AD2F8883023F03003216C0B431C
:10177800C2F88830236813F0080F08D0894AD2F8D5
:10178800883023F0C003616C0B43C2F888302368AB
:1017980013F0100F08D0834AD2F8883023F440732E
:1017A800A16C0B43C2F88830236813F0200F08D0CF
:1017B8007C4AD2F8883023F44063E16C0B43C2F8CA
:1017C8008830236813F4007F08D0764AD2F888302E
:1017D80023F44023E16D0B43C2F88830236813F4E7
:1017E800806F08D06F4AD2F8883023F44013216EF6
:1017F8000B43C2F88830236813F0400F08D0694AB9
:10180800D2F8883023F44053216D0B43C2F8883056
:10181800236813F0800F08D0624AD2F8883023F486
:101828004043616D0B43C2F88830236813F4807F0E
:1018380008D05C4AD2F8883023F44033A16D0B43BA
:10184800C2F88830236813F4005F0FD0554AD2F8E5
:10185800883023F04063E16E0B43C2F88830E36EB2
:10186800B3F1006F65D0B3F1806F67D0236813F4CC
:10187800002F0FD04B4AD2F8883023F04063216FF5
:101888000B43C2F88830236FB3F1006F5ED0B3F119
:10189800806F60D0236813F4802F0FD0414AD2F8AC
:1018A800883023F04063616F0B43C2F88830636F60
:1018B800B3F1006F57D0B3F1806F59D0236813F498
:1018C800804F0FD0374AD2F8883023F04053A16FA9
:1018D8000B43C2F88830A36FB3F1805F50D0B3F1E7
:1018E800005F55D0236813F4004F08D02D4AD2F872
:1018F800883023F08043E16F0B43C2F888302368B7
:1019080013F4803F09D0274AD2F8883023F00043E7
:10191800D4F880100B43C2F88830384602B0BDE8CE
:10192800F0813746FBE61F4A936D23F08053936599
:10193800F9E6D36843F48013D36097E70121201DAB
:10194800FFF7AAFC002891D007468FE7D36843F435
:101958008013D3609EE70121201DFFF79DFC00281E
:1019680098D0074696E7D36843F48013D360A5E779
:101978000121201DFFF790FC00289FD007469DE716
:101988000221201DFFF788FC0028ABD00746A9E7F5
:10199800022104F12000FFF737FD0028A2D00746F6
:1019A800A0E700BF00100240026852E8003F23F49D
:1019B800907342E800310029F6D1026802F1080369
:1019C80053E8003F23F00103083242E800310029C0
:1019D800F3D1036E012B06D02023C0F880300023FA
:1019E800036683667047026852E8003F23F01003DD
:1019F80042E800310029F6D1EEE7000010B50446B0
:101A080083680269134342691343C2691343016837
:101A180008688F4A02401A430A602268536823F410
:101A28004053E1680B435360A1692268894B9A428D
:101A380001D0236A1943936823F430630B439360FE
:101A48002368854A934226D0844A934237D0844AF1
:101A580093424DD0834A93425DD0834A93426CD0DF
:101A68007C4A93427ED010227A498B4200F0B380A0
:101A7800E069B0F5004F00F0E080082A00F24B81E1
:101A8800DFE812F01A013001180149013301490158
:101A980049014901360102F55842D2F8882002F07E
:101AA8000302032A09D8DFE802F0020472060122C1
:101AB800DAE70422D8E70822D6E71022D4E702F5AD
:101AC800E632D2F8882002F00C020C2A0ED8DFE8A1
:101AD80002F0070D0D0D090D0D0D600D0D0D0B001C
:101AE8000022C1E70422BFE70822BDE71022BBE7B6
:101AF80002F5E432D2F8882002F03002202A4AD0D7
:101B080005D8002A49D0102A49D10422ACE7302A46
:101B180047D10822A8E702F5E232D2F8882002F07D
:101B2800C002802A3FD004D8FAB3402A3FD1042209
:101B38009AE7C02A3DD1082296E702F5E032D2F8AA
:101B4800882002F44072B2F5007F34D005D8A2B3E1
:101B5800B2F5807F33D1042286E7B2F5407F30D1D9
:101B6800082281E702F5C832D2F8882002F44062E0
:101B7800B2F5006F27D005D83AB3B2F5806F26D1F9
:101B8800042271E7B2F5406F23D108226CE70222E4
:101B98006AE7022268E7022266E7002264E7102269
:101BA80062E7102260E702225EE700225CE710226B
:101BB8005AE7102258E7022256E7002254E710227B
:101BC80052E7102250E702224EE700224CE710228B
:101BD8004AE7102248E7082A00F28D80DFE802F081
:101BE800088B2B8B288B8B8B05004FF4004004E06F
:101BF800FFF72EFB002800F08080626802EB4203AA
:101C080083427CD8B0EB023F7BD8010E0002530818
:101C1800C0184FF0000341F10001FEF7B1FAA0F53A
:101C28004072124B9A426ED82368D860002055E063
:101C3800FEF7DCFEDEE70E48DFE7082A65D8DFE8B6
:101C480002F019330564366464641D00084815E021
:101C5800F369FFEF00800040003801400044004075
:101C680000480040004C004000500040FFFC0F00BE
:101C78000024F400FFF7ECFA002848D06268530803
:101C880003EB4003B3FBF2F3A3F110014FF6EF723D
:101C980091423ED89AB222F00F02C3F34203134393
:101CA8002268D360002019E0FFF7E4FAE4E7FEF7C2
:101CB8009DFEE1E71B4802E0FFF7CAFA68B36368D4
:101CC80000EB5300B0FBF3F0A0F110024FF6EF73F6
:101CD8009A4224D8236880B2D86000200023A366E3
:101CE800E36610BDFFF7C6FAE8E7FEF77FFEE5E713
:101CF8004FF40040E3E70120F0E70020EEE7012081
:101D0800ECE70120EAE70120E8E70120E6E7002008
:101D1800E4E70120E2E70120E0E70020DEE7012018
:101D2800DCE700BF0024F400436A13F0080F06D074
:101D38000268536823F40043416B0B435360436AC2
:101D480013F0010F06D00268536823F40033816A48
:101D58000B435360436A13F0020F06D002685368BE
:101D680023F48033C16A0B435360436A13F0040FB2
:101D780006D00268536823F48023016B0B43536039
:101D8800436A13F0100F06D00268936823F4805357
:101D9800816B0B439360436A13F0200F06D00268EF
:101DA800936823F40053C16B0B439360436A13F0A9
:101DB800400F0AD00268536823F48013016C0B4368
:101DC8005360036CB3F5801F0BD0436A13F0800F88
:101DD80006D00268536823F40023816C0B435360D8
:101DE80070470268536823F4C003416C0B43536087
:101DF800EBE72DE9F84305460F4616469946DDF808
:101E080020802B68DC6937EA04040CBF0124002415
:101E1800B44232D1B8F1FF3FF3D0FEF7AFFBA0EBED
:101E2800090040452CD8B8F1000F2BD02B681A6850
:101E380012F0040FE5D0DA6912F0080F11D1DA694F
:101E480012F4006FDDD04FF400621A622846FFF7E3
:101E5800ABFD2023C5F88430002385F878300320B3
:101E68000CE008241C622846FFF79EFDC5F8844054
:101E7800002385F87830012000E00020BDE8F883D1
:101E88000320FBE70320F9E730B583B004460023BD
:101E9800C0F88430FEF772FB05462268126812F01B
:101EA800080F0FD123681B6813F0040F26D12023D5
:101EB800E367C4F8803000202066606684F8780004
:101EC80003B030BD6FF07E430093034600224FF409
:101ED80000112046FFF78DFF0028E3D0226852E862
:101EE800003F23F0800342E800310029F6D1202387
:101EF800E367002384F878300320E1E76FF07E433E
:101F080000932B4600224FF480012046FFF771FF13
:101F18000028CCD0226852E8003F23F4907342E8AE
:101F280000310029F6D1226802F1080353E8003F86
:101F380023F00103083242E800310029F3D12023BD
:101F4800C4F88030002384F878300320B8E768B3F9
:101F580010B50446C36F03B32423E36722681368EC
:101F680023F001031360636AE3B92046FFF746FDD7
:101F7800012811D02268536823F4904353602268E3
:101F8800936823F02A0393602268136843F00103DF
:101F980013602046FFF778FF10BD80F87830FEF711
:101FA80027FAD9E72046FFF7BFFEDEE70120704792
:101FB8002DE9F04786468C460846089E1546744625
:101FC8001946002B40F0C2808542B2FA82F245D908
:101FD8004AB1C2F1200300FA02FC2EFA03F395403D
:101FE80043EA0C0C94404FEA154EA8B2BCFBFEF82D
:101FF800230C0EFB18CC08FB00F943EA0C43994567
:1020080028D9EB1808F1FF3704D2994502D9A8F16D
:1020180002072B44A3EB0903A4B2B3FBFEFC0EFB9F
:102028001C330CFB00F044EA0344A04214D92C19D9
:102038000CF1FF3304D2A04202D9ACF102032C44C4
:10204800241A43EA07401EB1D44000233460736069
:10205800BDE8F0874746DDE76346F1E792BB431BDF
:1020680001214FEA154EAFB2B3FBFEFC200C0EFB6C
:102078001C330CFB07F840EA0343984562D9EB1878
:102088000CF1FF3004D2984502D9ACF102002B4480
:10209800A3EB0803A4B2B3FBFEFC0EFB1C330CFB42
:1020A80007F744EA0344A7424ED92C190CF1FF3331
:1020B80004D2A74202D9ACF102032C44E41B43EA40
:1020C8000040C0E7C2F1200320FA03F19540904098
:1020D8002EFA03F303434FEA154EAFB2B1FBFEFCF1
:1020E8000EFB1C10190C0CFB07F841EA004188454F
:1020F80004FA02F422D969180CF1FF3004D2884599
:1021080002D9ACF102002944A1EB08019BB2B1FB52
:10211800FEFC0EFB1C110CFB07F743EA01439F4230
:102128000ED9EB180CF1FF3104D29F4202D9ACF161
:1021380002012B44DB1B41EA004192E76046E3E7DA
:102148006146F7E76046A3E76346B7E7834206D9E7
:1021580016B9002108467BE7C6E900E0F9E7B3FABB
:1021680083F78FB9834201D3724508D8BEEB0204C6
:1021780060EB030301209C461EB9002168E738463E
:10218800FAE7C6E9004CF8E7C7F1200CBB4022FA91
:102198000CF41C432EFA0CF120FA0CF3B84001435E
:1021A8004FEA14490EFA07F5B3FBF9F81FFA84FE53
:1021B80009FB18300B0C08FB0EFA43EA00439A455A
:1021C80002FA07F240D9E31808F1FF3004D29A4521
:1021D80002D9A8F102002344A3EB0A0389B2B3FB96
:1021E800F9F809FB183308FB0EFE41EA03418E4556
:1021F8002CD9611808F1FF3304D28E4502D9A8F111
:102208000203214443EA0040A0FB0298A1EB0E011F
:102218004145CE46434602D306D14D4504D2B9EBDB
:10222800020E68EB04030138002EA6D0B5EB0E02AF
:1022380061EB030101FA0CFC22FA07F34CEA0303F1
:10224800F940C6E9003198E74046C5E74346D9E773
:10225800002301461A46184600F092B8830730B5A5
:1022680047D0541E002A3ED0CAB2034601E0013CC2
:1022780039D303F8012B9D07F9D1032C2CD9CDB202
:1022880005EB05250F2C05EB054535D9A4F1100202
:1022980022F00F0C03F1100EE6444FEA121C1A4606
:1022A800156055609560D56010327245F8D10CF113
:1022B800010214F00C0F03EB021204F00F0C13D000
:1022C800ACF1040323F003030433134442F8045B22
:1022D8009A42FBD10CF003042CB1C9B21C4403F898
:1022E800011B9C42FBD130BD64461346002CF4D13F
:1022F800F9E703461446C0E71A46A446E0E700BFDC
:1023080070B50F4B0F4DAB42A3EB050607D0B610C7
:10231800002455F8043B01349847A642F9D800F048
:1023280079F8094D094B5E1BAB424FEAA60606D069
:10233800002455F8043B01349847A642F9D870BDEB
:102348008424000884240008842400088C240008BD
:1023580038B5074D074C2C1BA41005D0013C55F887
:10236800043D9847002CF9D1BDE8384000F058B832
:10237800902400088C240008704700BF704700BFF5
:102388002DE9F8431B4D0646286898460F469146A6
:10239800FFF7F2FF184B1C681CB3286865681F2DEF
:1023A80022DC4EB96B1C0235636044F82570FFF7D8
:1023B800E5FF0020BDE8F88304EB85010123C1F89F
:1023C8008890D4F88821AB401A43022EC4F888219B
:1023D800C1F80881E6D1D4F88C211A43C4F88C21BD
:1023E800E0E7064C1C60D8E7FFF7C8FF4FF0FF3066
:1023F800E0E700BF0C0000204C020020BC000020D9
:10240800024B13B10248FFF723BF704700000000DA
:1024180059230008F8B500BFF8BC08BC9E467047B1
:0C242800F8B500BFF8BC08BC9E46704729
:10243400A0860100400D0300801A060000350C0040
:1024440040420F0080841E0000093D0000127A0003
:102454000024F40000366E010048E801006CDC0240
:10246400000000000102030400000000000000005E
:08247400010203040607080938
:08247C003CFBFF7F01000000A2
:0824840009240008E101000831
:04248C00BD01000886
:1024900000093D000100000010000000B80000200D
:040000050800049D4E
:00000001FF
