:020000040800F2
:1000000000800120D1070008A5070008A707000805
:10001000A9070008AB070008AD07000800000000B2
:10002000000000000000000000000000AF07000812
:10003000B107000800000000B3070008B50700087A
:1000400021080008210800082108000821080008EC
:1000500021080008210800082108000821080008DC
:10006000210800082108000821080008BD07000831
:1000700021080008210800082108000821080008BC
:1000800021080008210800082108000821080008AC
:10009000210800082108000821080008210800089C
:1000A000210800082108000821080008210800088C
:1000B000210800082108000821080008210800087C
:1000C000210800082108000821080008210800086C
:1000D000210800082108000821080008210800085C
:1000E000210800082108000821080008210800084C
:1000F000210800082108000821080008210800083C
:10010000210800082108000821080008210800082B
:10011000210800082108000821080008210800081B
:10012000210800082108000821080008210800080B
:1001300021080008210800082108000821080008FB
:1001400021080008210800082108000821080008EB
:1001500021080008210800082108000821080008DB
:1001600021080008210800082108000821080008CB
:1001700021080008210800082108000800000000EC
:08018000210800082108000815
:100188000348044B834202D0034B03B1184770471E
:100198003C0400203C0400200000000005480649FB
:1001A8000B1AD90F01EBA301491002D0034B03B17D
:1001B800184770473C0400203C0400200000000061
:1001C80010B5064C237843B9FFF7DAFF044B13B197
:1001D8000448AFF300800123237010BD3C040020C5
:1001E800000000009C2C000808B5044B1BB1044912
:1001F8000448AFF30080BDE80840CFE700000000E6
:10020800400400209C2C0008002301461A4618468A
:1002180000F08CB838B5084B084D5B1B9C1007D014
:10022800043B1D44013C55F804399847002CF9D18A
:10023800BDE8384002F034BD042D0008002D000848
:1002480070B50D4E0D4D761BB61006D0002455F82E
:10025800043B01349847A642F9D1094E094D761B53
:1002680002F018FDB61006D0002455F8043B0134FE
:100278009847A642F9D170BDF82C0008F82C000860
:10028800002D0008F82C0008830730B548D0541E0C
:10029800002A3FD0CAB2034601E0013C3AD303F832
:1002A800012B9D07F9D1032C2DD9CDB245EA05259F
:1002B8000F2C45EA054536D9A4F1100222F00F0C9F
:1002C80003F1200EE6444FEA121C03F1100242E942
:1002D800045542E9025510327245F8D10CF1010279
:1002E80014F00C0F03EB021204F00F0C13D0ACF156
:1002F800040323F003030433134442F8045B9342DA
:10030800FBD10CF003042CB1CAB21C4403F8012B36
:100318009C42FBD130BD64461346002CF4D1F9E76A
:1003280003461446BFE71A46A446E0E770B4184CE3
:100338002568D5F848411CB365681F2D25DC38B9F8
:10034800AB1C0135656044F82310002070BC704771
:1003580004EB850C0228CCF88820D4F888614FF08B
:10036800010202FA05F246EA0206C4F88861CCF8EE
:100378000831E5D1D4F88C311343C4F88C31DFE768
:1003880005F5A674C5F84841D6E74FF0FF30DDE71C
:10039800B42C000810B58AB000240594069407947C
:1003A800089409941F4BDA6C42F00402DA64DA6CA0
:1003B80002F004020192019ADA6C42F08002DA64D7
:1003C800DA6C02F080020292029ADA6C42F00102C0
:1003D800DA64DA6C02F001020392039ADA6C42F0F2
:1003E8000202DA64DB6C03F002030493049B4FF40B
:1003F800005305934FF40413069305A90A4801F026
:10040800EDFA0C230593022306930794032308931C
:100418000723099305A94FF0904001F0DFFA0AB0CD
:1004280010BD00BF001002400008004800B583B0AE
:100438000A4B9A6C42F001029A649B6C03F0010328
:100448000193019B002211460B2001F031F80B208B
:1004580001F066F803B05DF804FB00BF001002402D
:1004680072B6FEE700B58BB0002307930893099393
:100478000193029303930493059306931D481E4A20
:1004880002604FF4301242608360C360036104224B
:100498004261037601224276C26180F8203083628D
:1004A800C36280F83020436380F8383000F01AFACD
:1004B800D0B90023079307A90E4800F04BFFA8B94D
:1004C8000E4B019306230293052303937F23049382
:1004D800042305930023069301A9064800F058FB5E
:1004E80030B90BB05DF804FBFFF7BAFFFFF7B8FFB0
:1004F800FFF7B6FF58040020000004504000201900
:1005080000B58BB02422002101A8FFF7BDFE0C48DE
:100518000C4B036001F026F870B900230193029395
:10052800039304930593102201A9054801F073F879
:1005380020B90BB05DF804FBFFF792FFFFF790FFBF
:10054800BC0400200074004000B597B0442200218C
:1005580005A8FFF799FE00230093019302930393E4
:1005680004934FF4007001F047FB20BB022305936E
:100578004FF480720892102209920F93109301226F
:1005880011920A221292072213921493159305A826
:1005980001F01CFC88B90F23009303230193002367
:1005A8000293039304930421684601F01DFF30B9B8
:1005B80017B05DF804FBFFF753FFFFF751FFFFF794
:1005C8004FFF000008B500F051F9FFF7BDFFFFF736
:1005D800E1FEFFF72BFFFFF745FFFFF791FF102123
:1005E8000E4800F0D1FF0E4C7F21204600F066FE39
:1005F80001220C49204600F08FFD01E00022226014
:10060800094C236800221021044800F0EEFF2368FB
:1006180001332360B3F5805FF2D3EFE7BC04002019
:1006280058040020180500201C05002082B00A4B41
:100638001A6E42F001021A661A6E02F00102009266
:10064800009A9A6D42F080529A659B6D03F0805330
:100658000193019B02B070470010024030B5ABB067
:1006680004460021259126912791289129918822D5
:1006780003A8FFF709FE22682C4B9A4201D02BB041
:1006880030BD4FF4804303934FF0805321930223EE
:1006980004930122059208220692072207920893E2
:1006A80009934FF080730A9303A802F0BFF800285B
:1006B80035D11F4BDA6C42F40052DA64DA6C02F47A
:1006C80000520192019ADA6C42F00102DA64DB6CA2
:1006D80003F001030293029B022325930B23269325
:1006E8000025279525A94FF0904001F077F911488A
:1006F800114B036045608560C560802303614FF43A
:10070800807343614FF4806383612023C361056272
:1007180001F042F830B9074BE3649C62AFE7FFF79A
:100728009FFEC6E7FFF79CFEF5E700BF00000450F8
:1007380000100240D00400200800024000B589B033
:100748000023039304930593069307930268124BBF
:100758009A4202D009B05DF804FB03F5CE339A6DD6
:1007680042F000529A659A6D02F000520192019A85
:10077800DA6C42F00102DA64DB6C03F001030293E5
:10078800029B202303930323049303A94FF0904073
:1007980001F024F9DEE700BF00740040FEE7FEE741
:1007A800FEE7FEE7FEE770477047704708B500F0C0
:1007B80073F808BD08B5024801F0ADF808BD00BFE0
:1007C800D004002070470000DFF834D0FFF7FAFFAC
:1007D8000C480D490D4A002302E0D458C450043394
:1007E800C4188C42F9D30A4A0A4C002301E013606A
:1007F8000432A242FBD3FFF723FDFFF7E3FEFEE737
:1008080000800120000000203C040020042D000886
:100818003C04002024050020FEE70000104B1B7854
:100828000BB90120704710B504464FF47A70B0FB3D
:10083800F3F30C4A1068B0FBF3F000F07FFE68B9E0
:100848000F2C01D901200AE0002221464FF0FF3089
:1008580000F02EFE044B1C60002000E0012010BDBB
:1008680034040020300400203804002010B5094A60
:10087800136843F480731360032000F007FE002020
:10088800FFF7CCFF10B10124204610BD0446FFF746
:10089800CDFEF9E700200240034B1B78034A11689C
:1008A8000B441360704700BF34040020200500206B
:1008B800014B1868704700BF2005002038B5044672
:1008C800FFF7F6FF0546B4F1FF3F02D0044B1B7853
:1008D8001C44FFF7EDFF401BA042FAD338BD00BF10
:1008E8003404002030B583B000230193002800F0C1
:1008F800E5800446436D13B323689A6812F0005FDD
:1009080005D09A6822F0204222F03F029A602268BD
:10091800936813F0805F1FD1936823F0104323F08E
:100928003F0343F080539360654B1B689B09654AFE
:10093800A2FB03239B0901335B00019309E0FFF746
:100948008DFE0023A36584F85030D5E7019B013B59
:100958000193019B002BF9D12268936813F0805F03
:1009680040F08380636D43F010036365A36D43F02B
:100978000103A3650120936813F0040300D0012349
:10098800616D11F0100F40F09280002B40F08F80C5
:10099800636D23F4817343F002036365936813F076
:1009A800010F1BD1484B9A6812F0010200D00122B6
:1009B800464B9B6813F0010300D001231343444ABC
:1009C800926812F0010200D00122134306D1636835
:1009D80040498A6822F47C1213438B60627E636B01
:1009E80043EA4233E2681343A268134394F8202091
:1009F80043EA0243012A3AD0A26A22B102F4707291
:100A0800E16A0A4313432168CD68334A2A401343F5
:100A1800CB602268936813F0080300D00123ABB9B8
:100A2800217E94F830305B0043EA8131D36823F4A7
:100A3800804323F002030B43D36094F83830012B32
:100A48001AD02268136923F0010313612369012B6B
:100A580024D02268136B23F00F031363636D23F014
:100A6800030343F00103636526E0002083E7626A1D
:100A7800013A43EA4243BFE721680B6923F4FF6365
:100A880023F00403E26B256C2A43656C2A43A56CAA
:100A98002A43134343F001030B61D7E721680B6B2B
:100AA80023F00F03E269013A13430B63D6E7636D42
:100AB80043F010036365012003B030BD0120FBE75C
:100AC80030040020632D3E0500000450000104504E
:100AD800000204500003045007C0F0FF704770473D
:100AE80008B5806AFFF7FBFF08BD704708B50346E5
:100AF800806A426D12F0500F30D1436D43F4007399
:100B0800436503681A6812F0080F14D0DA6812F403
:100B1800406F20D1DB6813F4005F1CD1436D23F4D0
:100B280080734365436D13F4805F14D1436D43F0C4
:100B3800010343650FE0DB6813F0020F0BD1436D2F
:100B480023F480734365436D13F4805F03D1436DD1
:100B580043F001034365FFF7C1FF08BD426D12F082
:100B6800100F04D1C26C526B18469047F5E7FFF797
:100B7800BCFFF2E708B5806A436D43F04003436564
:100B8800836D43F004038365FFF7AFFF08BD0000E2
:100B9800F0B583B00022019290F85020012A00F0AD
:100BA80043820346012280F850200068826812F0D0
:100BB800040F09D05A6D42F020025A650120002224
:100BC80083F8502003B0F0BD4A68052A07D8023AD6
:100BD800032A65D8DFE802F002665F610C2200F1A3
:100BE800300E100A800000F00C005EF8004002F0A1
:100BF8001F024FF01F0C0CFA02FC24EA0C0C0C68C4
:100C0800C4F3846404FA02F24CEA02024EF80020AB
:100C18001C68A26812F0040200D00122A06810F03B
:100C2800080000D001200AB900283DD01868826861
:100C380012F0010F18D10A68CD68D0F8B040C2F39D
:100C4800120C24EA0C0405F0180CAC4D25FA0CFC27
:100C580002EA0C02C2F312022243C0F8B020C868AC
:100C6800A74A904200F0B5800A68A6490A4200F0F7
:100C7800D781A549896801F0E074A448824200F050
:100C88007981A348824200F0A081A248824200F004
:100C9800B481002093E71822A1E74FF480729EE701
:100CA80006229CE712229AE70E688D681434720EA9
:100CB800920002F00402A058C6F3045C072606FA64
:100CC8000CF620EA060005FA0CF52843A0504869FE
:100CD8001C68E268C2F3C102520000FA02F20D6910
:100CE800042D0ED00E68603454F825708A483840B8
:100CF80006F0F8463243104340F0004044F825001F
:100D080094E7226E206EC0F384600A68C2F312056D
:100D180085BBC2F38462904234D01C68626E606EF8
:100D2800C0F384600A68C2F3120585BBC2F384620B
:100D3800904234D01C68A26EA06EC0F384600A682A
:100D4800C2F3120585BBC2F38462904234D01C689A
:100D5800E26EE06EC0F384600A68C2F3120585BBD8
:100D6800C2F3846290427FF461AFE26E22F00042E7
:100D7800E2665BE792FAA2F212B1B2FA82F2CAE72D
:100D88002022C8E7226E22F000422266C5E792FAC6
:100D9800A2F212B1B2FA82F2CAE72022C8E7626E62
:100DA80022F000426266C5E792FAA2F212B1B2FAE4
:100DB80082F2CAE72022C8E7A26E22F00042A266A9
:100DC800C5E792FAA2F212B1B2FA82F2CAE7202279
:100DD800C8E71C680A68C2F31205002D39D1900EC5
:100DE800013000F01F0009288CBF002001200028D6
:100DF80067D0002D3CD1900E0130800600F0F840FD
:100E0800002D41D1960E013606F01F0C012606FA78
:100E18000CF63043002D46D1920E013202F01F022B
:100E280002EB420212050243886804F11406550ECB
:100E3800AD0005F004057459C2F304524FF0070CD5
:100E48000CFA02FC24EA0C0C90404CEA00007051A9
:100E58000AE792FAA2F048B1B0FA80F0013000F047
:100E68001F0009288CBF00200120C0E72020F5E7DB
:100E780092FAA2F030B1B0FA80F00130800600F0AA
:100E8800F840BDE72020F8E792FAA2F64EB1B6FA8C
:100E980086F6013606F01F064FF0010C0CFA06F62E
:100EA800B7E72026F5E792FAA2F242B1B2FA82F247
:100EB800013202F01F0202EB42021205B3E72022C0
:100EC800F6E75DBB900E0130800600F0F8408DBB60
:100ED800960E013606F01F0C012606FA0CF6304372
:100EE800BDBB920E013202F01F0202EB42021E3A13
:100EF800120542F00072024396E700BFFFFF0700A9
:100F080000007F400000088000030450000052C722
:100F1800000084CB0100008000F0FF0392FAA2F0E9
:100F280030B1B0FA80F00130800600F0F840CEE72A
:100F38002020F8E792FAA2F64EB1B6FA86F6013604
:100F480006F01F064FF0010C0CFA06F6C7E720263C
:100F5800F5E792FAA2F25AB1B2FA82F2013202F03D
:100F68001F0202EB42021E3A120542F00072C2E76B
:100F78002022F3E711F4000F7FF483AE1A682B499F
:100F88008A4205D001F500718A4201D0002016E698
:100F980044F4000426498A6822F0E07214438C6005
:100FA800244A126892092449A1FB021292090132CB
:100FB80002EB42029200019202E0019A013A019288
:100FC800019A002AF9D10020F9E511F0807F7FF419
:100FD8005CAE1A6815498A4205D001F500718A424B
:100FE80001D00020EBE544F080721148816821F0BF
:100FF800E0710A4382600020E1E511F4800F11D10D
:1010080019680A4A914201D00020D8E544F48002C8
:101018000748816821F0E0710A4382600020CEE52C
:101028000020CCE50020CAE50220CBE500000450F2
:101038000003045030040020632D3E0530B583B012
:101048000023019303689A6812F0010F58D10446EF
:1010580099682D4A114219D19A6822F0004222F06B
:101068003F0242F001029A60284B9B6813F4000F7C
:101078001CD0274B1B689B09264AA2FB03239B090C
:10108800013303EB43039B0001930CE0436D43F0F2
:1010980010034365836D43F001038365012030E04D
:1010A800019B013B0193019B002BF9D1FFF700FC49
:1010B800054623681A6812F0010F1FD19A6812F0CA
:1010C800010F07D19A6822F0004222F03F0242F055
:1010D80001029A60FFF7ECFB431B022BE9D9236856
:1010E8001B6813F0010FE4D1636D43F010036365CF
:1010F800A36D43F00103A365012002E0002000E096
:10110800002003B030BD00BF3F0000800003045042
:1011180030040020632D3E052DE9F04104463C4B88
:101128009E680068856815F0040F6CD10F469046DC
:1011380006F01F0694F85030012B67D0012384F87D
:101148005030344B984209D046B1052E06D0092EAE
:1011580004D0002384F85030012055E02046FFF7E2
:101168006DFF00284BD1636D23F4706323F00103F6
:1011780043F4807363652368274A934239D01A463B
:10118800934200D01EB9636D23F480136365636DC9
:1011980013F4805F30D0A36D23F00603A365E36CDE
:1011A8001E4ADA62E36C1E4A1A63E36C1D4A5A63EC
:1011B80023681C221A60002384F850302268536880
:1011C80043F0100353602268D36843F00103D360EF
:1011D800216843463A464031E06C00F061FB2268E2
:1011E800936823F0004323F03F0343F00403936024
:1011F8000AE0A2F58072C3E70023A365CFE70023C6
:1012080084F8503000E00220BDE8F0810220FBE7BE
:10121800000304500002045000010450F50A0008BD
:10122800E90A00087D0B000838B50446026893688F
:1012380013F0020300D00123916811F0010F39D097
:10124800002B39D1936803F00D03012B09D0636D8E
:1012580043F010036365A36D43F00103A365012008
:1012680029E0936823F0004323F03F0343F002038F
:101278009360236803221A60FFF71AFB0546236868
:101288009B6813F0010F13D0FFF712FB401B0228D5
:10129800F5D923689B6813F0010FF0D0636D43F014
:1012A80010036365A36D43F00103A365012002E009
:1012B800002000E0002038BD0020FCE730B583B0F6
:1012C8000023019390F85030012B41D004460D467D
:1012D800012380F85030FFF7A7FF80BB636D23F42C
:1012E800885323F0020343F002036365226893687E
:1012F80023F0404323F03F0305F080452B4343F0A0
:101308000043936023689B68002B06DB636D23F022
:10131800030343F00103636515E0019B0133019367
:10132800019BB3F5912FEDD3636D23F0120343F0C6
:1013380010036365002384F85030012006E0636DD4
:1013480043F010036365002384F8503003B030BDC8
:101358000220FBE790F85020012A00F08C8010B49E
:101368009BB00346012280F8502000221692179263
:101378000068424A90423FD000220192019A002A16
:101388003ED0926812F0040200D00122806810F06A
:10139800040F61D1002A5FD10A68002A39D0384C7D
:1013A800A26822F46042486893F830C040EA4C30A2
:1013B8000243A260314A906810F0010000D0012079
:1013C800304A926812F0010200D0012202432E48EE
:1013D800806810F0010000D00120024347D1284C5A
:1013E800A26822F4716222F00F020868896801433A
:1013F8000A43A260002034E002F580720192BDE742
:101408005A6D42F020025A65002283F850200120CC
:101418002AE01B498A6822F460428A60174A916868
:1014280011F0010100D00121164A926812F0010260
:1014380000D001220A431449896811F0010100D043
:1014480001210A4315D10E498A6822F4716222F0FB
:101458000F028A60002004E05A6D42F020025A65AB
:101468000120002283F850201BB010BC70470020D8
:10147800F7E70020F5E70220704700BF000004509E
:10148800000304500001045000020450074AD368C6
:1014980023F4E0631B041B0C000200F4E060034328
:1014A80043F0BF6343F40033D360704700ED00E0BE
:1014B80000B5194BDB68C3F30223C3F1070CBCF179
:1014C800040F28BF4FF0040C03F1040EBEF1060F01
:1014D80018D9033B4FF0FF3E0EFA0CFC21EA0C0131
:1014E80099400EFA03F322EA0303194300280BDBA1
:1014F8000901C9B200F1604000F5614080F80013AD
:101508005DF804FB0023E5E700F00F000901C9B20C
:10151800024B1954F4E700BF00ED00E014ED00E0C1
:10152800002807DB00F01F02400901239340024A0C
:1015380042F82030704700BF00E100E00138B0F108
:10154800807F0BD24FF0E0235861054AF02182F8E2
:1015580023100020986107221A6170470120704704
:1015680000ED00E070B110B50446037933B10223F1
:101578002371002020610123237110BD4371FFF7FF
:10158800DDF8F4E7012070474379012B2BD010B424
:1015980001234371022202710468226801F0100CD1
:1015A80003FA0CF31343236089B90268136803F044
:1015B8003C03042B06D00123037100234371184612
:1015C80010BC7047536843F001035360F3E70268A7
:1015D800136803F47013B3F5802FECD1536843F00C
:1015E80002035360E7E70220704710B483B0002479
:1015F80001940068019049B901990A44083201929E
:10160800019A1360002003B010BC704701990A4486
:1016180014320192F4E7F8B54379012B00F09E806B
:1016280004460D46164601234371022303710B68D5
:10163800042B33D02B69012B00F083802068C36B07
:1016480006F010020721914023EA01012B68AE68D9
:101658003343EE68334393400B43C3632068036806
:101668004FF48041914023EA010303602068036836
:1016780040F6FC71914023EA01016B6893400B43EB
:10168800036020680368C02101FA02F223EA02021B
:1016980002600123237100206071F8BDFFF708F98B
:1016A80007469EB123685B6B002B43DAFFF700F90E
:1016B800C01B0128F6D923685B6B002BF2DA23697B
:1016C80043F00803236103202071E6E723685B6B7E
:1016D80013F4004F10D0FFF7EBF8C01B0128F5D921
:1016E80023685B6B13F4004FF0D0236943F00803C1
:1016F800236103202071D0E70120FFF7DFF823687A
:10170800AA691A642068826C06F0100140F2FF335F
:101718008B4022EA0302EB698B401A4382642068FB
:10172800C36CFF228A4023EA02032A6A8A401343D1
:10173800C3647FE70120FFF7C1F82368AA695A64E8
:10174800E0E721688A6B06F010001F23834022EA35
:1017580003026B69834013438B636FE702209CE7A6
:1017680010B4446C04F01C0C012404FA0CF4D0F8F6
:1017780040C0CCF80440046863608368102B05D02F
:10178800036899600368DA6010BC704703689A6060
:101798000368D960F8E70000002872D010B4034647
:1017A8000068394A904249D8384A02443849A1FB6E
:1017B8000212120992005A64364A1A64022283F805
:1017C8002520016821F4FF4121F070019A68DC6846
:1017D80022431C6922435C6922439C692243DC69D9
:1017E80022431C6A22430A4302609A68B2F5804F7A
:1017F8001BD0196C274A91422BD0264AD2F8A8143C
:10180800586C00F01C0C0F2000FA0CF021EA0001C3
:10181800C2F8A814D2F8A81458685C6C04F01C0C20
:1018280000FA0CF00143C2F8A8140020D863012282
:1018380083F8252083F8240010BC7047164A024418
:101848001349A1FB0212120992005A64134A1A643E
:10185800B4E7D2F8A810586C00F01C0C0F2000FA5E
:101868000CF021EA0001C2F8A810D2F8A8105868B4
:101878005C6C04F01C0C00FA0CF00143C2F8A810D0
:10188800D3E70120704700BF07040240F8FFFDBFFF
:10189800CDCCCCCC00000240F8FBFDBF00040240D8
:1018A80038B5044690F82400012832D0012084F885
:1018B800240094F82500C0B2012804D0002384F83D
:1018C8002430022038BD022084F825000020E0637F
:1018D8002568286820F0010028602046FFF740FFAF
:1018E800236B5BB12268136843F00E031360226810
:1018F800136843F0010313600020E3E722681368CC
:1019080023F0040313602268136843F00A0313608A
:10191800EDE70220D6E738B5036C19680468256836
:10192800436C03F01C0304229A400A4215D015F0B8
:10193800040F12D0236813F0200F03D1236823F07B
:1019480004032360436C03F01C02016C04239340DE
:101958004B60036B03B1984738BD02229A400A4294
:101968001CD015F0020F19D0236813F0200F06D1F0
:10197800236823F00A032360012380F82530436C91
:1019880003F01C02016C022393404B60002380F893
:101998002430C36A002BDFD09847DDE7082202FA1B
:1019A80003F30B42D8D015F0080FD5D0236823F0E5
:1019B8000E032360436C03F01C03016C012202FA3E
:1019C80003F34B60C26380F82520002380F824309D
:1019D800436B002BC0D09847BEE7000070B582B0BB
:1019E80000236EE085685E000324B44025EA040500
:1019F800CC68B4402C438460456825EA0C054C68E3
:101A0800C4F300149C402C4344606DE0C56A25EA89
:101A18000C0CC4F3C0049C4044EA0C04C46269E0A2
:101A2800DD08083550F8256003F007044FEA840CF8
:101A38000F2404FA0CF426EA040E0C6904FA0CF4D8
:101A480044EA0E0440F825406CE0062400E0002437
:101A580004FA0EF42C430CF1020C5F4D45F82C40AF
:101A68005E4CA568D44325EA0206D1F804C01CF4EC
:101A7800801F01D042EA0506584DAE60ED6804EAC1
:101A88000506D1F804C01CF4001F01D042EA05067F
:101A9800524DEE606D6804EA0506D1F804C01CF4E6
:101AA800003F01D042EA05064C4D6E602D682C407F
:101AB8004E6816F4803F01D042EA0504474A146094
:101AC80001330A6832FA03F400F083804FF0010C06
:101AD8000CFA03FC1CEA0202F2D04C6804F003047E
:101AE800013C012C7FF67EAF4C6804F0030EBEF17A
:101AF800030F8BD04C6804F00304032C0CD0C4688B
:101B08005D004FF0030C0CFA05FC24EA0C0C8C6801
:101B1800AC4044EA0C04C4604C6804F00304022C92
:101B28003FF47EAF04684FEA430E4FF0030C0CFA03
:101B38000EFC24EA0C0C4C6804F0030404FA0EF4BE
:101B480044EA0C0404604C6814F4403FB8D0244CB8
:101B5800256E45F001052566246E04F00104019404
:101B6800019C4FEA930C0CF102051B4C54F82550CC
:101B780003F003044FEA840E0F2404FA0EF425EA56
:101B88000405B0F1904F3FF462AF164CA04216D056
:101B980004F58064A04214D004F58064A04212D0F9
:101BA80004F58064A04210D004F58064A0420ED0F1
:101BB80004F58064A0423FF448AF072448E70124B5
:101BC80046E7022444E7032442E7042440E70524C7
:101BD8003EE702B070BD00BF0000014000040140B4
:101BE8000010024000040048024B186800F4C0606E
:101BF800704700BF00700040B0F5007F0FD01F4B4A
:101C08001B6803F4C063B3F5806F34D01B4A1368B4
:101C180023F4C06343F48063136000207047174BBC
:101C28001B6803F4C063B3F5007F20D0134A136820
:101C380023F4C06343F400731360114B1B68322212
:101C480002FB03F30F4AA2FB03239B0C013300E0C2
:101C5800013B0A4A526912F4806F01D0002BF7D178
:101C6800064B5B6913F4806F03D100207047002096
:101C78007047032070470020704700BF0070004085
:101C88003004002083DE1B4330B583B00446204B6C
:101C98009B6D13F0805F0BD0FFF7A6FFB0F5007FB8
:101CA80017D0802C1FD82DD0702C2DD000211BE0F0
:101CB800174DAB6D43F08053AB65AB6D03F08053AC
:101CC8000193019BFFF790FFAB6D23F08053AB6549
:101CD800E4E7802C03D9A02C03D9022104E00021D9
:101CE80002E0012100E003210A4A136823F00703F8
:101CF8000B431360136803F007038B4206D10020DF
:101D080003B030BD0221EFE70121EDE70120F7E73D
:101D18000010024000200240284A9368D26802F06E
:101D2800030213F00C030AD00C2B06D0042B1FD08F
:101D3800082B20D00020024610E0012AF6D11F4AC5
:101D4800126812F0080F0CD11C4AD2F89420C2F382
:101D580003221B4951F8222043B100200C2B0DD03F
:101D68007047164A1268C2F30312F2E71046F5E705
:101D780014480022F2E714480022EFE70F4BDB6813
:101D880003F00303022B16D0032B00D10E4A0B4994
:101D9800C868C0F30210431CC868C0F3062002FBE1
:101DA80000F0B0FBF3F0CB68C3F3416301335B0091
:101DB800B0FBF3F0D4E7034AE9E700BF00100240A4
:101DC800C82C00080024F40000127A00002800F053
:101DD800F182F0B583B00446964B9D6805F00C057A
:101DE800DE6806F00306036813F0100F5AD0E5B159
:101DF8000C2D18D0A369002B00F0BB808D4A136806
:101E080043F001031360FEF753FD0746894B1B6837
:101E180013F0020F40F09A80FEF74AFDC01B02281B
:101E2800F4D90320D1E2012EE4D1824B1B6813F0D0
:101E3800020F03D0A369002B00F0BE82206A7D4BFD
:101E48001B6813F0080F5BD07A4B1B6803F0F00394
:101E580098425CD8774B1A6842F008021A601A68F0
:101E680022F0F002216A0A431A605A6822F47F427B
:101E7800E16942EA01225A60002D60D0FFF74CFF69
:101E88006C4B9B68C3F303136B4AD35C03F01F03CB
:101E9800D8406A4B18606A4B1868FEF7BFFC0028E8
:101EA80040F09382236813F0010F00F08180082D21
:101EB80075D00C2D71D06368B3F5803F00F0978022
:101EC800B3F5A02F00F099805A4B1A6822F480329B
:101ED8001A601A6822F480221A606368002B00F0E6
:101EE8009980FEF7E5FC0746524B1B6813F4003F48
:101EF8005ED1FEF7DDFCC01B6428F5D9032064E23F
:101F08004C4BD3F894301B0903F0F003A0E7FFF71C
:101F1800BBFE002840F05282464B1A6842F0080285
:101F28001A601A6822F0F002216A0A431A605A6895
:101F380022F47F42E16942EA01225A609EE7206A60
:101F4800FFF7A2FE002899D001203EE2394B1A681B
:101F580042F008021A601A6822F0F002216A0A4365
:101F68001A605A6822F47F42E16942EA01225A6003
:101F780098E7304A136823F001031360FEF798FCD2
:101F880007462C4B1B6813F0020F8BD0FEF790FC12
:101F9800C01B0228F5D9032017E2032E8BD1254B4D
:101FA8001B6813F4003F03D06368002B00F008821D
:101FB800236813F0020F58D0042D45D00C2D41D0C2
:101FC800E368002B77D01B4A136843F480731360CF
:101FD800FEF76EFC0646174B1B6813F4806F61D141
:101FE800FEF766FC801B0228F5D90320EDE1114AB3
:101FF800136843F4803313606FE703F18043A3F55C
:102008003C331A6842F480221A601A6842F480321B
:102018001A6062E7FEF74CFC0746064B1B6813F490
:10202800003FC5D0FEF744FCC01B6428F5D9032047
:10203800CBE100BF00100240B82C0008300400209B
:1020480038040020022EBBD1A34B1B6813F4806F09
:1020580003D0E368002B00F0B5819F4A536823F052
:10206800F853216943EA01635360236813F0080FAA
:102078004CD063699BB3984AD2F8943043F001037B
:10208800C2F89430FEF714FC0646934BD3F894300C
:1020980013F0020F3AD1FEF70BFC801B0228F4D98B
:1020A800032092E18C4A536823F0F853216943EAEC
:1020B80001635360D9E7884A136823F48073136077
:1020C800FEF7F6FB0646844B1B6813F4806FCCD0F2
:1020D800FEF7EEFB801B0228F5D9032075E17E4A46
:1020E800D2F8943023F00103C2F89430FEF7E0FBF5
:1020F8000646794BD3F8943013F0020F06D0FEF75A
:10210800D7FB801B0228F4D903205EE1236813F073
:10211800040F7AD0704B9B6D13F0805F36D16E4BF5
:102128009A6D42F080529A659B6D03F0805301933B
:10213800019B0126694B1B6813F4807F28D0A36894
:10214800012B39D0052B3FD0634BD3F8902022F0D8
:102158000102C3F89020D3F8902022F00402C3F8BB
:102168009020A368002B3DD0FEF7A2FB07465A4BF0
:10217800D3F8903013F0020F46D1FEF799FBC01B3D
:1021880041F288339842F2D903201EE10026D1E7B4
:10219800524A136843F480731360FEF789FB0746BD
:1021A8004E4B1B6813F4807FC9D1FEF781FBC01B1F
:1021B8000228F5D9032008E1474AD2F8903043F0C5
:1021C8000103C2F89030CCE7434BD3F8902042F09B
:1021D8000402C3F89020D3F8902042F00102C3F81B
:1021E8009020BEE7FEF764FB07463B4BD3F89030E0
:1021F80013F0020F08D0FEF75BFBC01B41F28833D7
:102208009842F2D90320E0E0EEB9A36A002B00F06F
:10221800DB80022B1DD00C2D00F0DD802E4A1368C8
:1022280023F080731360FEF743FB04462A4B1B68B8
:1022380013F0007F00F0B780FEF73AFB001B02287E
:10224800F4D90320C1E0244A936D23F080539365A9
:10225800DBE7214BDB6803F00301E26A91420FD010
:102268000C2D00F0B4801C4B1B6813F0806F40F0FD
:10227800B080194B1B6813F0805F31D00120A4E0B7
:1022880003F07002216B0139B2EB011FE8D103F4AE
:10229800FE42616BB2EB012FE2D103F40031A26B75
:1022A800073A18BF01229142DAD103F4C001E26B68
:1022B8005208013AB1EB425FD2D103F0C063226CFD
:1022C8005208013AB3EB426FCAD1034B1B6813F0B3
:1022D800007F4ED0002078E00010024000700040DF
:1022E8003E4A136823F080731360FEF7E1FA05464F
:1022F8003A4B1B6813F0007F06D0FEF7D9FA401B53
:102308000228F5D9032060E0344AD36834491940DB
:10231800E36A206B013843EA0013606B43EA002349
:10232800E06B4008013843EA4053206C400801380C
:1023380043EA4063A06B000943EA40430B43D36080
:10234800136843F080731360D36843F08073D360DD
:10235800FEF7AEFA0446214B1B6813F0007F06D146
:10236800FEF7A6FA001B0228F5D903202DE000206D
:102378002BE01A4B1A6842F080721A60DA6842F051
:102388008072DA60FEF794FA0446144B1B6813F067
:10239800007F06D1FEF78CFA031B022BF5D9032028
:1023A80013E0002011E00D4AD1680E4B0B40D360BA
:1023B80000200AE001207047012006E0012004E027
:1023C800012002E0012000E0002003B0F0BD012060
:1023D800FBE70120F9E70120F7E700BF0010024002
:1023E8008C809DF9FCFFEEFE002800F0AF8070B5F0
:1023F8000D460446594B1B6803F007038B420BD26A
:10240800564A136823F007030B431360136803F05D
:1024180007038B4240F09C80236813F0020F0CD016
:10242800A2684F4B9B6803F0F0039A4205D94C49C8
:102438008B6823F0F0031A438A60236813F0010FB6
:1024480039D06368032B09D0022B26D063BB444ADA
:10245800126812F0020F06D1012076E0404A126895
:1024680012F0007F76D03E498A6822F003021343B7
:102478008B60FEF71DFA0646394B9B6803F00C0388
:102488006268B3EB820F16D0FEF712FA801B41F296
:1024980088339842F0D9032057E0314A126812F481
:1024A800003FE0D1012050E02D4A126812F4806FFD
:1024B800D9D1012049E0236813F0020F0CD0A2689B
:1024C800274B9B6803F0F0039A4205D224498B6896
:1024D80023F0F0031A438A60204B1B6803F00703BC
:1024E800AB420AD91D4A136823F007032B43136034
:1024F800136803F00703AB422ED1236813F0040FCF
:1025080006D0174A936823F4E063E1680B439360AD
:10251800236813F0080F07D0114A936823F4605317
:10252800216943EAC1039360FFF7F6FB0C4B9B68F4
:10253800C3F303130B4AD35C03F01F03D8400A4BC1
:1025480018600A4B1868FEF769F970BD01207047DA
:102558000120FAE70120F8E70120F6E70020024011
:1025680000100240B82C0008300400203804002075
:10257800F8B504460F46594BDB6813F0030F18D023
:10258800564BDB6803F003030268934202D001252F
:102598002846F8BD002A00F09E80504BDB68C3F344
:1025A800021301334268934201D00125F0E7002568
:1025B80009E00368022B57D0032B5CD0012B42D0D3
:1025C8000125002DE4D1454A136823F08063136088
:1025D800FEF76EF90646414B1B6813F0006F05D0F5
:1025E800FEF766F9831B022BF5D90325002DCFD101
:1025F800002F4ED139490B6923F41F3323F440735C
:10260800A068E2681209520442EA002213430B61EF
:10261800324A136843F080631360FEF749F90646AF
:102628002E4B1B6813F0006F05D1FEF741F9831B91
:10263800022BF5D90325002DAAD1284A1369A169CF
:102648000B431361A4E7254A126812F0020F1ED04B
:102658002248C26822F073026168013943EA011313
:102668001343C3600025ACE71C4A126812F4806F5C
:10267800EED10125A5E7194A126812F4003FE7D107
:10268800164A126812F4802FE2D1012599E7012534
:1026980097E7012F0FD01148026922F0C06222F497
:1026A800FE42A16863695B08013B5B0643EA0123BC
:1026B80013430361ACE70948026922F4C00222F41B
:1026C800FE42A16823695B08013B5B0543EA0123DD
:1026D800134303619CE701255AE700BF001002403D
:1026E800F8B504460F46504BDB6813F0030F18D0BB
:1026F8004D4BDB6803F003030268934202D00125C7
:102708002846F8BD002A00F08C80474BDB68C3F3ED
:10271800021301334268934201D00125F0E70025F6
:1027280009E00368022B57D0032B5CD0012B42D061
:102738000125002DE4D13C4A136823F0805313602F
:10274800FEF7B6F80646384B1B6813F0005F05D055
:10275800FEF7AEF8831B022BF5D90325002DCFD148
:10276800002F4ED130494B6923F41F3323F44073B3
:10277800A068E2681209520442EA002213434B613E
:10278800294A136843F080531360FEF791F8064610
:10279800254B1B6813F0005F05D1FEF789F8831BF2
:1027A800022BF5D90325002DAAD11F4A5369616967
:1027B8000B435361A4E71C4A126812F0020F1ED0A3
:1027C8001948C26822F073026168013943EA0113AB
:1027D8001343C3600025ACE7134A126812F4806FF4
:1027E800EED10125A5E7104A126812F4003FE7D19F
:1027F8000D4A126812F4802FE2D1012599E70125CC
:1028080097E70948426922F0C06222F4FE42A168B3
:1028180023695B08013B5B0643EA012313434361D9
:10282800AEE701256CE700BF001002402DE9F0413A
:1028380082B00446036813F4006F33D0436EB3F5D7
:10284800000F1FD00CD823B3B3F5800F05D100219A
:102858002030FFF745FF064620E001273E4623E0EB
:10286800B3F5400F0BD10026604AD2F8883023F424
:102878004003616E0B43C2F88830002714E001273B
:102888003E4611E0594AD36843F48033D3600026AA
:10289800EAE700210430FFF76BFE0646002EE3D07E
:1028A800374601E000273E46236813F4805F30D0A6
:1028B800A36EB3F1007F1FD00DD81BB3B3F1807F97
:1028C80006D1002104F12000FFF70AFF064605E0C3
:1028D80001273E461DE0B3F1407F0AD1C6B9434AFD
:1028E800D2F8883023F04073A16E0B43C2F88830C9
:1028F8000FE001273E460CE03C4AD36843F480339E
:10290800D360EBE70021201DFFF732FE0646E5E71E
:102918003746236813F4003F71D0344B9B6D13F096
:10292800805F4ED1314B9A6D42F080529A659B6D13
:1029380003F080530193019B4FF001082C4A136860
:1029480043F480731360FDF7B3FF0546284B1B68FB
:1029580013F4807F05D1FDF7ABFF401B0228F5D9A2
:102968000326002E46D1214BD3F8903013F4407340
:1029780016D0D4F884209A4212D01C4AD2F890304B
:1029880023F44073D2F8901041F48031C2F89010CB
:10299800D2F8901021F48031C2F89010C2F890302B
:1029A80013F0010F10D1002E40F027810F4AD2F802
:1029B800903023F44073D4F884100B43C2F890305D
:1029C80019E04FF00008B9E7FDF772FF0546074B1D
:1029D800D3F8903013F0020FE5D1FDF769FF401BE3
:1029E80041F288339842F2D90326DCE7001002400E
:1029F800007000403746B8F1000F40F000812368AE
:102A080013F0010F08D09D4AD2F8883023F0030351
:102A1800A16B0B43C2F88830236813F0020F08D06B
:102A2800964AD2F8883023F00C03E16B0B43C2F8C6
:102A38008830236813F0040F08D0904AD2F8883001
:102A480023F03003216C0B43C2F88830236813F05D
:102A5800080F08D0894AD2F8883023F0C003616C87
:102A68000B43C2F88830236813F0100F08D0834A4C
:102A7800D2F8883023F44073A16C0B43C2F8883035
:102A8800236813F0200F08D07C4AD2F8883023F44A
:102A98004063E16C0B43C2F88830236813F4007F6D
:102AA80008D0764AD2F8883023F44023E16D0B43EE
:102AB800C2F88830236813F4806F08D06F4AD2F8C0
:102AC800883023F44013216E0B43C2F88830236802
:102AD80013F0400F08D0694AD2F8883023F44053E5
:102AE800216D0B43C2F88830236813F0800F08D09B
:102AF800624AD2F8883023F44043616D0B43C2F830
:102B08008830236813F4807F08D05C4AD2F8883074
:102B180023F44033A16D0B43C2F88830236813F4C3
:102B2800005F0FD0554AD2F8883023F04063E16E39
:102B38000B43C2F88830E36EB3F1006F65D0B3F190
:102B4800806F67D0236813F4002F0FD04B4AD2F858
:102B5800883023F04063216F0B43C2F88830236F1D
:102B6800B3F1006F5ED0B3F1806F60D0236813F4C7
:102B7800802F0FD0414AD2F8883023F04063616F2C
:102B88000B43C2F88830636FB3F1006F57D0B3F1CD
:102B9800806F59D0236813F4804F0FD0374AD2F88A
:102BA800883023F04053A16F0B43C2F88830A36FDD
:102BB800B3F1805F50D0B3F1005F55D0236813F4B0
:102BC800004F08D02D4AD2F8883023F08043E16FB7
:102BD8000B43C2F88830236813F4803F09D0274A92
:102BE800D2F8883023F00043D4F880100B43C2F8A1
:102BF8008830384602B0BDE8F0813746FBE61F4A08
:102C0800936D23F080539365F9E6D36843F48013FA
:102C1800D36097E70121201DFFF7AAFC002891D077
:102C280007468FE7D36843F48013D3609EE70121FA
:102C3800201DFFF79DFC002898D0074696E7D3682B
:102C480043F48013D360A5E70121201DFFF790FC12
:102C580000289FD007469DE70221201DFFF788FC2A
:102C68000028ABD00746A9E7022104F12000FFF7AE
:102C780037FD0028A2D00746A0E700BF0010024099
:102C8800024B13B10248FDF7BFBA704700000000BD
:102C98001D020008F8B500BFF8BC08BC9E46704786
:0C2CA800F8B500BFF8BC08BC9E467047A1
:102CB40008000020000000000000000001020304DE
:102CC40006070809A0860100400D0300801A0600CB
:102CD40000350C0040420F0080841E0000093D00B6
:102CE40000127A000024F40000366E010048E80166
:042CF400006CDC0292
:082CF800892C0008F10100081D
:042D0000C9010008FD
:102D0400080000200000000000000000F402002081
:102D14005C030020C4030020000000000000000049
:102D2400000000000000000000000000000000009F
:102D3400000000000000000000000000000000008F
:102D4400000000000000000000000000000000007F
:102D5400000000000000000000000000000000006F
:102D6400000000000000000000000000000000005F
:102D7400000000000000000000000000000000004F
:102D8400000000000000000000000000000000003F
:102D9400000000000000000000000000000000002F
:102DA400000000000000000000000000000000001F
:102DB40001000000000000000E33CDAB34126DE6BC
:102DC400ECDE05000B000000000000000000000025
:102DD40000000000000000000000000000000000EF
:102DE40000000000000000000000000000000000DF
:102DF40000000000000000000000000000000000CF
:102E040000000000000000000000000000000000BE
:0C31340000093D00010000001000000038
:04000005080007D117
:00000001FF
