:020000040800F2
:100000000080012015860008ED3A0008EF3A00084C
:10001000F13A0008F33A0008F53A00080000000041
:10002000000000000000000000000000A17D0008AA
:10003000F73A000800000000417E0008337900080C
:1000400065860008658600086586000865860008E4
:1000500065860008658600086586000865860008D4
:1000600065860008658600086586000865860008C4
:10007000F93A0008093B0008658600086586000813
:1000800065860008658600086586000865860008A4
:100090006586000865860008658600086586000894
:1000A00065860008193B000865860008658600081B
:1000B0006586000865860008658600086586000874
:1000C0006586000865860008658600086586000864
:1000D000658600086586000865860008293B0008DB
:1000E0006586000865860008658600086586000844
:1000F0006586000865860008658600086586000834
:100100006586000865860008658600086586000823
:100110006586000865860008658600086586000813
:100120006586000865860008658600086586000803
:1001300065860008658600086586000865860008F3
:1001400065860008658600086586000865860008E3
:1001500065860008658600086586000865860008D3
:1001600065860008658600086586000865860008C3
:1001700065860008658600086586000800000000A6
:08018000658600086586000891
:1001C0000348044B834202D0034B03B118477047E6
:1001D000D8020020D802002000000000054806498F
:1001E0000B1AD90F01EBA301491002D0034B03B145
:1001F00018477047D8020020D802002000000000F5
:1002000010B5064C237843B9FFF7DAFF044B13B15E
:100210000448AFF300800123237010BDD8020020F2
:10022000000000001817010808B5044B1BB1044971
:100230000448AFF30080BDE80840CFE700000000AD
:10024000DC02002018170108014B1868704700BF36
:100250000000002070B50D4E0D4D761BB61006D077
:10026000002455F8043B01349847A642F9D1094EC1
:10027000094D761B11F050FAB61006D0002455F83F
:10028000043B01349847A642F9D170BD48250108C6
:10029000482501085025010848250108844641EAFF
:1002A000000313F003036DD1403A41D351F8043BEE
:1002B00040F8043B51F8043B40F8043B51F8043B40
:1002C00040F8043B51F8043B40F8043B51F8043B30
:1002D00040F8043B51F8043B40F8043B51F8043B20
:1002E00040F8043B51F8043B40F8043B51F8043B10
:1002F00040F8043B51F8043B40F8043B51F8043B00
:1003000040F8043B51F8043B40F8043B51F8043BEF
:1003100040F8043B51F8043B40F8043B51F8043BDF
:1003200040F8043B51F8043B40F8043B403ABDD24E
:10033000303211D351F8043B40F8043B51F8043BF0
:1003400040F8043B51F8043B40F8043B51F8043BAF
:1003500040F8043B103AEDD20C3205D351F8043B7F
:1003600040F8043B043AF9D2043208D0D2071CBF4B
:1003700011F8013B00F8013B01D30B880380604674
:10038000704700BF082A13D38B078DD010F00303EA
:100390008AD0C3F10403D21ADB071CBF11F8013B5A
:1003A00000F8013B80D331F8023B20F8023B7BE7A9
:1003B000043AD9D3013A11F8013B00F8013BF9D2D4
:1003C0000B7803704B7843708B788370604670476E
:1003D000830730B548D0541E002A3FD0CAB2034626
:1003E00001E0013C3AD303F8012B9D07F9D1032C1E
:1003F0002DD9CDB245EA05250F2C45EA054536D95C
:10040000A4F1100222F00F0C03F1200EE6444FEA93
:10041000121C03F1100242E9045542E90255103260
:100420007245F8D10CF1010214F00C0F03EB02122B
:1004300004F00F0C13D0ACF1040323F003030433D6
:10044000134442F8045B9342FBD10CF003042CB13B
:10045000CAB21C4403F8012B9C42FBD130BD644658
:100460001346002CF4D1F9E703461446BFE71A46B9
:10047000A446E0E70EB410B5044683B008B1836922
:100480005BB106ABA168059A0193204600F020FA03
:1004900003B0BDE8104003B0704700F017F9F0E773
:1004A0000FB410B50A4B1C6882B00CB1A3695BB1E4
:1004B00005ABA168049A0193204600F009FA02B046
:1004C000BDE8104004B07047204600F0FFF8EFE7A9
:1004D0000000002000207047014900F037B900BF3C
:1004E000311300080020704770B568224D1E02FBD2
:1004F00005F50E4605F1740100F04CF9044640B1D3
:1005000000210C30C4E90016A06005F16802FFF775
:100510005FFF204670BD00BF274B2DE9F0411E68EC
:10052000B369074653B348364FF00408D6E901349F
:10053000013B04D51EE05A1C04F168041AD0B4F93A
:100540000C50013B002DF6D11C4B6566C4E90055EB
:10055000C4E90253C4E90455A5610822294604F1FF
:100560005C00FFF735FFC4E90D55C4E9125520467C
:10057000BDE8F08135682DB12E46D7E7304600F052
:100580001FF8D0E74FF4D671384600F003F904465F
:1005900068B10560C0F804800C302946A06025468B
:1005A0004FF4D072FFF714FF34602E46BEE70C23E1
:1005B00030603B60DBE700BF301701080100FFFF40
:1005C0002DE9F84F344B35491A68816290424FF05B
:1005D0000003C0E91233036504BF012383610546AC
:1005E000FFF79AFF68602846FFF796FFA860284645
:1005F000FFF792FF6F68E86000240423C7E9024315
:1006000008222146C7E90044C7E904447C66BC616E
:1006100007F15C00FFF7DCFEDFF88CB0AE68DFF8B6
:100620008CA0DFF88C90DFF88C801D4BC7F828A0D9
:10063000C7E9087BC7F82C90C7F830800822F36020
:10064000C6E90044C6E904447466B460B461214656
:1006500006F15C00FFF7BCFEC6E9086BC6E90AA913
:10066000C6F83080EE680F4BF360C6E90044C6E977
:1006700004447466B460B4612146082206F15C004B
:10068000FFF7A6FE0123C6E9086BC6E90B98C6F87A
:1006900028A0AB61BDE8F88F30170108D904000825
:1006A0000900010012000200710F0008990F0008F4
:1006B000D90F0008F90F0008024B0349186800F031
:1006C00045B800BF3017010831130008836903B92A
:1006D00076E77047704700BF704700BF704700BFA4
:1006E000704700BF024B0349186800F00FB800BF05
:1006F00000000020D5040008024B0349186800F0F0
:1007000005B800BF00000020E50400082DE9F04115
:10071000884600F148070026D7E90154013D0FD46F
:10072000A389012B05F1FF3506D9B4F90E30013349
:10073000204601D0C04706436B1C04F16804EFD18A
:100740003F68002FE8D13046BDE8F0812DE9F8433D
:100750000746884600F148064FF00009D6E90154E3
:10076000013D11D4A389012B05F1FF3508D9B4F956
:100770000E300133214603D03846C04749EA00090C
:100780006B1C04F16804EDD13668002EE6D14846B2
:10079000BDE8F883F8B5CD1C25F0030508350C2D10
:1007A00038BF0C25002D064623DBA94221D8254F52
:1007B00001F012F93A6822B3144603E06368224656
:1007C000FBB11C4623685B1BF8D40B2B15D8636860
:1007D00094420CBF3B605360304601F0FFF804F1D7
:1007E0000B00231D20F00700C21A01D01B1AA350D2
:1007F000F8BD0C2333600020F8BD23601C44256045
:10080000EAE77968C9B12946304600F09FFB431CEE
:100810000CD0C41C24F00304A04205D0211A304699
:1008200000F094FB013001D02560D5E70C23304661
:10083000336001F0D3F80020F8BD304600F086FBAD
:100840007860E0E7F40200209368013B002B93609E
:1008500011DA10B49469A34209DB0A2907D013689E
:10086000581C1060197008465DF8044B70475DF81D
:10087000044B00F0C5BB1368581C10601970084683
:10088000704700BF9BB1F8B5134406460F46541E8F
:100890005D1E01E0AC4208D014F8011F3A46304614
:1008A000FFF7D2FF431CF5D1F8BD0020F8BD0020B2
:1008B000704700BF936810B5144613B953601846CB
:1008C00010BD00F09FFD0023C4E9013310BD00BF3F
:1008D0002DE9F04F88469FB015461C46814618B159
:1008E0008369002B00F0A280924B984500F0A48011
:1008F000914B984500F0B180904B984508BFD9F8CE
:100900000C80B8F80C30180740F19D80D8F81030F2
:10091000002B00F0988000230B932978884E0594D3
:1009200020238DF8313030238DF832300127002913
:1009300074D02C460B4604E014F8013F002B00F065
:100940008F80252BF8D1B4EB050B40F08C802378F9
:10095000002B63D000234FF0FF32CDE9072306932D
:1009600009938DF85B301C93013404E0069A07FA72
:1009700003F3134306932546052214F8011B304662
:1009800000F05EFF831B0028F0D1069BD90644BF10
:1009900020228DF85B2029781A0744BF2B228DF87E
:1009A0005B202A2970D1059A11680432002905922A
:1009B000C0F29B800991697801352E2976D0614C6F
:1009C0000322204600F03CFF38B1069B001B402468
:1009D00004FA00F003430693013515F8011B5A4849
:1009E0008DF83010062200F02BFF002800F08380E5
:1009F000564B002B6DD005AA0092554B424606A9D6
:100A00004846AFF300800390039B013306D00B9B55
:100A1000039A297813440B9300298AD1B8F80C3033
:100A20005B0617D40B981FB0BDE8F08FFFF74EFEA2
:100A3000404B98457FF45CAFD9F80480B8F80C308F
:100A400018073FF563AF4146484600F053FB0028C6
:100A50003FF461AF4FF0FF30E5E7D9F8088050E789
:100A6000B4EB050BDAD0AA46C5F1010503E09345C6
:100A700036D91AF8011F42464846FFF7E5FE013015
:100A800005EB0A02F3D1C9E7A1F13002092A94D893
:100A9000099B15F8011F03EB830302EB4303A1F14C
:100AA0003002092AF5D92E29099388D169782A2993
:100AB0002BD1059BA9781A6807920433002A05F107
:100AC00002000593B8BF4FF0FF330546B8BF079348
:100AD00075E7059B073323F007030833059396E773
:100AE0000B9A23785A440B9232E7494243F00203AF
:100AF000099106935FE705AA0092154B424606A9A5
:100B0000484600F0CBF803907EE7A1F130020023C5
:100B1000092A079305F101053FF651AF15F8011FAA
:100B200003EB830302EB4303A1F13002092AF5D959
:100B3000079344E774170108541701083417010894
:100B400098190108A0190108A41901080000000063
:100B50008508000810B4054C8446134620685DF8EB
:100B6000044B0A466146FFF7B3BE00BF00000020F9
:100B70002DE9F84F92461F460A698B68DDF82890E8
:100B80009A42B8BF1A46CAF8002091F843300C4682
:100B9000064613B10132CAF80020226891065DD5DD
:100BA000DAF800300233CAF80030226812F0060F7B
:100BB00011461ED1E168CB1A002BD8BF114618DDB3
:100BC00004F1190B4FF0000805E0E568DAF8003091
:100BD000ED1A45450CDD01235A4639463046C847D3
:100BE000013008F10108F0D14FF0FF30BDE8F88F77
:100BF000216894F84330003B18BF01238A060AD5C8
:100C0000E1185A1C302081F84300224494F8451022
:100C100082F84310023304F1430239463046C84794
:100C20000130E1D0236803F00603042B1DD0A36834
:100C30002269934225DD4FF000089B1A98441A342C
:100C4000002501E045451CDA01232246394630469D
:100C5000C847013005F10105F4D1C5E712F0060FD0
:100C600012D0003B18BF0123D5E7DAF80030E16865
:100C70002269C91AA368934221EAE178DDDC0029E0
:100C8000DDDC0020BDE8F88FE168DAF80030CB1A2F
:100C9000002BD8BF114693DCABE700BF2DE9F0472E
:100CA0000C4684B09046227E0C990746994604F182
:100CB0004300002A33D0A2F15803DDB2202D67D8BB
:100CC000202B65D8DFE813F0DE00640064006400C8
:100CD0006400640064006400640064006400A300B5
:100CE0006E0064006400640064006E0064006400D0
:100CF0006400640021007F00C00064006400AE0056
:100D000064007F0064006400E50023681A0640F177
:100D100004810B6862691D1D0D601B681A60002349
:100D200082462361CDF80090434603AA2146384607
:100D3000FFF71EFF013020D0236952464146384656
:100D4000C847013019D02368E068039E9B0719D576
:100D5000831B002B16DD04F1190A002504E0E0686E
:100D6000039E831BAB420DDD0123524641463846AC
:100D7000C847013005F10105F1D14FF0FF3004B053
:100D8000BDE8F087B042B8BF304604B0BDE8F08798
:100D9000012384F84220236104F1420A002384F8ED
:100DA0004330BFE723681A0602D45E0600F1C18013
:100DB0000D682A6804350D601546002A6BDBDFF8E4
:100DC00084C10A2610E023681D0640F19C800B6850
:100DD0001D1D0D601D68DFF86CC16F2A0CBF082651
:100DE0000A26002384F843306268A260002A7FDB71
:100DF000236823F004032360002D5BD1002A79D1FE
:100E00008246082E65D0A0EB0A0020618AE70B68B5
:100E10000122186804330B6004F1420A84F842008E
:100E20002261BBE70B686268181D0860D3F800A058
:100E30000021504600F004FD002800F08180A0EB66
:100E40000A0060602061A9E7236843F02003236063
:100E50007822DFF8F4C084F845200A68151D0D607B
:100E60001D0643D4590641D51588DE0744BF43F01B
:100E700020032360002D44D1236823F02003236046
:100E80001026AEE7582384F84530DFF8B8C0236851
:100E9000E3E72368DCE76268A2602D21002AC5F140
:100EA000000584F8431002DB23F004032360DFF81D
:100EB00094C00A268246B5FBF6F306FB13512A4678
:100EC0001CF801100AF8011DB2421D46F3D2082E8B
:100ED00099D12368D90796D5626823699A4292DC32
:100EE00030230AF8013C0AF1FF3A8CE71568BCE7A9
:100EF000002DDFD19CF8003084F8423004F1420A22
:100F00007FE710266DE713F0400F0B6803F104052F
:100F10000D600CBF1D681D885DE713F0400F0B6866
:100F2000626903F104050D601B6814BF1A801A6022
:100F3000F5E60A68B2F9005004320A602A463CE736
:100F400060687FE7AC190108C019010838B5074D82
:100F50000022044608462A6007F088F8431C00D0A7
:100F600038BD2B68002BFBD0236038BDFC0200206D
:100F700010B50C46B1F90E1000F0BCFD002803DBE3
:100F8000636D0344636510BDA38923F48053A3817B
:100F900010BD00BF002070472DE9F0410C46B1F9AB
:100FA0000C101F46CB05054616460BD421F4805184
:100FB000A1813B46B4F90E1032462846BDE8F04107
:100FC00000F082B8B4F90E100223002200F092FB68
:100FD000B4F90C10EAE700BF10B50C46B1F90E10D9
:100FE00000F088FBA389421C0EBF23F4805343F416
:100FF00080536065A38110BDB1F90E1000F0FCB8FC
:10100000F8B50D461446064608B1836943B3254B2F
:101010009C422AD0244B9C4229D0244B9C4208BF9E
:10102000F468A389A269A2601A0722D5236903B3D1
:1010300022686169D31AEDB299422F4629DD013346
:10104000A1680139A160511C2160157062699A4242
:1010500016D0A389DB0701D50A2D11D03846F8BD7B
:10106000FFF734FB0F4B9C42D4D17468D9E7B468C6
:10107000D7E72146304600F03DF838B92369D7E775
:101080002146304600F054F90028E7D04FF0FF37F2
:10109000E4E72146304600F04BF90028F6D12268FB
:1010A0000123CDE77417010854170108341701080C
:1010B00010B4044C03460A4620685DF8044B1946F8
:1010C000FFF79EBF0000002038B50C46084D84464F
:1010D000114620461A4600232B60644607F00AF8A2
:1010E000431C00D038BD2B68002BFBD0236038BDDB
:1010F000FC0200203C4B70B51D6806460C460DB145
:10110000AB69E3B1394B9C421FD0394B9C424DD067
:10111000384B9C4208BFEC68B4F90C3018079AB2FF
:1011200019D5216911B312F001002FD00020A06061
:1011300060694042A06100292ED0002070BD284681
:10114000FFF7C4FA294B9C42DFD16C68B4F90C302C
:1011500018079AB2E5D4D1063ED5520728D42169A2
:1011600043F00803A3819AB20029DCD102F4207075
:10117000B0F5007FD7D02146304600F0D1FAB4F95F
:101180000C3021699AB212F00100CFD1950758BFF7
:101190006069A0600029D0D1120658BF0846CDD59D
:1011A00043F04003A3814FF0FF3070BDAC68B3E75C
:1011B000616B51B104F14402914204D0304600F019
:1011C0000FFCB4F90C300022626321690022C4E9EB
:1011D000001223F02403C3E7092243F040033260E6
:1011E0004FF0FF30A38170BD00000020741701088C
:1011F000541701083417010838B5074D002204467A
:1012000008462A6006F084FF431C00D038BD2B68D6
:10121000002BFBD0236038BDFC0200208B891A070D
:101220002DE9F0410C4680463FD44A68002A58DD3B
:10123000E66A002E52D00022D8F80050C8F80020EC
:1012400013F4805251D10123216A4046B047431C18
:101250005ED0A389E66A5F0705D56368C01A636B31
:101260000BB1236CC01A216A024600234046B047E6
:10127000411C3CD1D8F80030002B38D01D2B01D0B8
:10128000162B4DD123690022C4E90032616BC8F8E6
:10129000005019B304F14403994202D0404600F0D3
:1012A0009FFB00206063BDE8F0810E69B6B10D6858
:1012B0000E609A070CBF4B690023AD1B8B600BE0DF
:1012C0002B463246216AA76A4046B847B0F1000C67
:1012D000A5EB0C05664413DD002DF1DC0020BDE814
:1012E000F0810A6C002AA3DCF8E7606DB3E7002305
:1012F000636023692360A389DB04C7D56065C5E704
:10130000A38943F040034FF0FF30A381BDE8F08193
:10131000D8F80030002B9CD01D2B06D0162B04D003
:10132000A38943F04003A381D9E7C8F80050D5E76B
:1013300038B50B69BBB10D46044608B18369B3B13A
:101340000D4B9D4211D00D4B9D4213D00C4B9D4235
:1013500008BFE568B5F90C302BB129462046BDE839
:101360003840FFF75BBF002038BD6568F2E7FFF744
:10137000ADF9E5E7A568EDE7741701085417010812
:101380003417010838B540B303690446E3B1174B7D
:101390001D680DB1AB69CBB1154B9C420FD0154BFD
:1013A0009C4221D0144B9C4208BFEC68B4F90C302D
:1013B00053B121462846BDE83840FFF72FBF6C687F
:1013C000B4F90C30002BF4D1002038BD2846FFF7CB
:1013D0007DF9074B9C42E2D1F1E7084B08491868B8
:1013E000BDE83840FFF7B2B9AC68DFE70000002085
:1013F0007417010854170108341701083017010841
:10140000311300089368002B00F085802DE9F04F20
:10141000B1F90C300C461907804683B0174698B2D4
:1014200025D523691BB310F002033D682DD04FF082
:10143000000ADFF8BCB25646B9465E45334652460E
:1014400028BF5B464046002E52D0216AA76AB847A3
:10145000002856DDD9F808301B1A8244361AC9F81C
:101460000830002BE9D1002003B0BDE8F08F214601
:101470004046FFF73FFE002840F03681B4F90C30BB
:101480003D6898B210F00203D1D110F0010944D1A7
:101490004E46009746B38205D4F808B040F18380E9
:1014A000B3455A4600F2B28010F4906F40F0BF800E
:1014B00020680192494600F013FAA368019AA3EB51
:1014C0000B012368A1601344B24623600026009BF1
:1014D0009868A0EB0A00D14498600028C3D0B4F902
:1014E0000C0080B2002ED6D1D5E900960835D1E7A0
:1014F000D5E900A60835A0E721464046FFF718FFCA
:1015000080B3B4F90C3043F040034FF0FF30A381B7
:1015100003B0BDE8F08F002070471E46AA469946EA
:1015200018461D46009756B388B34A46D4E90413BB
:101530002068B24228BF3246884205D9A16803EB31
:10154000010B5A4500F3A680934263DC216AA76A27
:101550002A464046B847B0F1000BD2DDB9EB0B0983
:10156000CAD00120009A9368A3EB0B035D44A6EB5D
:101570000B069360002B3FF476AF002ED4D10AF116
:10158000080353E902569A460833002EF9D0324632
:101590000A21284600F054F9002800F09C80013010
:1015A000A0EB0509C1E720682369984216D8636952
:1015B000B34213D86FF00042B24228BF3246216ACC
:1015C00092FBF3F2A76A02FB03F340464A46B84790
:1015D000B0F1000A95DDA6EB0A0678E7B345DA46D6
:1015E00028BFB2465246494600F07AF9A3682268FD
:1015F000A3EB0A035244A3602260002BEBD12146E7
:101600004046FFF795FE0028E5D07AE72068B3460C
:1016100032464EE72946019200F062F9019AA3682A
:101620009B1AA360236813442360934696E72368BC
:101630002169A3EB010B636903EB430A0AEBDA7A36
:101640000BF101034FEA6A0A33445345524684BF03
:101650009A46524643052CD511464046FFF79AF864
:1016600000283BD05A4621690190FEF717FEA28957
:10167000019B22F4906242F08002A28103EB0B00F6
:101680002361AAEB0B03C4F814A0A3602060B34647
:1016900032460EE729465A4600F022F923685B4499
:1016A000236021464046FFF743FE00283FF456AF33
:1016B00027E7404600F0F6F903460028DED121690D
:1016C000404600F08DF9B4F90C300C2223F0800371
:1016D000C8F8002017E7721C914627E70C22B4F9DE
:1016E0000C30C8F800200EE74FF0FF30BCE600BF1A
:1016F00000FCFF7F38B50C46084D84461146204655
:101700001A4600232B60644606F00CFD431C00D0F3
:1017100038BD2B68002BFBD0236038BDFC020020B5
:10172000F0B58B890C46990797B007D504F14703AC
:101730000122C4E90432236017B0F0BDB4F90E10E1
:10174000002905462DDB6A4600F0EAF9002827DB70
:10175000019E06F470464FF48067A6F50056B6FA6F
:1017600086F6394628467609FFF714F830B3A38980
:101770001A4AAA6243F08003C4E90407A3812060E7
:10178000002ED9D0B4F90E10284600F0DFF9002859
:10179000D2D0A38923F0030343F00103A381CBE755
:1017A000A38913F0800F14BF40274FF48067394698
:1017B00028460026FEF7EEFF0028D8D1B4F90C30F9
:1017C0009A05B9D423F0030304F1470243F002035E
:1017D0000121C4E90421A3812260ADE7D9040008F6
:1017E00070B50C46B1F90E10002996B016461D468C
:1017F00013DB6A4600F094F900280EDB019901F42E
:101800007041A1F50051B1FA81F14FF480634909AB
:1018100000202960336016B070BDB4F90C3000228E
:101820001B062A6004D540230020336016B070BD2B
:101830004FF480630020336016B070BD00000000DC
:1018400001F0FF01102A2BDB10F0070F08D010F871
:10185000013B013A8B422DD010F0070F42B3F6D175
:10186000F0B441EA012141EA014122F007047FF08E
:1018700000070023F0E80256083C85EA010586EAE5
:10188000010685FA47F5A3FA87F586FA47F6A5FA21
:1018900087F68EB9EED1F0BC01F0FF0102F007022D
:1018A00032B110F8013B013A83EA010313B1F8D1D8
:1018B0000020704701387047002D06BF35460338B9
:1018C000073815F0010F07D1013015F4807F02BFF2
:1018D000013015F4C03F0130F0BC0138704700BF43
:1018E00088420DD98B1883420AD900EB020CBAB199
:1018F000624613F801CD02F801CD9942F9D1704743
:101900000F2A0ED8034602F1FF3C4AB10CF1010C3C
:10191000013B8C4411F8012B03F8012F6145F9D1EB
:10192000704740EA01039B0750D1A2F1100370B544
:1019300001F1200C23F00F0501F1100E00F110044D
:10194000AC441B095EF8105C44F8105C5EF80C5C5B
:1019500044F80C5C5EF8085C44F8085C5EF8045CD3
:1019600044F8045C0EF1100EE64504F11004E9D1D0
:10197000013312F00C0F01EB031102F00F0400EB26
:10198000031327D0043C24F003064FEA940C1E44B2
:101990001C1F8E465EF8045B44F8045FB442F9D124
:1019A0000CF1010402F0030203EB840301EB840158
:1019B00002F1FF3C4AB10CF1010C013B8C4411F8DF
:1019C000012B03F8012F6145F9D170BD02F1FF3CF5
:1019D00003469BE72246EBE7704700BF704700BF16
:1019E000002958D030B551F8043C83B0002BA1F148
:1019F0000404B8BFE4180190FFF7EEFF284A0198ED
:101A0000136833B1A3420DD9216804EB010C63457F
:101A10002FD06360146003B0BDE83040FFF7DEBF35
:101A2000A34210D81A465B68002BF9D1116802EB6B
:101A3000010C644519D02FD36360546003B0BDE836
:101A40003040FFF7CBBF116802EB010CA44516D064
:101A500022D8216804EB010C6345EDD11D685B6859
:101A60002944C4E900135460D5E723681944116080
:101A7000D1E71D685B682944C4E90013CAE72468FC
:101A800021445418A3421160C5D1D3E90043214435
:101A9000C2E90013BFE770470C230360BBE700BF38
:101AA000F4020020F8B51446F9B1CAB106460D4655
:101AB00000F05EF8A04202D32F463846F8BD21461A
:101AC0003046FEF767FE07460028F6D02246294634
:101AD000FEF7E4FB30462946FFF782FF3846F8BDA3
:101AE0002746FFF77DFF3846F8BDBDE8F8401146B0
:101AF000FEF750BE38B50C46084D844611462046C8
:101B00001A4600232B60644606F0E4FA431C00D01A
:101B100038BD2B68002BFBD0236038BDFC020020B1
:101B200070B50C46084D03460026204611461C465B
:101B30002E6006F0F0FA431C00D070BD2B68002B1D
:101B4000FBD0236070BD00BFFC02002038B5074DFC
:101B50000022044608462A6006F0E2FA431C00D040
:101B600038BD2B68002BFBD0236038BDFC02002061
:101B700051F8040C0028A0F10400BCBF0B58C01899
:101B8000704700BF7BB972B90029BEBF00204FF07B
:101B9000004106E008BF00281CBF6FF000414FF075
:101BA000FF3000F0BFB9ADF1080C6DE904CE00299B
:101BB00009DB002B1ADB00F04DF8DDF804E0DDE96D
:101BC000022304B07047404261EB4101002B1BDB54
:101BD00000F040F8DDF804E0DDE9022304B0404203
:101BE00061EB4101524263EB43037047524263EBA6
:101BF000430300F02FF8DDF804E0DDE9022304B030
:101C0000404261EB41017047524263EB430300F0F5
:101C100021F8DDF804E0DDE9022304B0524263EB71
:101C20004303704753B94AB9002908BF00281CBFB5
:101C30004FF0FF314FF0FF3000F074B9ADF1080CF8
:101C40006DE904CE00F006F8DDF804E0DDE90223DA
:101C500004B070472DE9F047089D04468E46002BDE
:101C60004DD18A42944669D9B2FA82F252B101FA50
:101C700002F3C2F1200120FA01F10CFA02FC41EA60
:101C8000030E94404FEA1C48210CBEFBF8F61FFAE5
:101C90008CF708FB16E341EA034306FB07F1994280
:101CA0000AD91CEB030306F1FF3080F01F81994233
:101CB00040F21C81023E63445B1AA4B2B3FBF8F00D
:101CC00008FB103344EA034400FB07F7A7420AD994
:101CD0001CEB040400F1FF3380F00A81A74240F2BC
:101CE00007816444023840EA0640E41B00261DB127
:101CF000D4400023C5E900433146BDE8F0878B425C
:101D000009D9002D00F0EF800026C5E9000130461A
:101D10003146BDE8F087B3FA83F6002E4AD18B42F4
:101D200002D3824200F2F980841A61EB030301209E
:101D30009E46002DE0D0C5E9004EDDE702B9FFDE8A
:101D4000B2FA82F2002A40F09280A1EB0C014FEA35
:101D50001C471FFA8CFE0126200CB1FBF7F307FB92
:101D6000131140EA01410EFB03F0884208D91CEB35
:101D7000010103F1FF3802D2884200F2CB804346D2
:101D8000091AA4B2B1FBF7F007FB101144EA0144B1
:101D90000EFB00FEA64508D91CEB040400F1FF3140
:101DA00002D2A64500F2BB800846A4EB0E0440EA2E
:101DB00003409CE7C6F12007B34022FA07FC4CEA37
:101DC000030C20FA07F401FA06F31C43F9404FEA2A
:101DD0001C4900FA06F3B1FBF9F8200C1FFA8CFE3F
:101DE00009FB181140EA014108FB0EF0884202FA93
:101DF00006F20BD91CEB010108F1FF3A80F0888054
:101E0000884240F28580A8F102086144091AA4B210
:101E1000B1FBF9F009FB101144EA014100FB0EFE91
:101E20008E4508D91CEB010100F1FF346CD28E45C0
:101E30006AD90238614440EA0840A0FB0294A1EB51
:101E40000E01A142C846A64656D353D05DB1B3EBAE
:101E5000080261EB0E0101FA07F722FA06F3F140DE
:101E60001F43C5E9007100263146BDE8F087C2F185
:101E70002003D8400CFA02FC21FA03F391400143FD
:101E80004FEA1C471FFA8CFEB3FBF7F007FB103636
:101E90000B0C43EA064300FB0EF69E4204FA02F4E2
:101EA00008D91CEB030300F1FF382FD29E422DD935
:101EB000023863449B1B89B2B3FBF7F607FB16336A
:101EC00041EA034106FB0EF38B4208D91CEB0101EA
:101ED00006F1FF3816D28B4214D9023E6144C91A6A
:101EE00046EA004638E72E46284605E70646E3E67A
:101EF0001846F8E64B45A9D2B9EB020864EB0C0E84
:101F00000138A3E74646EAE7204694E74046D1E792
:101F1000D0467BE7023B614432E7304609E7644440
:101F2000023842E7704700BF10B4044C03460A462B
:101F300020685DF8044B194600F074B800000020DA
:101F400010B4044C03460A4620685DF8044B194659
:101F500000F010B80000002000B5054B83B001462A
:101F600001AA186800F006F803B05DF804FB00BF92
:101F7000000000202DE9F047DFF87480064689460E
:101F8000174600F0F9FFD8F8005055B199F8003025
:101F90001C4673B14C4602E014F8013F3BB13D2BA7
:101FA000FAD1304600F0EAFF0020BDE8F087A4EB4C
:101FB000090428680028F4D02246494600F00EFCA7
:101FC00028B92B681A5D3D2A03EB040A04D055F8A2
:101FD000040F0028F0D1E4E7D8F80030ED1AAD1076
:101FE00030463D6000F0CAFF0AF10100BDE8F0870D
:101FF0007400002000B583B001AAFFF7BBFF03B057
:102000005DF804FB024B01461868FEF7C3BB00BF36
:1020100000000020024B01461868FFF7E1BC00BF3A
:102020000000002038B502FB01F52946FEF7B2FB9F
:10203000044618B12A460021FEF7CAF9204638BDE9
:1020400038B5124B1D68AA6B04461AB10023C2E9C9
:10205000044338BD1820FFF7D5FF0246A86378B1C6
:1020600001200021C2E90401094B0A480A49916094
:10207000C2E900030B2393810023C2E9044338BD66
:10208000064B0748422100F051FF00BF000000202E
:1020900034126DE60E33CDABECDE0500B024010842
:1020A000C82401081C4B10B51C68A26B8AB11369C7
:1020B0001A4954691A4803FB01F100FB0411A3FB00
:1020C0000030013341EB0001C2E9043121F000404E
:1020D00010BD1820FFF796FF0246A06388B1114C8F
:1020E000114B0E48114991609FED097BC2E90043F5
:1020F0000B2393810E4B014682ED047BC2E9043130
:1021000010BD0C4B0C484E2100F010FFAFF30080C7
:102110000100000000000000000000202DF45158D4
:102120002D7F954C0E33CDAB34126DE6ECDE050001
:102130002E7F954CB0240108C824010810B4044C2B
:1021400003460A4620685DF8044B1946FFF7AABC0F
:102150000000002008B410B5002A9DB0044633DB0F
:102160004FF40273ADF814300291069120AB17D0F2
:10217000013A4FF6FF7104920792ADF816101F9ABC
:10218000019302A901F02EF8421C01DA8B2323608F
:10219000029B00221A701DB0BDE8104001B07047CC
:1021A0004FF6FF7104920792ADF816101F9A019333
:1021B00002A901F017F8431C01DA8B2323601DB03C
:1021C000BDE8104001B070478B2303604FF0FF3033
:1021D000F5E700BF0CB410B51F4B00291C689CB07C
:1021E00035DB4FF40273ADF81430029006901FAB4C
:1021F00018D001394FF6FF7204910791ADF81620FF
:1022000002A91E9A0193204600F0ECFF421C01DA5D
:102210008B232360029B00221A701CB0BDE8104083
:1022200002B070474FF6FF7204910791ADF8162087
:1022300002A91E9A0193204600F0D4FF431C01DA44
:102240008B2323601CB0BDE8104002B070478B2385
:1022500023604FF0FF30F5E70000002011F0FF0190
:10226000034644D0820732D110B5046841EA012EFA
:102270004EEA0E4E8EEA0402A2F1013323EA020373
:10228000A4F1013222EA0402134313F0803F0FD17C
:1022900050F8044F84EA0E0CA4F10133ACF1013282
:1022A00023EA040322EA0C02134313F0803FEFD029
:1022B000037823B936E010F8013F002B32D0994261
:1022C000F9D110BD8A4211D09A071846CCD01846D1
:1022D00013F8012B002AF5D11046704799071846CC
:1022E00007D0184601330278002AF7D170478207D9
:1022F000F7D10268A2F1013323EA020313F0803F11
:1023000008D150F8042FA2F1013323EA020313F09D
:10231000803FF6D00378002BE8D010F8013F002B67
:10232000FBD17047184610BD0000000000000000FF
:10233000000000000000000000000000000000009D
:10234000A2EB0300704700BF02780B78012A28BF78
:102350009A42F5D16DE9044540EA0104CDE90267EE
:102360006FF0000C4FEA447212B380EA010414F0DB
:10237000070F6AD100F0070420F0070004F00305FE
:1023800021F007014FEAC505F0E8042314F0040F1B
:10239000F1E804670CFA05F462EA040266EA04064E
:1023A0000AD063EA0403624667EA0407664603E06C
:1023B000F0E80423F1E8046782FA4CF582EA0604A7
:1023C000A4FA8CF46CBB83FA4CF583EA0705A5FAF2
:1023D0008CF595B950E9022351E9026782FA4CF570
:1023E00082EA0604A4FA8CF483FA4CF583EA070522
:1023F000A5FA8CF52543DBD09CB92DBAB5FA85F446
:1024000024F0070427FA04F1DDE9026723FA04F354
:1024100003F0FF0001F0FF01FDE80445A0EB01001F
:10242000704724BAB4FA84F424F0070426FA04F1BD
:10243000DDE9026722FA04F202F0FF0001F0FF0179
:10244000FDE80445A0EB0100704714F0030F3CD1F8
:1024500010F0030428D150F8082B51F8083B82FAF9
:102460004CF582EA0305A5FA8CF55DB950F8042C09
:1024700051F8043C82FA4CF582EA0305A5FA8CF582
:10248000002DE8D02DBAB5FA85F424F0070423FA1C
:1024900004F122FA04F202F0FF0001F0FF01FDE86E
:1024A0000445A0EB010070474FEAC40420F003008C
:1024B00050F8082B21F0030151F8083B0CFA04F402
:1024C00062EA040263EA0403C9E710F003041AD0C5
:1024D000A1EB040120F00300E40750F8042B06D020
:1024E0000FD28B785FFAA2F4E41A06D12BB1CB7825
:1024F0005FFAB2F4E41A00D11BB920465DF8104B24
:10250000704701F1040150F8042BCC0721F00301BE
:1025100051F8043B48D824D222F07F4482FA4CF58B
:1025200094EA1325A5FA8CF50AD165B951F8043B54
:1025300084EA0204B4EB036F0ED150F8042BEBE7EE
:102540004FEA132355E035F07F454DD10878FDE87B
:102550000445C0F1000070474FEA126203F0FF0328
:1025600047E002EA1C4482FA4CF594EA1345A5FAC6
:102570008CF50AD165B951F8043B84EA0204B4EB46
:10258000034F0CD150F8042BEBE74FEA134330E034
:1025900015EA1C4528D10B884FEA124229E04FEA80
:1025A000124203EA1C4324E002F0FF0482FA4CF5D5
:1025B00094EA1365A5FA8CF50AD165B951F8043B84
:1025C00084EA0204B4EB032F09D150F8042BEBE7A3
:1025D0004FEA13630DE015F0FF0F05D10B684FEACA
:1025E000122223F07F4304E04FF00000FDE8044591
:1025F000704712BA1BBA82FA4CF482EA0304A4FAB6
:102600008CF5B5FA85F402FA04F203FA04F34FEA02
:102610001260FDE80445A0EB1360704780EA0102F8
:10262000844612F0030F4FD111F0030F32D14DF851
:10263000044D11F0040F51F8043B0BD0A3F101320B
:102640009A4312F0803F04BF4CF8043B51F8043B1E
:1026500016D100BF51F8044BA3F101329A4312F096
:10266000803FA4F101320BD14CF8043BA24312F09D
:10267000803F04BF51F8043B4CF8044BEAD023469A
:102680000CF8013B13F0FF0F4FEA3323F8D15DF84C
:10269000044B704711F0010F06D011F8012B0CF814
:1026A000012B002A08BF704711F0020FBFD031F88C
:1026B000022B12F0FF0F16BF2CF8022B8CF8002013
:1026C00012F47F4FB3D1704711F8012B0CF8012B96
:1026D000002AF9D1704700BF000000000000000090
:1026E00000000000000000000000000000000000EA
:1026F00000000000000000000000000000000000DA
:1027000090F800F06DE9024520F007016FF0000C31
:1027100010F0070491F820F040F049804FF00004D9
:102720006FF00700D1E9002391F840F000F10800B4
:1027300082FA4CF2A4FA8CF283FA4CF3A2FA8CF3EC
:102740004BBBD1E9022382FA4CF200F10800A4FA53
:102750008CF283FA4CF3A2FA8CF3E3B9D1E90423A7
:1027600082FA4CF200F10800A4FA8CF283FA4CF3DE
:10277000A2FA8CF37BB9D1E9062301F1200182FA98
:102780004CF200F10800A4FA8CF283FA4CF3A2FA9E
:102790008CF3002BC6D0002A04BF04301A4612BAAC
:1027A000B2FA82F2FDE8024500EBD2007047D1E9AF
:1027B000002304F00305C4F100004FEAC50514F03E
:1027C000040F91F840F00CFA05F562EA05021CBF0F
:1027D00063EA050362464FF00004A9E7A2B330B5EF
:1027E00040EA0104A40784460B462AD09CF8000066
:1027F0000C7884422FD1012A0DD0E64660B11EF834
:10280000010F11F8014F6FEA0E03A042134422D1C9
:102810001CEB0303F2D1002030BD0468194653F8C5
:10282000045BA4F1013EAC4284462EEA040E00F1A2
:1028300004000BD1043A84461946ECD01EF0803FC8
:10284000E9D1032AE9D8D1E7104670479CF8000087
:102850000C78A042D1D0001B30BD00BF30B540EA9B
:102860000104A30701D1032A0FD8844601F1FF3EDA
:1028700007E01EF8011F03F8011B541EC1B19C465E
:1028800022466346002AF4D130BD0B4684461946E1
:1028900053F8045BA5F1013424EA050414F0803FE9
:1028A000E4D1043A032A4CF8045B1946EFD8DDE77B
:1028B0006244002CE8D003F8011B9342FBD130BDE9
:1028C0002DE9F04F012BADF21C4D1D4681460F4600
:1028D000904640F245810123002419464FF0FF3015
:1028E0009C4606E0A3EB000C1C46012163189D42A8
:1028F00010D908EB000218F80360525C9642F1D33D
:1029000000F082804FF0010C204661466444631859
:102910009D42EED8CDF808C04FF0010C002461466E
:102920004FF0FF36634606E0A3EB060C1C46012180
:1029300063189D420FD908EB010218F803E0925D7D
:102940009645F1D866D04FF0010C264661466444A6
:1029500063189D42EFD8013600F1010BB34502D850
:10296000CDF808C0B34605AB0DF2144243F8045F3E
:102970009342FBD1002D00F0F8806C1E06AE08F1EA
:10298000FF3208EB0400019612F8011FD3432B44D9
:102990004344904246F82130F6D1029B5A4608EB58
:1029A0000301404600F00EFB002840F08280029BAD
:1029B0000BF1FF32EB1A824606460592039309EBB0
:1029C000060E019A1EF8043052F8233043B3BAF1D0
:1029D000000F04D0029A9342039A38BF13461E4454
:1029E0004FF0000A7B1BB342E9D209EB070045F424
:1029F000006100F011FD07447B1BB342DFD20020D1
:102A00000DF21C4DBDE8F08F8C4512BF01316444BE
:102A100001216BE761450ABF64180131012187E795
:102A2000D3455B4638BF5346A34211D2591E9A196B
:102A300041444A4402E00133A34209D212F8010B97
:102A400011F801CF8445F6D0CBF101021644C6E758
:102A5000D345059B40F282800BEB06024A4408EB0B
:102A60000B01CDF810B002E0534516D0034612F822
:102A7000010D11F801CD844503F1010B03F1FF3085
:102A8000F2D05B46DDF810B00AF1010A9A450BD886
:102A9000029BDDF80CA01E44A4E753460AF1010A8C
:102AA0009A45DDF810B0F3D970460DF21C4DBDE823
:102AB000F08FA5EB0B035B4538BF5B4601330493F6
:102AC0000BF1FF330293CBF101030026039345F48E
:102AD000006A09EB0601019A0B5D52F823306BB1D5
:102AE0001E447B1B9E42F4D909EB0700514600F0BF
:102AF00093FC07447B1B9E42EBD980E7A34514D28D
:102B0000029B0BEB060208EB030C4A445B4602E017
:102B10000133A34209D212F8010B1CF801EF8645DC
:102B2000F6D0039A16441E44DBE7BBF1000F10D029
:102B30000BEB0600484408EB0B0201E0434508D0CC
:102B400012F801ED10F801CDE6451346F6D0049BCE
:102B5000C6E708460DF21C4DBDE8F08F5B4693E7D3
:102B6000012302934FF0000BFDE606AB4FF0FF345C
:102B7000019312E72DE9F0410D46097890B0044623
:102B8000002953D06A78002A00F08380AB78002BAC
:102B900050D0E878002800F083802B79002B57D0A4
:102BA0002846FFF7ADFD064640F40071204600F0D0
:102BB00033FC86425CD8FE2E00F28780801B2718EB
:102BC0004022711C6846FDF703FC7EB16A1E5FFA65
:102BD00086FC901912F8013F03F03F0340336B4429
:102BE000A91A6144824203F8401CF3D1013CA35D61
:102BF00003F03F0340336B4413F8400C0444A742F6
:102C000003D23AE04444A74237D314F806C00CF08C
:102C10003F0C0CF140030DEB030C204632462946D5
:102C20001CF8408C00F0CEF90028EBD1204610B003
:102C3000BDE8F081007842EA014200E00C4640EA3B
:102C40000343611CA0B19A426078F7D1013CEDE7E3
:102C500022786AB1296809BA01E099421ED042EA95
:102C60000323204614F8012F002AF6D1994215D0EB
:102C70000024204610B0BDE8F081BB5DB819002BE0
:102C8000F6D04FF4006100F0C7FB0744BC42ADD959
:102C9000EEE710B0BDE8F041FFF7E0BAC41EC5E7AB
:102CA000120442EA016242EA03232178024600E06C
:102CB0002C4641EA0200651C02020029D8D0B3EB81
:102CC000002F6178F4D1023CB0E7014633462A4632
:102CD000204610B0BDE8F041F2E500BF2DE9F04715
:102CE00007464B480E46354616F801CB10F80C4007
:102CF00014F00804F7D1BCF12D0FE64658D0BCF112
:102D00002B0F04BF96F800E0AE1C5BB1102B54D023
:102D10004FF0FF38B8FBF3F803FB08FA6FEA0A0A32
:102D2000994608E0BEF1300F5AD00A23DFF8E4805C
:102D30004FF0050A99460025284607E0404515D87A
:102D400029D009FB00C0012516F801EBAEF1300CCB
:102D5000BCF1090F06D9AEF1410CBCF1190F08D82E
:102D6000AEF1370C63450DDD002DE7DA4FF0FF358E
:102D7000EAE7AEF1610CBCF1190F03D8AEF1570CC4
:102D80006345F1DC002D0BDB04B140420AB16DB9A3
:102D90001160BDE8F087D445D3DD4FF0FF35D3E7B0
:102DA00022233B604FF0FF30002AF2D0711EEFE784
:102DB00096F800E00124AE1CA7E7BEF1300F21D148
:102DC000307800F0DF00582816D14FF0100996F83F
:102DD00001E04FF00F0A02366FF070484B46AAE749
:102DE000337803F0DF03582BEFD008234FF0070AA6
:102DF0006FF0604899469EE799466FF070484FF033
:102E00000F0A98E74FF00F0A6FF07048994692E763
:102E1000A11701089999991960E700BF10B4044CF3
:102E20008446134620685DF8044B0A46614655E720
:102E30000000002010B4044C8446134620685DF85E
:102E4000044B0A46614649E70000002010B51A4CC1
:102E5000002924689AB02ADB009004904FF4027095
:102E6000ADF80C0013D001394FF6FF7002910591B7
:102E7000ADF80E006946204600F0B4F9421C01DAB4
:102E80008B232360009B00221A701AB010BD4FF6EE
:102E9000FF7002910591ADF80E006946204600F0E2
:102EA000A1F9431C01DA8B2323601AB010BD8B23D8
:102EB00023604FF0FF30F8E70000002030B5141E0B
:102EC0009BB005462CDB4FF4027200910491ADF8E3
:102ED0000C2014D04FF6FF711A46013CADF80E10CD
:102EE0001E9B02946946059400F07CF9421C01DAAD
:102EF0008B232B60009B00221A701BB030BD4FF655
:102F0000FF711A46ADF80E101E9B02946946059497
:102F100000F068F9431C01DA8B232B601BB030BD35
:102F20008B2303604FF0FF30F8E700BF00B50B4C78
:102F300025681446EE681A4685B003460D464CB126
:102F400007490095CDE901143046064900F026F8FE
:102F500000F074FA04490C46F3E700BF00000020BB
:102F6000FC2401080C2501080825010808B51346B2
:102F70000022FFF7DBFF00BF704700BF704700BFB4
:102F80000CB400B583B004AB53F8042B0193FDF7E8
:102F90009FFC03B05DF804EB02B070470EB410B5AF
:102FA00083B005AB064C53F8042B0193014620680F
:102FB000FDF78EFC03B0BDE8104003B0704700BFC2
:102FC00000000020032A70B515D940EA010C1CF05E
:102FD000030F04460B4621D1194620460E680568AA
:102FE000B54204F1040403F1040317D1043A032A9F
:102FF00020461946F0D8541EA2B100F1FF3C013919
:1030000001E0C3180CD01CF801EF11F8012F964510
:10301000A4EB0C03F5D0AEEB020070BD541EECE740
:10302000184670BD104670BD2DE9F0478F689F426D
:103030000C461D46164638D88246888910F4906F93
:103040000ED108683D462A463146FEF749FCA26883
:103050002368D21B2B44A26023600020BDE8F087C8
:103060004B69096903EB4308236808EBD878A3EBA5
:1030700001096B1C4FEA68084B444345424684BF34
:1030800098464246430513D511465046FDF782FB4C
:10309000074608B321694A46FDF700F9A38923F4DE
:1030A000906343F08003A38107E008681F46CAE7E6
:1030B0005046FEF7F7FC074650B107EB0900A8EBB6
:1030C00009032761C4F81480A36020602F46BAE783
:1030D00021695046FEF784FC0C23CAF80030A3890E
:1030E00043F040034FF0FF30A381B7E72DE9F04FE5
:1030F000936883B09146002B6ED017688D68804628
:103100000C460868083744E0A38913F4906F2ED06A
:10311000D4E90415A0EB010A05EB450505EBD575CF
:103120000AEB06006D100130A8422A4684BF05460E
:103130002A465B0537D511464046FDF72BFB002894
:103140003BD0524621690190FDF7A8F8A289019B66
:1031500022F4906242F08002A281A5EB0A0203EB06
:103160000A006561A260236120603546B246594677
:103170005246FEF7B5FBA068D9F808102368451B36
:103180008E1B03EB0A00A5602060C9F808601EB31F
:10319000083757E902B6002EFAD0B542AA46B3D98D
:1031A0003546B246E3E74046FEF77CFC034600287E
:1031B000D3D121694046FEF713FC0C23C8F8003038
:1031C000A389002243F040034FF0FF30A381C9E9F7
:1031D000012203B0BDE8F08F0020C9F8040003B05D
:1031E000BDE8F08F2DE9F04F92468A8915069DB013
:1031F000884681461C4603D50A69002A00F0EF8004
:10320000002209929AF800307E4D039420228DF816
:10321000292030228DF82A200126002B72D0544616
:1032200003E014F8013F002B76D0252BF9D1B4EB45
:103230000A0B74D12278002A64D000234FF0FF32A9
:10324000CDE90523049307938DF853301A93013485
:1032500004E0049A06FA03F313430493A2460522FA
:1032600014F8011B2846FEF7EBFA431B0028F0D1A7
:10327000049BD80644BF20228DF8532019079AF8E2
:10328000001044BF2B228DF853202A2954D1039AD1
:1032900011680432002903927CDB07919AF801102F
:1032A0000AF1010A2E2959D0574C03222046FEF775
:1032B000C7FA40B1049B001B402404FA00F003430A
:1032C00004930AF1010A1AF8011B50488DF82810DE
:1032D0000622FEF7B5FA002862D04D4B002B52D0E3
:1032E00003AA00924B4B424604A94846AFF3008024
:1032F00007467A1C06D0099B3B4409939AF8003094
:10330000002B8CD1B8F80C305B0654BF09984FF0F5
:10331000FF301DB0BDE8F08FB4EB0A0BF2D05B4676
:10332000524641464846FFF77FFE0130EAD0099BEE
:1033300022785B4409937EE7A1F13002092AB1D8D3
:10334000079B1AF8011F03EB830302EB4303A1F170
:103350003002092AF5D92E290793A5D19AF8011030
:103360002A2927D1039B9AF802101A680592043380
:10337000002A0AF102000393B8BF4FF0FF338246E0
:10338000B8BF059390E7039B073323F00703083387
:103390000393B0E7494243F00203079104937DE7AA
:1033A00003AA00921B4B424604A94846FDF776FC4F
:1033B00007469EE7A1F130020023092A05930AF18E
:1033C000010A3FF671AF1AF8011F03EB830302EB0A
:1033D0004303A1F13002092AF5D9059364E740219E
:1033E000FDF7D8F9C8F80000C8F8100018B140225D
:1033F000C8F8142004E70C23C9F800304FF0FF3060
:1034000087E700BF98190108A0190108A41901084D
:10341000000000002930000871B1034600EB010CE8
:1034200001E0634506D01A46013311780029F8D12E
:10343000101A7047181A70470846704708B50620DA
:1034400000F098F8012004F03FFE00BF38B5446C4E
:103450000CB1002038BD80210546FDF79BF90246DE
:10346000686430B1031F7C3243F8044F9342FBD1B0
:10347000EFE74FF0FF3038BD1F29F8B5054608D8F3
:10348000466C0C4617464EB156F8240046F8247098
:10349000F8BD162303604FF0FF30F8BD8021FDF723
:1034A00079F90646686440B1031F00F17C050021EC
:1034B00043F8041F9D42FBD1E6E74FF0FF30F8BD13
:1034C0001F2938B5054620D8426C0C466AB152F81F
:1034D000213053B1012B16D0591C10D000252046A5
:1034E00042F824509847284638BD284600F0F8F89E
:1034F000224601462846BDE8384000F0DBB81623D6
:103500000360012038BD002038BD162303604FF052
:10351000FF3038BD1F292AD8426C38B50C46054605
:1035200082B152F8243002EB84024BB1591C19D0FD
:10353000012B15D00025204615609847284638BD38
:10354000012038BD8021FDF725F90246686458B195
:10355000031F00217C3043F8041F9842FBD1E0E7B1
:10356000032038BD022038BD4FF0FF3038BD4FF08A
:10357000FF30704738B5144B1F281D681FD86A6C80
:10358000044662B152F820304BB1012B15D0591CC2
:103590000FD0002542F820509847284638BD2846CD
:1035A00000F09EF8224601462846BDE8384000F06B
:1035B00081B816232B60012038BD002038BD1623AA
:1035C0002B604FF0FF3038BD00000020124B1F2849
:1035D00070B51E6808D80D46716C044649B151F8A3
:1035E000240041F8245070BD162333604FF0FF30A3
:1035F00070BD80213046FDF7CDF80146706440B1C2
:10360000031F00F17C0C002243F8042F6345FBD11B
:10361000E5E74FF0FF3070BD0000002038B50B4BE0
:103620001D686C6C0CB1002038BD80212846FDF768
:10363000B1F8686438B1031F00F17C0243F8044F0D
:103640009342FBD1EFE74FF0FF3038BD0000002080
:1036500038B5174B1F281D6826D86A6C044682B1FE
:1036600052F8243002EB84024BB1591C1AD0012BC2
:1036700016D00025204615609847284638BD012001
:1036800038BD80212846FDF785F80246686458B1A8
:10369000031F00217C3043F8041F8342FBD1DFE786
:1036A000032038BD022038BD4FF0FF3038BD00BFC9
:1036B0000000002070B50C46084D03460026204649
:1036C00011461C462E6004F0F7FC431C00D070BD70
:1036D0002B68002BFBD0236070BD00BFFC020020D4
:1036E00004F0E8BC08B50268034B9A4200D008BD5C
:1036F00000F0A2FAFBE700BF002C014072B6FEE723
:1037000000B597B04422002105A8FCF761FE002314
:10371000009301930293039304934FF4007001F01C
:1037200077FD18BB012305934FF4803306930223E2
:103730000F930322109211932822129207221392C0
:103740001493159305A800F02BFB88B90F23009361
:1037500003230193002302930393049304216846F7
:1037600000F02CFE30B917B05DF804FBFFF7C6FF80
:10377000FFF7C4FFFFF7C2FF08B500F047FAFFF7F5
:10378000BFFF00F00BF800F0EBF800F00BF904F0CD
:10379000DDF800F0D5F804F0EBF8FEE710B58AB0DC
:1037A000002405940694079408940994284BDA6C35
:1037B00042F00402DA64DA6C02F004020192019A27
:1037C000DA6C42F08002DA64DA6C02F08002029273
:1037D000029ADA6C42F00102DA64DA6C02F0010259
:1037E0000392039ADA6C42F00202DA64DB6C03F0B3
:1037F00002030493049B224620214FF0904001F0E5
:1038000071FB4FF4005305934FF404130693079490
:1038100005A9104801F066FA0C23059302230693CC
:103820000794032308930723099305A94FF09040B9
:1038300001F058FA20230593012306930794089476
:1038400005A94FF0904001F04DFA0AB010BD00BF3D
:10385000001002400008004800B5A5B02A4B0193B3
:103860002A4B00932A4B2B4A2B49012005F040F9A3
:103870001FA805F0BDF8294B1F93294B2093294B16
:103880002193294B22931FA805F0C0F828B302A862
:1038900005F0DAF80DF12C0E0DF1080CBCE80F0064
:1038A000AEE80F00DCF80030CEF800300BAB0022A1
:1038B000114610A804F0DAFF10AB1C4A1C4909A8F5
:1038C00005F01EF805F09AFD02461A4B09A91EA83C
:1038D00005F052F800231D930EE09F211648FCF7D7
:1038E000DFFDD4E7C0211548FCF7DAFD1D9B01334D
:1038F0001D930A2004F0B6F800221DA91EA804F0AA
:1039000091FF0028EED1F1E79D850008678500084A
:103910005985000841850008D0320020D583000871
:10392000F983000819840008598400080825010853
:10393000CC180108D8180108A4180108EC180108CF
:1039400008B5044A0021044804F02EF8034B18601F
:1039500008BD00BF14190108593800083C32002086
:1039600000B583B00E4B9A6C42F001029A649B6CD6
:1039700003F001030193019B002205210C2001F0BB
:10398000A1FC0C2001F0D6FC002205210D2001F045
:1039900099FC0D2001F0CEFC03B05DF804FB00BFE4
:1039A0000010024008B50B480B4B03604FF4E133A5
:1039B000436000238360C36003610C224261836122
:1039C000C3610362436202F02CFC00B908BDFFF73B
:1039D00095FEFBE7D03200200048004070B5AAB049
:1039E000044600212591269127912891299188222A
:1039F00003A8FCF7EDFC2268354B9A4201D02AB0AF
:103A000070BD0423039303A800F042FF002855D1A2
:103A1000304B9A6D42F480229A659A6D02F48022AE
:103A20000192019ADA6C42F00402DA64DB6C03F072
:103A300004030293029B3023259302262696002539
:103A40002795032328930723299325A9224801F0CA
:103A500049F92248224B036046608560C560802397
:103A60000361456185612023C3614FF440530362C4
:103A700001F056FA28BB194B63679C6219481A4B30
:103A8000036002234360102383600023C36080220D
:103A9000026143618361C3614FF44053036201F0EB
:103AA0003FFA88B90F4B23679C620022052127202B
:103AB00001F008FC272001F03DFCA0E7FFF71EFE07
:103AC000A6E7FFF71BFED6E7FFF718FEEAE700BF01
:103AD000004800400010024000080048403200202A
:103AE00030000240883200201C000240FEE7FEE762
:103AF000FEE7FEE7FEE7704708B5024801F01CFB51
:103B000008BD00BF8832002008B5024801F014FB50
:103B100008BD00BF4032002008B5024801F064FC37
:103B200008BD00BF5833002008B5024801F0FEFE72
:103B300008BD00BFD032002000B583B00D4B1A6E17
:103B400042F001021A661A6E02F001020092009A17
:103B50009A6D42F080529A659B6D03F080530193F9
:103B6000019B00220F216FF0010001F0ABFB03B0BD
:103B70005DF804FB0010024030B589B004461E4BCE
:103B80001A6E42F400621A661B6E03F4006301931E
:103B9000019B02A903A800F0FFFC00F0EBFC034628
:103BA0001648A0FB03239B0C013B1548154A0260F5
:103BB00040F2E732C26043600023036183608361A7
:103BC00001F034FD054610B1284609B030BD0C485F
:103BD00001F0C0FB05460028F6D1192001F0AAFB30
:103BE0000F2C01D90125EFE700222146192001F011
:103BF00069FB054B1C60E7E70010024083DE1B43B6
:103C000058330020002C01406800002010B5094AFC
:103C1000136843F480731360032001F041FB0F200D
:103C2000FFF7AAFF10B10124204610BD0446FFF79C
:103C300083FFF9E700200240034B1B78034A116819
:103C40000B441360704700BF64000020A4330020C1
:103C5000014B1868704700BFA433002030B583B013
:103C60000446204B9B6D13F0805F0BD001F0C8FA27
:103C7000B0F5007F17D0802C1FD82DD0702C2DD000
:103C800000211BE0174DAB6D43F08053AB65AB6D6E
:103C900003F080530193019B01F0B2FAAB6D23F066
:103CA0008053AB65E4E7802C03D9A02C03D9022113
:103CB00004E0002102E0012100E003210A4A136828
:103CC00023F007030B431360136803F007038B42D1
:103CD00006D1002003B030BD0221EFE70121EDE75E
:103CE0000120F7E70010024000200240284A9368B4
:103CF000D26802F0030213F00C030AD00C2B06D09A
:103D0000042B1FD0082B20D00020024610E0012AEF
:103D1000F6D11F4A126812F0080F0CD11C4AD2F8D3
:103D20009420C2F303221B4951F8222043B1002002
:103D30000C2B0DD07047164A1268C2F30312F2E73B
:103D40001046F5E714480022F2E714480022EFE796
:103D50000F4BDB6803F00303022B16D0032B00D1BB
:103D60000E4A0B49C868C0F30210431CC868C0F370
:103D7000062002FB00F0B0FBF3F0CB68C3F3416315
:103D800001335B00B0FBF3F0D4E7034AE9E700BF7F
:103D900000100240501901080024F40000127A00BB
:103DA000002800F0F182F0B583B00446964B9D6880
:103DB00005F00C05DE6806F00306036813F0100F2B
:103DC0005AD0E5B10C2D18D0A369002B00F0BB80B0
:103DD0008D4A136843F001031360FFF739FF07466C
:103DE000894B1B6813F0020F40F09A80FFF730FFF9
:103DF000C01B0228F4D90320D1E2012EE4D1824B6A
:103E00001B6813F0020F03D0A369002B00F0BE82E1
:103E1000206A7D4B1B6813F0080F5BD07A4B1B6840
:103E200003F0F00398425CD8774B1A6842F008021E
:103E30001A601A6822F0F002216A0A431A605A686E
:103E400022F47F42E16942EA01225A60002D60D0EB
:103E5000FFF74CFF6C4B9B68C3F303136B4AD35CB7
:103E600003F01F03D8406A4B18606A4B1868FFF7CD
:103E700083FE002840F09382236813F0010F00F0C6
:103E80008180082D75D00C2D71D06368B3F5803F0B
:103E900000F09780B3F5A02F00F099805A4B1A6874
:103EA00022F480321A601A6822F480221A60636851
:103EB000002B00F09980FFF7CBFE0746524B1B68A2
:103EC00013F4003F5ED1FFF7C3FEC01B6428F5D991
:103ED000032064E24C4BD3F894301B0903F0F00349
:103EE000A0E7FFF7BBFE002840F05282464B1A685D
:103EF00042F008021A601A6822F0F002216A0A43AE
:103F00001A605A6822F47F42E16942EA01225A604B
:103F10009EE7206AFFF7A2FE002899D001203EE22A
:103F2000394B1A6842F008021A601A6822F0F0024F
:103F3000216A0A431A605A6822F47F42E16942EA20
:103F400001225A6098E7304A136823F00103136096
:103F5000FFF77EFE07462C4B1B6813F0020F8BD039
:103F6000FFF776FEC01B0228F5D9032017E2032EC7
:103F70008BD1254B1B6813F4003F03D06368002BE3
:103F800000F00882236813F0020F58D0042D45D0AA
:103F90000C2D41D0E368002B77D01B4A136843F403
:103FA00080731360FFF754FE0646174B1B6813F42B
:103FB000806F61D1FFF74CFE801B0228F5D90320EA
:103FC000EDE1114A136843F4803313606FE703F1A6
:103FD0008043A3F53C331A6842F480221A601A68C1
:103FE00042F480321A6062E7FFF732FE0746064B62
:103FF0001B6813F4003FC5D0FFF72AFEC01B6428DE
:10400000F5D90320CBE100BF0010024038190108A8
:104010006C00002068000020022EBBD1A34B1B685F
:1040200013F4806F03D0E368002B00F0B5819F4A42
:10403000536823F0F853216943EA0163536023680E
:1040400013F0080F4CD063699BB3984AD2F89430B0
:1040500043F00103C2F89430FFF7FAFD0646934B94
:10406000D3F8943013F0020F3AD1FFF7F1FD801B23
:104070000228F4D9032092E18C4A536823F0F853C4
:10408000216943EA01635360D9E7884A136823F43E
:1040900080731360FFF7DCFD0646844B1B6813F446
:1040A000806FCCD0FFF7D4FD801B0228F5D9032008
:1040B00075E17E4AD2F8943023F00103C2F89430BF
:1040C000FFF7C6FD0646794BD3F8943013F0020F84
:1040D00006D0FFF7BDFD801B0228F4D903205EE166
:1040E000236813F0040F7AD0704B9B6D13F0805F40
:1040F00036D16E4B9A6D42F080529A659B6D03F0FB
:1041000080530193019B0126694B1B6813F4807F48
:1041100028D0A368012B39D0052B3FD0634BD3F8AF
:10412000902022F00102C3F89020D3F8902022F0D2
:104130000402C3F89020A368002B3DD0FFF788FD50
:1041400007465A4BD3F8903013F0020F46D1FFF7D1
:104150007FFDC01B41F288339842F2D903201EE153
:104160000026D1E7524A136843F480731360FFF7C7
:104170006FFD07464E4B1B6813F4807FC9D1FFF7D4
:1041800067FDC01B0228F5D9032008E1474AD2F891
:10419000903043F00103C2F89030CCE7434BD3F8A2
:1041A000902042F00402C3F89020D3F8902042F00F
:1041B0000102C3F89020BEE7FFF74AFD07463B4BDC
:1041C000D3F8903013F0020F08D0FFF741FDC01B69
:1041D00041F288339842F2D90320E0E0EEB9A36AB5
:1041E000002B00F0DB80022B1DD00C2D00F0DD80B9
:1041F0002E4A136823F080731360FFF729FD0446ED
:104200002A4B1B6813F0007F00F0B780FFF720FDFA
:10421000001B0228F4D90320C1E0244A936D23F047
:1042200080539365DBE7214BDB6803F00301E26A0F
:1042300091420FD00C2D00F0B4801C4B1B6813F082
:10424000806F40F0B080194B1B6813F0805F31D055
:104250000120A4E003F07002216B0139B2EB011FD1
:10426000E8D103F4FE42616BB2EB012FE2D103F41B
:104270000031A26B073A18BF01229142DAD103F450
:10428000C001E26B5208013AB1EB425FD2D103F0B8
:10429000C063226C5208013AB3EB426FCAD1034BA0
:1042A0001B6813F0007F4ED0002078E00010024021
:1042B000007000403E4A136823F080731360FFF7DC
:1042C000C7FC05463A4B1B6813F0007F06D0FFF78A
:1042D000BFFC401B0228F5D9032060E0344AD368B4
:1042E00034491940E36A206B013843EA0013606BDC
:1042F00043EA0023E06B4008013843EA4053206C56
:104300004008013843EA4063A06B000943EA404398
:104310000B43D360136843F080731360D36843F09A
:104320008073D360FFF794FC0446214B1B6813F0A5
:10433000007F06D1FFF78CFC001B0228F5D9032073
:104340002DE000202BE01A4B1A6842F080721A60B0
:10435000DA6842F08072DA60FFF77AFC0446144BA8
:104360001B6813F0007F06D1FFF772FC031B022BC2
:10437000F5D9032013E0002011E00D4AD1680E4B5F
:104380000B40D36000200AE001207047012006E0C6
:10439000012004E0012002E0012000E0002003B041
:1043A000F0BD0120FBE70120F9E70120F7E700BF9E
:1043B000001002408C809DF9FCFFEEFE002800F00A
:1043C000AF8070B50D460446594B1B6803F00703D8
:1043D0008B420BD2564A136823F007030B4313603A
:1043E000136803F007038B4240F09C80236813F0AE
:1043F000020F0CD0A2684F4B9B6803F0F0039A4267
:1044000005D94C498B6823F0F0031A438A6023686E
:1044100013F0010F39D06368032B09D0022B26D08B
:1044200063BB444A126812F0020F06D1012076E005
:10443000404A126812F0007F76D03E498A6822F026
:10444000030213438B60FFF703FC0646394B9B685E
:1044500003F00C036268B3EB820F16D0FFF7F8FB92
:10446000801B41F288339842F0D9032057E0314A4B
:10447000126812F4003FE0D1012050E02D4A12688A
:1044800012F4806FD9D1012049E0236813F0020FA4
:104490000CD0A268274B9B6803F0F0039A4205D228
:1044A00024498B6823F0F0031A438A60204B1B6871
:1044B00003F00703AB420AD91D4A136823F0070330
:1044C0002B431360136803F00703AB422ED123681C
:1044D00013F0040F06D0174A936823F4E063E168F1
:1044E0000B439360236813F0080F07D0114A9368B9
:1044F00023F46053216943EAC1039360FFF7F6FB9D
:104500000C4B9B68C3F303130B4AD35C03F01F03EC
:10451000D8400A4B18600A4B1868FFF72DFB70BD96
:10452000012070470120FAE70120F8E70120F6E7B3
:104530000020024000100240381901086C000020E1
:1045400068000020014B1868704700BF6C00002015
:1045500008B5FFF7F7FF054B9B68C3F30223044A36
:10456000D35C03F01F03D84008BD00BF0010024019
:104570004819010808B5FFF7E5FF054B9B68C3F331
:10458000C223044AD35C03F01F03D84008BD00BF18
:1045900000100240481901080F2303600B4B9A6872
:1045A00002F0030242609A6802F0F00282609A68A8
:1045B00002F4E062C2609B68DB0803F4E06303611D
:1045C000034B1B6803F007030B60704700100240A9
:1045D00000200240F8B504460F46594BDB6813F043
:1045E000030F18D0564BDB6803F0030302689342B5
:1045F00002D001252846F8BD002A00F09E80504BCD
:10460000DB68C3F3021301334268934201D00125F2
:10461000F0E7002509E00368022B57D0032B5CD09C
:10462000012B42D00125002DE4D1454A136823F027
:1046300080631360FFF70CFB0646414B1B6813F0C9
:10464000006F05D0FFF704FB831B022BF5D9032570
:10465000002DCFD1002F4ED139490B6923F41F33E0
:1046600023F44073A068E2681209520442EA00226F
:1046700013430B61324A136843F080631360FFF702
:10468000E7FA06462E4B1B6813F0006F05D1FFF7C3
:10469000DFFA831B022BF5D90325002DAAD1284A66
:1046A0001369A1690B431361A4E7254A126812F04C
:1046B000020F1ED02248C26822F0730261680139DD
:1046C00043EA01131343C3600025ACE71C4A126898
:1046D00012F4806FEED10125A5E7194A126812F491
:1046E000003FE7D1164A126812F4802FE2D101256B
:1046F00099E7012597E7012F0FD01148026922F0B1
:10470000C06222F4FE42A16863695B08013B5B065C
:1047100043EA012313430361ACE70948026922F429
:10472000C00222F4FE42A16823695B08013B5B05DD
:1047300043EA0123134303619CE701255AE700BFC5
:1047400000100240F8B504460F46504BDB6813F0EA
:10475000030F18D04D4BDB6803F00303026893424C
:1047600002D001252846F8BD002A00F08C80474B76
:10477000DB68C3F3021301334268934201D0012581
:10478000F0E7002509E00368022B57D0032B5CD02B
:10479000012B42D00125002DE4D13C4A136823F0BF
:1047A00080531360FFF754FA0646384B1B6813F02A
:1047B000005F05D0FFF74CFA831B022BF5D90325C8
:1047C000002DCFD1002F4ED130494B6923F41F3338
:1047D00023F44073A068E2681209520442EA0022FE
:1047E00013434B61294A136843F080531360FFF76A
:1047F0002FFA0646254B1B6813F0005F05D1FFF723
:1048000027FA831B022BF5D90325002DAAD11F4AB5
:10481000536961690B435361A4E71C4A126812F0A3
:10482000020F1ED01948C26822F073026168013974
:1048300043EA01131343C3600025ACE7134A12682F
:1048400012F4806FEED10125A5E7104A126812F428
:10485000003FE7D10D4A126812F4802FE2D1012502
:1048600099E7012597E70948426922F0C06222F4DE
:10487000FE42A16823695B08013B5B0643EA012312
:1048800013434361AEE701256CE700BF001002400F
:104890002DE9F04182B00446036813F4006F33D071
:1048A000436EB3F5000F1FD00CD823B3B3F5800FC0
:1048B00005D100212030FFF745FF064620E0012703
:1048C0003E4623E0B3F5400F0BD10026604AD2F8F4
:1048D000883023F44003616E0B43C2F88830002710
:1048E00014E001273E4611E0594AD36843F480336F
:1048F000D3600026EAE700210430FFF76BFE06468E
:10490000002EE3D0374601E000273E46236813F42B
:10491000805F30D0A36EB3F1007F1FD00DD81BB3E2
:10492000B3F1807F06D1002104F12000FFF70AFFD8
:10493000064605E001273E461DE0B3F1407F0AD15F
:10494000C6B9434AD2F8883023F04073A16E0B43B6
:10495000C2F888300FE001273E460CE03C4AD3689D
:1049600043F48033D360EBE70021201DFFF732FED4
:104970000646E5E73746236813F4003F71D0344B11
:104980009B6D13F0805F4ED1314B9A6D42F0805297
:104990009A659B6D03F080530193019B4FF00108D2
:1049A0002C4A136843F480731360FFF751F90546EE
:1049B000284B1B6813F4807F05D1FFF749F9401B92
:1049C0000228F5D90326002E46D1214BD3F890308A
:1049D00013F4407316D0D4F884209A4212D01C4AA3
:1049E000D2F8903023F44073D2F8901041F4803123
:1049F000C2F89010D2F8901021F48031C2F89010D3
:104A0000C2F8903013F0010F10D1002E40F0278132
:104A10000F4AD2F8903023F44073D4F884100B433B
:104A2000C2F8903019E04FF00008B9E7FFF710F92D
:104A30000546074BD3F8903013F0020FE5D1FFF78E
:104A400007F9401B41F288339842F2D90326DCE78C
:104A500000100240007000403746B8F1000F40F0EF
:104A60000081236813F0010F08D09D4AD2F88830E6
:104A700023F00303A16B0B43C2F88830236813F0C3
:104A8000020F08D0964AD2F8883023F00C03E16B6D
:104A90000B43C2F88830236813F0040F08D0904A03
:104AA000D2F8883023F03003216C0B43C2F88830F1
:104AB000236813F0080F08D0894AD2F8883023F011
:104AC000C003616C0B43C2F88830236813F0100FE9
:104AD00008D0834AD2F8883023F44073A16C0B438A
:104AE000C2F88830236813F0200F08D07C4AD2F82F
:104AF000883023F44063E16C0B43C2F888302368AC
:104B000013F4007F08D0764AD2F8883023F440238B
:104B1000E16D0B43C2F88830236813F4806F08D02E
:104B20006F4AD2F8883023F44013216E0B43C2F849
:104B30008830236813F0400F08D0694AD2F88830D3
:104B400023F44053216D0B43C2F88830236813F0DF
:104B5000800F08D0624AD2F8883023F44043616D58
:104B60000B43C2F88830236813F4807F08D05C4A76
:104B7000D2F8883023F44033A16D0B43C2F888305B
:104B8000236813F4005F0FD0554AD2F8883023F021
:104B90004063E16E0B43C2F88830E36EB3F1006FFF
:104BA00065D0B3F1806F67D0236813F4002F0FD066
:104BB0004B4AD2F8883023F04063216F0B43C2F890
:104BC0008830236FB3F1006F5ED0B3F1806F60D097
:104BD000236813F4802F0FD0414AD2F8883023F095
:104BE0004063616F0B43C2F88830636FB3F1006FAD
:104BF00057D0B3F1806F59D0236813F4804F0FD092
:104C0000374AD2F8883023F04053A16F0B43C2F8E3
:104C10008830A36FB3F1805F50D0B3F1005F55D0FF
:104C2000236813F4004F08D02D4AD2F8883023F0BF
:104C30008043E16F0B43C2F88830236813F4803F50
:104C400009D0274AD2F8883023F00043D4F88010E6
:104C50000B43C2F88830384602B0BDE8F0813746D1
:104C6000FBE61F4A936D23F080539365F9E6D36802
:104C700043F48013D36097E70121201DFFF7AAFCBE
:104C8000002891D007468FE7D36843F48013D360A0
:104C90009EE70121201DFFF79DFC002898D00746C4
:104CA00096E7D36843F48013D360A5E70121201D64
:104CB000FFF790FC00289FD007469DE70221201DAA
:104CC000FFF788FC0028ABD00746A9E7022104F1D2
:104CD0002000FFF737FD0028A2D00746A0E700BF5D
:104CE00000100240F0B583B000236BE085685E00E1
:104CF0000324B44025EA0405CC68B4402C43846006
:104D0000456825EA0C054C68C4F300149C402C430C
:104D1000446069E0C56A25EA0C0CC4F3C0049C40F9
:104D200044EA0C04C46265E0DD08083550F82560EB
:104D300003F007044FEA840C0F2404FA0CF426EA6B
:104D4000040E0C6904FA0CF444EA0E0440F8254001
:104D500067E0062400E0002404FA0EF42C430CF172
:104D6000020C5C4D45F82C405B4CA568D44325EA09
:104D700002064F6817F4801F01D042EA0506564D1F
:104D8000AE60ED6804EA05064F6817F4001F01D015
:104D900042EA0506504DEE606D6804EA05064F686C
:104DA00017F4003F01D042EA05064B4D6E602D68B6
:104DB0002C404E6816F4803F01D042EA0504464A72
:104DC000146001330A6832FA03F400F081804FF076
:104DD000010C0CFA03FC1CEA0202F2D04C6804F04D
:104DE0000304013C012C81D94C6804F0030EBEF190
:104DF000030F8FD04C6804F00304032C0CD0C4685C
:104E00005D004FF0030C0CFA05FC24EA0C0C8C68D6
:104E1000AC4044EA0C04C4604C6804F00304022C67
:104E200082D004684FEA430E4FF0030C0CFA0EFCDC
:104E300024EA0C0C4C6804F0030404FA0EF444EA6F
:104E40000C0404604C6814F4403FBAD0234C256E27
:104E500045F001052566246E04F001040194019CCF
:104E60004FEA930C0CF102051A4C54F8255003F04C
:104E700003044FEA840E0F2404FA0EF425EA040515
:104E8000B0F1904F3FF467AF154CA04216D004F537
:104E90008064A04214D004F58064A04212D004F5CE
:104EA0008064A04210D004F58064A0420ED004F5C6
:104EB0008064A0423FF44DAF07244DE701244BE747
:104EC000022449E7032447E7042445E7052443E790
:104ED00003B0F0BD0000014000040140001002409A
:104EE000000400480AB1816170478162704730B4A4
:104EF000446C04F01C0C012404FA0CF4056C6C6086
:104F0000046863608368102B05D0036899600368A8
:104F1000DA6030BC704703689A600368D960F8E7CC
:104F2000002873D010B403460068394A90424AD82A
:104F3000384A02443849A1FB0212120992005A640D
:104F4000364A1A64022283F82520016821F4FF41C1
:104F500021F070019A68DC6822431C6922435C6975
:104F600022439C692243DC6922431C6A22430A4390
:104F700002609A68B2F5804F1BD0196C274A9142A3
:104F80002CD0264AD2F8A814586C00F01C0C0F2024
:104F900000FA0CF021EA0001C2F8A814D2F8A81413
:104FA00058685C6C04F01C0C00FA0CF00143C2F869
:104FB000A8140020D863012283F8252083F8240058
:104FC0005DF8044B7047164A02441349A1FB0212D4
:104FD000120992005A64134A1A64B3E7D2F8A8106F
:104FE000586C00F01C0C0F2000FA0CF021EA0001B4
:104FF000C2F8A810D2F8A81058685C6C04F01C0C19
:1050000000FA0CF00143C2F8A810D2E70120704763
:1050100007040240F8FFFDBFCDCCCCCC000002401D
:10502000F8FBFDBF0004024038B5044690F82400A8
:10503000012832D0012084F8240094F82500C0B261
:10504000012804D0002384F82430022038BD022037
:1050500084F825000020E0632568286820F001001E
:1050600028602046FFF743FF236B5BB1226813687B
:1050700043F00E0313602268136843F001031360CA
:105080000020E3E72268136823F00403136022681A
:10509000136843F00A031360EDE70220D6E790F8A7
:1050A0002530DBB2022B06D00423C363002380F833
:1050B0002430012070470268136823F00E03136048
:1050C0000268136823F001031360436C03F01C03B0
:1050D000016C012202FA03F34B6080F825200023C3
:1050E00080F824301846704708B590F82530DBB2B8
:1050F000022B03D00423C363012008BD0268136898
:1051000023F00E0313600268136823F00103136099
:10511000436C03F01C03016C012202FA03F34B60A1
:1051200080F82520002380F82430836B13B1984742
:105130000020E2E70020E0E738B5036C1968046856
:105140002568436C03F01C0304229A400A4215D0E0
:1051500015F0040F12D0236813F0200F03D1236839
:1051600023F004032360436C03F01C02016C04234E
:1051700093404B60036B03B1984738BD02229A40BD
:105180000A421CD015F0020F19D0236813F0200F2B
:1051900006D1236823F00A032360012380F8253019
:1051A000436C03F01C02016C022393404B6000230C
:1051B00080F82430C36A002BDFD09847DDE708224F
:1051C00002FA03F30B42D8D015F0080FD5D02368AC
:1051D00023F00E032360436C03F01C03016C0122D7
:1051E00002FA03F34B60C26380F82520002380F8A5
:1051F0002430436B002BC0D09847BEE7C06B70478C
:10520000024B186800F4C060704700BF0070004097
:10521000B0F5007F0FD01F4B1B6803F4C063B3F5DC
:10522000806F34D01B4A136823F4C06343F4806357
:10523000136000207047174B1B6803F4C063B3F57D
:10524000007F20D0134A136823F4C06343F4007333
:105250001360114B1B68322202FB03F30F4AA2FBBF
:1052600003239B0C013300E0013B0A4A526912F40C
:10527000806F01D0002BF7D1064B5B6913F4806F70
:1052800003D10020704700207047032070470020A2
:10529000704700BF007000406C00002083DE1B439D
:1052A000074AD36823F4E0631B041B0C000200F4DC
:1052B000E060034343F0BF6343F40033D3607047BF
:1052C00000ED00E000B5194BDB68C3F30223C3F126
:1052D000070CBCF1040F28BF4FF0040C03F1040EBF
:1052E000BEF1060F18D9033B4FF0FF3E0EFA0CFC3F
:1052F00021EA0C0199400EFA03F322EA0303194351
:1053000000280BDB0901C9B200F1604000F56140E3
:1053100080F800135DF804FB0023E5E700F00F00C0
:105320000901C9B2024B1954F4E700BF00ED00E0D7
:1053300014ED00E0002807DB00F01F024009012304
:105340009340024A42F82030704700BF00E100E07D
:105350007047000090F83D30DBB2012B36D10223BC
:1053600080F83D300268D36843F00103D3600368DE
:10537000194A93421CD0B3F1804F19D0A2F5943250
:10538000934215D002F58062934211D002F58062FB
:1053900093420DD002F59432934209D002F5406257
:1053A000934205D01A6842F001021A60002070474B
:1053B00099680A4A0A40062A0AD0B2F5803F09D005
:1053C0001A6842F001021A600020704701207047FD
:1053D0000020704700207047002C014007000100AA
:1053E000704770477047704770B504460368DE68C1
:1053F0001D6915F0020F10D016F0020F0DD06FF0DE
:1054000002021A610123037703689B6913F0030FFB
:1054100064D0FFF7E6FF0023237715F0040F12D0C6
:1054200016F0040F0FD023686FF004021A610223F4
:10543000237723689B6913F4407F55D02046FFF7FC
:10544000D0FF0023237715F0080F12D016F0080FB5
:105450000FD023686FF008021A61042323772368B2
:10546000DB6913F0030F46D02046FFF7BAFF002395
:10547000237715F0100F12D016F0100F0FD02368FD
:105480006FF010021A61082323772368DB6913F495
:10549000407F37D02046FFF7A4FF0023237715F085
:1054A000010F02D016F0010F33D115F0800F02D09A
:1054B00016F0800F35D115F4807F02D016F0800FE2
:1054C00037D115F0400F02D016F0400F39D115F04A
:1054D000200F02D016F0200F3BD170BDFFF780FFE8
:1054E0002046FFF77FFF96E72046FFF779FF20462B
:1054F000FFF778FFA5E72046FFF772FF2046FFF78A
:1055000071FFB4E72046FFF76BFF2046FFF76AFF05
:10551000C3E723686FF001021A612046FEF7E2F844
:10552000C3E723686FF080021A61204600F0AFF8ED
:10553000C1E723686FF480721A61204600F0A8F872
:10554000BFE723686FF040021A612046FFF74BFF68
:10555000BDE723686FF020021A61204600F096F83C
:10556000BBE700000368304A904212D0B0F1804F90
:105570000FD0A2F5943290420BD002F58062904297
:1055800007D002F58062904203D002F59432904237
:1055900003D123F070034A681343234A90421ED07C
:1055A000B0F1804F1BD0A2F59432904217D002F593
:1055B0008062904213D002F5806290420FD002F5D3
:1055C000943290420BD002F54062904207D002F52F
:1055D0008062904203D002F58062904203D123F4AE
:1055E0004073CA68134323F080034A69134303607E
:1055F0008B68C3620B6883620B4B98420FD003F534
:10560000006398420BD003F54063984207D003F53E
:105610008063984203D003F58063984201D10B69FF
:105620000363012343617047002C014060B310B550
:10563000044690F83D3013B3022384F83D302146F0
:1056400051F8040BFFF78EFF012384F8483084F8EB
:105650003E3084F83F3084F8403084F8413084F89C
:10566000423084F8433084F8443084F8453084F87C
:10567000463084F8473084F83D30002010BD80F873
:105680003C30FFF765FED7E7012070477047704751
:105690007047026852E8003F23F0C00342E800313F
:1056A0000029F6D12023C3677047026852E8003F03
:1056B00023F4907342E800310029F6D1026802F128
:1056C000080353E8003F23F00103083242E80031A9
:1056D0000029F3D1036E012B06D02023C0F88030BF
:1056E0000023036683667047026852E8003F23F098
:1056F000100342E800310029F6D1EEE71346C26FED
:10570000202A3BD110B50446002939D0002B39D0CE
:10571000C164A0F85030A0F852300022C0F88420B4
:105720002122C267026FC2B11749D162026F1749C5
:105730001163026F16495163026F00219163026881
:105740002832C16C006FFFF76FFC30B11023C4F832
:1057500084302023E36701200FE0236840221A628F
:10576000226802F1080353E8003F43F08003083247
:1057700042E800310029F3D1002010BD022070471B
:105780000120FAE70120F8E743580008AF58000865
:10579000BF58000838B50446C26FD0F8805003687F
:1057A0009B6813F0800F01D0212A08D023689B68E2
:1057B00013F0400F42D0222D20D000203FE022687D
:1057C00002F1080353E8003F23F08003083242E867
:1057D00000310029F3D1206F10B1FFF760FC18B938
:1057E0002046FFF756FFE1E7206FFFF707FD20286F
:1057F000F6D11023C4F88430032020E0226802F19F
:10580000080353E8003F23F04003083242E8003128
:105810000029F3D1606F10B1FFF741FC20B9204699
:10582000FFF743FF00200AE0606FFFF7E7FC202846
:10583000F5D11023C4F88430032000E0002038BDE7
:10584000704708B50346806A1B681B6813F0200F79
:1058500018D10023A0F85230026802F1080353E87F
:10586000003F23F08003083242E800310029F3D1E1
:10587000026852E8003F43F0400342E8003100294B
:10588000F6D108BDFFF7DCFFFBE708B5026852E878
:10589000003F23F0400342E800310029F6D12023E5
:1058A000C3670023C366FFF7CBFF08BD704708B589
:1058B000806AFFF7FBFF08BD70477047704738B537
:1058C000846AE26FD4F8805023689B6813F0800FDD
:1058D00001D0212A10D023689B6813F0400F01D01B
:1058E000222D10D0D4F8843043F01003C4F8843053
:1058F0002046FFF7E3FF38BD0023A4F852302046CE
:10590000FFF7C7FEE7E70023A4F85A302046FFF769
:10591000CCFEE7E708B5806A0023A0F85A30A0F86B
:105920005230FFF7CBFF08BD7047000070B504464A
:105930000168CB6908688D6840F60F021A4005D1EE
:1059400013F0200F02D010F0200F20D12AB115F053
:10595000010222D1AF4E30421FD1226E012A00F047
:10596000AB8013F4801F03D015F4800F40F03F810B
:1059700013F0800F03D010F0800F40F03F8113F040
:10598000400F03D010F0400F40F03F8170BDA36E78
:10599000002BFBD020469847F8E713F0010F09D001
:1059A00010F4807F06D001250D62D4F884102943BD
:1059B000C4F8841013F0020F09D042B12168022507
:1059C0000D62D4F8841041F00401C4F8841013F07F
:1059D000040F09D042B1216804250D62D4F8841067
:1059E00041F00201C4F8841013F0080F0BD010F03E
:1059F000200F00D13AB1226808211162D4F8842026
:105A00000A43C4F8842013F4006F0CD010F0806FA8
:105A100009D022684FF400611162D4F8842042F06A
:105A20002002C4F88420D4F88420002AAED013F0D9
:105A3000200F06D010F0200F03D0A36E0BB120462C
:105A40009847D4F8842023689B6813F0400F02D154
:105A500012F0280F29D02046FFF727FE23689B6805
:105A600013F0400F1DD0226802F1080353E8003FF5
:105A700023F04003083242E800310029F3D1636F7C
:105A80005BB1654A9A63606FFFF72EFB00283FF415
:105A90007DAF606F836B984778E72046FFF70EFF76
:105AA00074E72046FFF70AFF70E72046FFF706FF7E
:105AB0000023C4F8843069E713F0100F3FF451AFAE
:105AC00010F0100F3FF44DAF10230B6223689B685A
:105AD00013F0400F51D0626F13685B689BB2002BCC
:105AE0003FF454AFB4F8581099427FF64FAFA4F882
:105AF0005A3013681B6813F0200F31D1226852E826
:105B0000003F23F4807342E800310029F6D1226877
