:020000040800F2
:1000000000800120E98200080182000803820008C4
:10001000058200080782000809820008000000002D
:100020000000000000000000000000000B8200083B
:100030000D820008000000000F82000811820008F5
:1000400039830008398300083983000839830008A0
:100050003983000839830008398300083983000890
:100060003983000839830008398300083983000880
:100070003983000839830008398300083983000870
:100080003983000839830008398300083983000860
:100090003983000839830008398300083983000850
:1000A0003983000839830008398300081982000861
:1000B0003983000839830008398300083983000830
:1000C0003983000839830008398300083983000820
:1000D0003983000839830008398300083983000810
:1000E0003983000839830008398300083983000800
:1000F00039830008398300083983000839830008F0
:1001000039830008398300083983000839830008DF
:1001100039830008398300083983000839830008CF
:1001200039830008398300083983000839830008BF
:1001300039830008398300083983000839830008AF
:10014000398300083983000839830008398300089F
:10015000398300083983000839830008398300088F
:10016000398300083983000839830008398300087F
:100170003983000839830008398300080000000033
:080180003983000839830008EF
:1001C0000348044B834202D0034B03B118477047E6
:1001D000B8090020B80900200000000005480649C1
:1001E0000B1AD90F01EBA301491002D0034B03B145
:1001F00018477047B8090020B80900200000000027
:1002000010B5064C237843B9FFF7DAFF044B13B15E
:100210000448AFF300800123237010BDB80900200B
:1002200000000000E8A5000808B5044B1BB1044914
:100230000448AFF30080BDE80840CFE700000000AD
:10024000BC090020E8A5000881F0004102E000BFE1
:1002500083F0004330B54FEA41044FEA430594EA86
:10026000050F08BF90EA020F1FBF54EA000C55EAC1
:10027000020C7FEA645C7FEA655C00F0E2804FEA92
:100280005454D4EB5555B8BF6D420CDD2C4480EA74
:10029000020281EA030382EA000083EA010180EAA4
:1002A000020281EA0303362D88BF30BD11F0004FF2
:1002B0004FEA01314FF4801C4CEA113102D0404228
:1002C00061EB410113F0004F4FEA03334CEA133363
:1002D00002D0524263EB430394EA050F00F0A7807B
:1002E000A4F10104D5F1200E0DDB02FA0EFC22FA76
:1002F00005F2801841F1000103FA0EF2801843FA6A
:1003000005F359410EE0A5F120050EF1200E012A5A
:1003100003FA0EFC28BF4CF0020C43FA05F3C01898
:1003200051EBE37101F0004507D54FF0000EDCF111
:10033000000C7EEB00006EEB0101B1F5801F1BD3BA
:10034000B1F5001F0CD349085FEA30004FEA3C0CBE
:1003500004F101044FEA445212F5800F80F09A80B4
:10036000BCF1004F08BF5FEA500C50F1000041EBB8
:10037000045141EA050130BD5FEA4C0C404141EBBC
:100380000101013C28BFB1F5801FE9D291F0000FB7
:1003900004BF01460020B1FA81F308BF2033A3F166
:1003A0000B03B3F120020CDA0C3208DD02F1140C5D
:1003B000C2F10C0201FA0CF021FA02F10CE002F198
:1003C0001402D8BFC2F1200C01FA02F120FA0CFC91
:1003D000DCBF41EA0C019040E41AA2BF01EB0451DA
:1003E000294330BD6FEA04041F3C1CDA0C340EDCD8
:1003F00004F11404C4F1200220FA04F001FA02F31B
:1004000040EA030021FA04F345EA030130BDC4F1D8
:100410000C04C4F1200220FA02F001FA04F340EACD
:100420000300294630BD21FA04F0294630BD94F07E
:10043000000F83F4801306BF81F480110134013D65
:100440004EE77FEA645C18BF7FEA655C29D094EAD6
:10045000050F08BF90EA020F05D054EA000C04BF54
:100460001946104630BD91EA030F1EBF002100203F
:1004700030BD5FEA545C05D14000494128BF41F0DE
:10048000004130BD14F580043CBF01F5801130BD42
:1004900001F0004545F0FE4141F470014FF00000CD
:1004A00030BD7FEA645C1ABF194610467FEA655C7E
:1004B0001CBF0B46024650EA013406BF52EA033520
:1004C00091EA030F41F4002130BD00BF90F0000F0E
:1004D00004BF0021704730B54FF4806404F132044A
:1004E0004FF000054FF0000150E700BF90F0000F03
:1004F00004BF0021704730B54FF4806404F132042A
:1005000010F0004548BF40424FF000013EE700BFF9
:1005100042004FEAE2014FEA31014FEA02701FBF89
:1005200012F07F4393F07F4F81F06051704732F0BB
:100530007F4208BF704793F07F4F04BF41F4002112
:10054000704730B54FF4607401F0004521F0004170
:100550001CE700BF50EA010208BF704730B54FF0FA
:1005600000050AE050EA010208BF704730B511F0FB
:10057000004502D5404261EB41014FF4806404F133
:1005800032045FEA915C3FF4D8AE4FF003025FEAB9
:10059000DC0C18BF03325FEADC0C18BF033202EB3D
:1005A000DC02C2F1200300FA03FC20FA02F001FA97
:1005B00003FE40EA0E0021FA02F11444BDE600BF3A
:1005C0004A0011D212F5001211D20DD56FF47873D2
:1005D000B3EB62520ED44FEAC12343F0004343EA27
:1005E000505323FA02F070474FF00000704750EA72
:1005F000013002D14FF0FF3070474FF000007047DC
:1006000053B94AB9002908BF00281CBF4FF0FF3179
:100610004FF0FF3000F074B9ADF1080C6DE904CE75
:1006200000F006F8DDF804E0DDE9022304B07047CD
:100630002DE9F047089E0D4604468846002B4DD113
:100640008A42944668D9B2FA82F252B101FA02F3B0
:10065000C2F1200120FA01F10CFA02FC41EA030880
:1006600094404FEA1C45210CB8FBF5FE1FFA8CF7AD
:1006700005FB1E8341EA03430EFB07F199420BD9A8
:100680001CEB03030EF1FF3080F01E81994240F213
:100690001B81AEF1020E63445B1AA4B2B3FBF5F00A
:1006A00005FB103344EA034400FB07F7A7420AD9CD
:1006B0001CEB040400F1FF3380F00881A74240F2F4
:1006C000058164440238E41B40EA0E4000211EB15B
:1006D000D4400023C6E90043BDE8F0878B4208D927
:1006E000002E00F0EE800021C6E900050846BDE8B6
:1006F000F087B3FA83F100294AD1AB4202D3824298
:1007000000F2F980841A65EB030301209846002E5D
:10071000E2D0C6E90048DFE702B9FFDEB2FA82F2B2
:10072000002A40F09180A1EB0C054FEA1C471FFA0C
:100730008CFE0121B5FBF7F307FB1350250C45EAAE
:1007400000450EFB03F0A84208D91CEB050503F198
:10075000FF3802D2A84200F2CB8043462D1AA4B241
:10076000B5FBF7F007FB105544EA05440EFB00FE0D
:10077000A64508D91CEB040400F1FF3502D2A645BA
:1007800000F2BB802846A4EB0E0440EA03409EE73B
:10079000C1F120078B4022FA07FC4CEA030C20FA37
:1007A00007F405FA01F31C43FD404FEA1C4900FA27
:1007B00001F3B5FBF9F8200C1FFA8CFE09FB185564
:1007C00040EA054508FB0EF0A84202FA01F20BD9F7
:1007D0001CEB050508F1FF3A80F08880A84240F242
:1007E0008580A8F1020865442D1AA4B2B5FBF9F082
:1007F00009FB105544EA054500FB0EFEAE4508D93D
:100800001CEB050500F1FF346CD2AE456AD9023805
:10081000654440EA0840A0FB0294A5EB0E05A54202
:10082000C846A64656D353D05EB1B3EB080265EB7B
:100830000E0505FA07F722FA01F3CD401F43C6E97A
:1008400000750021BDE8F087C2F1200320FA03F112
:100850000CFA02FC25FA03F395400D434FEA1C47BE
:100860001FFA8CFEB3FBF7F107FB11302B0C43EAA8
:10087000004301FB0EF0984204FA02F408D91CEB85
:10088000030301F1FF382FD298422DD90239634476
:100890001B1AADB2B3FBF7F007FB103345EA034573
:1008A00000FB0EF3AB4208D91CEB050500F1FF3845
:1008B00016D2AB4214D902386544ED1A40EA014120
:1008C00038E73146304607E78646E5E61846FAE659
:1008D0004B45A9D2B9EB020864EB0C0E0138A3E733
:1008E0004046EAE7204694E74146D1E7D0467BE719
:1008F000023B654432E7084609E76444023842E7B0
:10090000704700BF002301461A46184601F0FABAA4
:10091000014B1868704700BF0000002038B5084B35
:10092000084D5B1B9C1007D0043B1D44013C55F84F
:1009300004399847002CF9D1BDE8384009F05ABE77
:1009400018AA000814AA000870B50D4E0D4D761BAC
:10095000B61006D0002455F8043B01349847A6424F
:10096000F9D1094E094D761B09F03EFEB61006D0AE
:10097000002455F8043B01349847A642F9D170BDD4
:100980000CAA00080CAA000814AA00080CAA000867
:10099000830730B548D0541E002A3FD0CAB2034660
:1009A00001E0013C3AD303F8012B9D07F9D1032C58
:1009B0002DD9CDB245EA05250F2C45EA054536D996
:1009C000A4F1100222F00F0C03F1200EE6444FEACE
:1009D000121C03F1100242E9045542E9025510329B
:1009E0007245F8D10CF1010214F00C0F03EB021266
:1009F00004F00F0C13D0ACF1040323F00303043311
:100A0000134442F8045B9342FBD10CF003042CB175
:100A1000CAB21C4403F8012B9C42FBD130BD644692
:100A20001346002CF4D1F9E703461446BFE71A46F3
:100A3000A446E0E70CB410B59CB01EAB6FF00044C8
:100A4000CDE906140291084953F8042B059102A937
:100A50000193049400F02AF8029B00221A701CB043
:100A6000BDE8104002B070470802FFFF0EB410B599
:100A70009DB06FF000411FABCDE90601049109491B
:100A800053F8042B0290084C0868019302A90594BE
:100A900000F00CF8029B00221A701DB0BDE8104057
:100AA00003B07047000000200802FFFF2DE9F04F5F
:100AB000BFB0884691460D930C9002F04DFA036842
:100AC0001493184603F03CFBB8F80C30139018064A
:100AD00004D5D8F81030002B00F0CA860023CDE9E9
:100AE00022330F9312931593099300240023CDE929
:100AF00010342EAA2192924699F80030002B00F073
:100B000080814C4604E014F8013F002B00F0C580C2
:100B1000252BF8D1B4EB090540F0C3802378002BD6
:100B200000F06F8100234FF0FF3265788DF8673059
:100B300004F10109184608920A939B4609F101093C
:100B4000A5F12002582A00F2D380DFE812F0530208
:100B5000D100D1004E02D100D100D100D100D1008E
:100B6000D10001024902D1000C021102D10044025D
:100B700059005900590059005900590059005900AD
:100B80005900D100D100D100D100D100D100D10055
:100B9000D100D100D1002B026401D1006401D10049
:100BA000D100D100D1005B02D100D1007800D1008A
:100BB000D100D100D100D1006800D100D1006E0277
:100BC000D100D100D100D100D100D100D100D1009D
:100BD000D100D1006002C4016401640164018F028C
:100BE000C401D100D1000303D100ED027A00D2028A
:100BF000CD02D100AB02D1006A00D100D100940235
:100C0000A5F13002002119F8015B01EB810102EB33
:100C10004101A5F13002092AF5D90A9190E74BF07C
:100C2000100B1BF0200100F048810D9B073323F0CF
:100C30000703596853F8080B0D9301230EE04BF09E
:100C4000100B1BF0200100F02B810D9B073323F0CC
:100C50000703596853F8080B0D93002300248DF8FF
:100C60006740089A561C00F084822BF08006069696
:100C700050EA010640F07B82002A40F00383002BFB
:100C800040F024851BF001030B9300F09085302386
:100C90008DF8B7300DF1B70690E2B4EB090500F01E
:100CA000B080239B2B442393229B0133072BCAE95B
:100CB0000095229305DC0AF1080A099B2B4409934D
:100CC0002CE70C9821AA414603F0A8FA18B90DF1B7
:100CD000B80AF2E7B846B8F80C3013F0400F099B99
:100CE00018BF4FF0FF33099309983FB0BDE8F08F6C
:100CF000002B40F0C587002D00F0838000238DF885
:100D0000673001238DF8905007930B9324AE002396
:100D1000CDF818B008930E93069B13F0020302D08F
:100D2000079A02320792069A12F0840B05D10A9AAA
:100D30000799571A002F00F39883239C9DF867208A
:100D40008AB1229A0DF1670101320134CAF800100C
:100D5000072A4FF0010123942292CAF8041000F3ED
:100D6000CD830AF1080A83B1229B1AAA0133023407
:100D7000CAF80020072B4FF0020223942293CAF8EE
:100D8000042000F3C9830AF1080ABBF1800F00F0C8
:100D90009582089B0B9AA3EB020BBBF1000F00F3AB
:100DA000CF82069BDF0500F112820B9BCAF804304C
:100DB0001C44229BCAF800600133072B2394229322
:100DC00000F347830AF1080A069B5B0705D50A9BD7
:100DD000079A9D1A002D00F3AB83DDE909320799CC
:100DE0008A42ACBF9B185B180993002C40F0E2824A
:100DF0000023229399F800300DF1B80A002B7FF4FC
:100E000080AE239B002B3FF466AF0C9821AA41468D
:100E100003F004FA5FE7002B40F0D4870D9B073303
:100E200023F00702F2E80234CDE91034DDE9103492
:100E300024F000440D921E4618462146B54B4FF053
:100E4000FF3206F05BFF002840F0B884B14B30461B
:100E500021464FF0FF3206F033FF002840F0AE8409
:100E6000DDE910010022002306F020FF002840F0F9
:100E7000E0869DF86740A84E2BF080030693A74BB1
:100E80000022472DC8BF1E460323CDE907320B932E
:100E90000E92002C3FF440AF079B013307933BE7D2
:100EA0001BF0100348D11BF0400145D00D9A52F8B9
:100EB000040B0D92194680B2D0E61BF0100341D10D
:100EC0001BF040013ED00D9A52F8040B0D921946CA
:100ED00080B20123C2E6002B40F07C871BF0200F7C
:100EE0000D9B68D0073323F007031A465B6852F85E
:100EF000080B0D921946002BC0F23084089B013379
:100F000000F06B852BF08003069350EA01039DF8F7
:100F1000674000F0D783DDF818B00A2871F10003AC
:100F200080F0FC84303001238DF8B700CDF818B084
:100F30000B930DF1B70641E10D9B53F8040B0D9394
:100F40000B468BE60D9B53F8040B0D93012385E6AE
:100F50000D9A52F8041B0A91002980F223840A9901
:100F60000D9249420A9199F800504BF0040BE5E5C7
:100F7000494611F8015B2A2D00F0A387A5F1300244
:100F8000092A894698BF002100F2208719F8015BE1
:100F900001EB810102EB4101A5F13002092AF5D9EB
:100FA0000891CDE5002B40F019874BF0100B1BF09A
:100FB000200F0D9B96D153F8040B0D931BF0100FCF
:100FC00040F0C7831BF0400F00F0C38340F3C031F3
:100FD0000B4600B28FE799F800504BF0800BADE55F
:100FE00099F8005001232B20A8E599F800504BF008
:100FF000010BA3E599F8005000287FF49FAD012371
:1010000020209BE599F800504BF0080B96E50D9BCE
:1010100000228DF8672053F8042B0D9301238DF8DF
:10102000902007930B9324AE71E6002B40F0DA86F4
:101030003B4B12931BF0200125D00D9B073323F06F
:101040000703596853F8080B0D931BF0010F0BD0E1
:1010500050EA010308D030238DF868308DF86950CC
:101060004BF0020B0223F9E50223F7E599F8005053
:101070004BF0400B62E5002B40F0A086294B129309
:101080001BF02001D9D11BF0100340F05D831BF051
:10109000400100F059830D9A52F8040B0D92194645
:1010A00080B2D2E70D9C089B54F8046B00278DF8A2
:1010B0006770002E00F0C8845A1C00F0E9831A46BD
:1010C0003946304602F0FCF9002800F05F86831BA9
:1010D0000B9323EAE3730D9408979DF86740CDF8CE
:1010E00018B007930E97D4E699F800504BF0200BF8
:1010F00024E50D9B53F8040B0D93302378258DF8D0
:101100006830084B12934BF0020B8DF869500021A8
:101110000223A3E5FFFFEF7FE4A80008E8A800088A
:1011200008A90008F4A80008002B40F05F861BF017
:10113000200F40F087831BF0100F40F0E1831BF07D
:10114000400F00F0DD830D9B099953F8042B0D939C
:101150001180D1E499F800506C2D03BF99F801502B
:101160004BF0200B09F101094BF0100BE6E4DDF820
:1011700018B0012B3FF4D1AE022B00F08B802EAEC5
:1011800000F00703C00840EA4170C908303350EA54
:101190000107324606F8013DF2D11BF0010F00F0C5
:1011A0008780302B00F084803023023A06F8013C1F
:1011B0002EAB9B1ACDF818B00B931646089B0B9AD2
:1011C0009342B8BF1346079300230E9361E6652D43
:1011D00040F3F980DDE910010022002306F05CFDF8
:1011E000002800F0DE81229BC14ACAF800200133AA
:1011F00001340122072B23942293CAF8042000F320
:10120000FC830AF1080A1B9B0F9A934203DB069B9F
:10121000D8077FF5D9AD139B149A1C44CAE9002363
:10122000229B23940133072B229300F300840AF1BD
:10123000080A0F9B5D1E002D7FF7C6AD102D229B67
:10124000AC4F40F3CE83DDF830B0102605E00AF154
:10125000080A103D102D40F3C48301331034072BCE
:10126000CAE90076CDE92234F1DD21AA414658468B
:1012700002F0D4FF00287FF42EADDDE922340DF119
:10128000B80AE6E7012B00F04C85022BDDF818B018
:101290007FF475AF129A2EAE00F00F030009D35CF5
:1012A00006F8013D40EA0170090950EA0103F3D153
:1012B0002EAB9B1BCDF818B00B937FE70A9B079AC8
:1012C000A3EB020BBBF1000F7FF763ADBBF1100F77
:1012D000229A884F26DD214610230C9C06E0ABF1B4
:1012E000100BBBF1100F0AF1080A1ADD01321031A0
:1012F000072ACAE90073CDE92221F0DD21AA41467F
:1013000020460DF1B80A02F089FF00287FF4E3AC13
:10131000ABF1100BBBF1100FDDE922214FF01003F0
:10132000E4DC0C4601325C44072ACDE92224CAF8E9
:101330000070CAF804B000F36D830AF1080A28E5CA
:10134000BBF1100F229A6B4F26DD214610230C9C17
:1013500006E0ABF1100BBBF1100F0AF1080A1ADD21
:1013600001321031072ACAE90073CDE92221F0DDEC
:1013700021AA4146204602F051FF00287FF4ABAC81
:10138000ABF1100BBBF1100FDDE922210DF1B80A12
:101390004FF01003E4DC0C4601325C44072ACDE92F
:1013A0002224CAF80070CAF804B000F3C0810AF120
:1013B000080AF6E40C9821AA414602F02FFF002803
:1013C0003FF416AD87E40F9B012B40F35D81229D16
:1013D000CAF80060013501340123072D23942295BA
:1013E000CAF8043000F3C4810AF1080A139B149A66
:1013F00001351C44072DCAE90023CDE9225400F32E
:10140000C4810AF1080ADDE910010022002306F078
:1014100043FC002840F05F810F9B0135013B013602
:101420001C44072DCAF800602295CAF804302394A2
:1014300000F33B810AF1080A159BCAF80430013514
:101440001C44072D1DABCDE92254CAF800307FF7AC
:10145000B9AC0C9821AA414602F0E0FE00287FF4C6
:101460003AAC239C0DF1B80AAEE4102FDDE922213D
:101470002FDDCDE916354B460C9DB14610243E4676
:1014800008464746984604E0103E102E0AF1080A26
:1014900017DD0132184B1030072ACAE90034CDE9B4
:1014A0002220F1DD21AA394628460DF1B80A02F0C2
:1014B000B5FE00287FF40EAC103E102EDDE9222090
:1014C000E7DCDDE9163501464046B84637464E466C
:1014D000814601327C18072A0749CAF80470CDE911
:1014E0002224CAF8001000F335820AF1080A25E424
:1014F00024A9000814A6000804A600080C98169356
:1015000021AA414602F08AFE00287FF4E4AB239C26
:10151000169B0DF1B80A26E40C9821AA414602F068
:101520007DFE00287FF4D7AB239C0DF1B80A2CE494
:10153000102D229B1FDD0C9F102604E0103D102D66
:101540000AF1080A17DD01339A4A1034072BCAE959
:101550000026CDE92234F1DD21AA414638460DF1BD
:10156000B80A02F05BFE00287FF4B5AB103D102DE9
:10157000DDE92234E7DC01338E4ACAF804502C44FA
:10158000072BCDE92234CAF800207FF726AC0C984F
:1015900021AA414602F042FE00287FF49CAB239C26
:1015A0001BE41B99002940F3E481DDE90E379F42DB
:1015B000A8BF1F46002F0BDD229B01333C44072BA5
:1015C000CAE900672394229300F3C2830AF1080A50
:1015D0000E9D002FA8BFED1B002D00F369811B9D00
:1015E0000F9B9D4280F23881139B149A1C44CAE9D8
:1015F0000023229B23940133072B229300F31E83A5
:101600000AF1080A0F9B0E9A5D1B9F1AAF42A8BFF2
:101610002F46002F0EDD229BCAF8047001331644BA
:101620003C44072BCAF800602394229300F39F8365
:101630000AF1080A002FA8BFED1B002D7FF7C4ABED
:10164000102D229B5C4F40F3CC81DDF830B010268A
:1016500005E00AF1080A103D102D40F3C281013364
:101660001034072BCAE90076CDE92234F1DD21AA36
:101670004146584602F0D2FD00287FF42CABDDE94C
:1016800022340DF1B80AE6E7069BDA073FF59FAE74
:10169000229DCAF80060013501340123072D2394EF
:1016A0002295CAF804307FF7C5AE0C9821AA4146AE
:1016B00002F0B4FD00287FF40EABDDE922540DF1F9
:1016C000B80AB9E6089B002B40F02B83002308934F
:1016D0000B932EAE72E50F9B5E1E002E7FF7ACAE15
:1016E000102E354F40F3F081CDF820904FF0100BC5
:1016F000C146DDF8308005E00AF1080A103E102EE0
:1017000040F3DF8101351034072DCAE9007BCDE9B4
:101710002254F1DD21AA4946404602F07FFD00280F
:1017200040F06883DDE922540DF1B80AE6E70C9831
:1017300021AA414602F072FD00287FF4CCAA239C26
:101740000DF1B80AFFF72DBB0D9B53F8040B0D9359
:101750007BE4C1170B46002BBFF6D0AB40424FF0E5
:101760002D0461EB41018DF867400123FFF779BA41
:101770000C9821AA414602F051FD00287FF4ABAA43
:10178000DDE922540DF1B80A30E60C9821AA414651
:1017900002F044FD00287FF49EAADDE922540DF1F9
:1017A000B80A30E699F800500D92FFF7C7B92EAE8F
:1017B00004E500BF04A6000814A60008DDE9100136
:1017C00002460B4606F09AFA002840F03C83089B3C
:1017D000013325F020030B9300F0C682472B00F065
:1017E0009780DDE910124BF48073171E0693C0F248
:1017F0003F82109B079300231693662D00F07081A3
:10180000462D00F06D810B9B079A0C98452B1FA964
:1018100008BF089B04911CA903911BA90CBF5C1C69
:10182000089C029102213B460194009100F032FC99
:10183000672D064640F082821BF0010F00F0988170
:10184000344464E10D9B099853F8041B0D93C217AF
:10185000C1E90002FFF750B9069BD9073FF5C4AEB6
:10186000DDE90E239F1A5D1BAF42A8BF2F46E1E6BC
:101870000C98402101F078FBC8F80000C8F810006F
:10188000002800F02D834023C8F81430FFF726B954
:1018900030460D940897CDF818B002F051FC20EABC
:1018A000E0739DF867400B9007930E97FFF7F1BA2E
:1018B000102D229BAB4F40F3AF813A460896474626
:1018C0000C9E4FF0100B904605E00AF1080A103DFF
:1018D000102D40F39D8101331034072BCAE9008B92
:1018E000CDE92234F1DD21AA3946304602F096FCDA
:1018F00000287FF4EFA9DDE922340DF1B80AE6E70C
:101900000D9B099953F8042B11600D93FFF7F4B860
:10191000089B002B08BF0123089362E72EAE0695B3
:101920000A22002307460D46FEF76AFE303206F80B
:10193000012D0023384629460A22FEF761FE0A2FB0
:1019400075F10003ECD22EAB9B1B069D0B93CDF8DB
:1019500018B033E40C98169321AA414602F05EFCBD
:1019600000287FF4B8A9239C169B0DF1B80AFFF755
:10197000E5B9229B7C4ACAF80020013301340122D8
:10198000072B23942293CAF8042000F364810AF100
:10199000080A002961D1069B0F9A03F00103134343
:1019A0003FF412AA139B14991A19CAE90013229B37
:1019B00023920133072B229300F366810AF1080A70
:1019C0000F99CAF8006001338C18072BCDE9223437
:1019D000CAF804107FF7F6A93BE59DF86740FFF7CA
:1019E0009CBA01332C44072BCAF80070CAF8045083
:1019F000CDE922347FF7E6A92BE50C9821AA4146D0
:101A000002F00CFC00287FF466A9239C0DF1B80AB3
:101A1000FFF7F9BB0C9821AA414602F0FFFB002812
:101A20007FF459A9239C0DF1B80AFFF7B2B90C98BD
:101A300021AA414602F0F2FB00287FF44CA9239C26
:101A40000DF1B80AFFF7F5BB062B28BF0623474E5A
:101A50000B930D940793FFF75AB9139B14981A1917
:101A6000CAE90003229B23920133072B229300F340
:101A70000B810AF1080A0029A2DA4D421031394FD0
:101A800080F2BB81DDF830B0102405E00AF1080ACD
:101A9000103D102D40F3B18101331032072BCAE9FC
:101AA0000074CDE92232F1DD21AA4146584602F008
:101AB000B5FB00287FF40FA9DDE922320DF1B80A49
:101AC000E6E7C846DDF82090CAF8007001353444D6
:101AD000072DCDE92254CAF804607FF7ABACE4E5EA
:101AE0001FA904911CA903911BA9089C0291032121
:101AF0003B460194079A0C98009100F0CBFA0646F9
:101B000004193378302B00F090811B9B1C440798FC
:101B100039460022002306F0BFF8002840F0AE80CE
:101B20001F9BA34206D230215A1C1F9219701F9B83
:101B30009C42F9D89B1B0F930B9B472B1FD0662D04
:101B400040F0D6811B9B0E93002B0BF0010B40F352
:101B5000EC8008995BEA010240F098810E9B0793A4
:101B60000B9321E014A6000824A900081CA9000872
:101B70001F9B9B1B0F930B9B472B40F0B9811B9B1B
:101B80000E93D91C1BDB089A934218DCDDE90E3258
:101B90009342C0F207811BF0010F40F06E8123EAEF
:101BA000E37207920B936725169B002B00F0CA8007
:101BB0002D238DF8673000230893FFF76DB9023DA0
:101BC0000E9A8DF87450531E002B1B93B6BFC2F1B2
:101BD00001032B222D22092B8DF875206EDC30336A
:101BE0008DF8773030238DF87630042315930F9AD3
:101BF000159B012A13440B9340F336810B9B139AD8
:101C000013440B9323EAE373079300230E93CBE76C
:101C10004246089EB846174601332C44072BCDE9AF
:101C20002234CAF80070CAF804503BDC0AF1080AF2
:101C3000D5E42D248DF86740FFF71DB90C9821AA33
:101C4000414602F0EBFA00287FF445A81B9D239C37
:101C50000DF1B80AD6E40C9821AA414602F0DEFA4A
:101C600000287FF438A81B99239C0DF1B80A90E650
:101C70002D23079102F100471693BEE5234659E74D
:101C80008DF86700FFF737B80C9821AA414602F09B
:101C9000C5FA00287FF41FA8DDE922321B990DF157
:101CA000B80AE8E60C9821AA414602F0B7FA0028E3
:101CB0007FF411A8239C0DF1B80A90E40DF1830480
:101CC0008D4F2246104687FB0321DA17C2EBA10293
:101CD00002EB8201A3EB4101303100F8011C1946EF
:101CE0006329134600F1FF32ECDC3033D9B2831E96
:101CF0009C4202F8011C40F2F08013460DF176027E
:101D000001E013F8011B02F8011B9C42F9D10DF10F
:101D100085030DF176021B1A13441DAA9B1A159315
:101D200065E7DDF818B0FFF7FDB8089A5BEA020333
:101D300040F0B480012307930B9335E7472D3FF420
:101D40007BAD7DE5169B9DF867400893FFF7A1B832
:101D50000C9821AA414602F061FA00287EF4BBAF3C
:101D6000239C0DF1B80A33E40623089339E50C9857
:101D700021AA414602F052FA00287EF4ACAF1B9D26
:101D80000F9B239C5D1B0DF1B80A53E4089B0D9437
:101D9000CDF818B09DF8674007930B9308900E900C
:101DA000FFF777B8139A0F9B13440E9A0B93002AF0
:101DB0007CDD23EAE37307936725F5E68DF867007A
:101DC000FFF75CB98DF86700FFF728B8002208928A
:101DD000FEF7B6BE8DF86700FFF780B88DF8670094
:101DE000FFF7E3B88DF86700FFF722B98DF86700B9
:101DF000FFF79DB9C846FEF76EBF01332A44072B93
:101E0000CDE92232CAF80070CAF804507FF7D6AD87
:101E10000C9821AA414602F001FA00287EF45BAF3B
:101E2000DDE922320DF1B80ACAE5079839460022E9
:101E3000002305F031FF00287FF467AE089BC3F153
:101E400001031B9362E6119B2C4E002BB8BF2D247F
:101E50002BF080030693A8BF9DF86740284BB8BFBE
:101E60008DF86740FFF70CB81BF001020E927FF46B
:101E7000C5AE23EAE373079396E60E9B139A1344C9
:101E80000B9323EAE373079367258DE6139A1344B4
:101E9000194421EAE1730B91079385E6139B013303
:101EA0001A4422EAE2730B9207937DE60E9B0B9A8B
:101EB000C3F101031A4422EAE2730B9207936725E8
:101EC00072E60D9A99F80150894652F8041B0D925A
:101ED00041EAE1710891FEF731BE0223159386E6CF
:101EE0000C9A0C2313604FF0FF330993FEF7FCBEEE
:101EF0001B9B0E9364E600BF67666666ECA800084D
:101F0000F0A8000870B4184C2568D5F848411CB3F7
:101F100065681F2D25DC38B9AB1C0135656044F8B8
:101F20002310002070BC704704EB850C0228CCF80D
:101F30008820D4F888614FF0010202FA05F246EADF
:101F40000206C4F88861CCF80831E5D1D4F88C31A8
:101F50001343C4F88C31DFE705F5A674C5F8484192
:101F6000D6E74FF0FF30DDE700A6000800000000D4
:101F70002DE9F04F03690C69A34283B0C0F286805B
:101F8000013C01F11405A30000F11408009355F879
:101F9000243058F8242001338A469A4208EB840101
:101FA000814605EB84070191B2FBF3F638D3002399
:101FB000AE4640469B465EF8041B02681FFA81FC51
:101FC00006FB0C33090C4FEA134C06FB01CC99B20B
:101FD000ABEB01011FFA8CF311FA82F1C3EB124251
:101FE00002EB214289B241EA0241774540F8041BE5
:101FF0004FEA1C434FEA224BDDD2009B58F80330D6
:1020000073B9019B043B984504D307E0984504F15C
:10201000FF3403D253F80429002AF7D0C9F810403E
:102020005146484601F016FE00282BDB013640469B
:10203000002355F8041BD0F800C08AB29A1A0B0C82
:1020400012FA8CF2C3EB1C4303EB224392B242EA36
:102050000342AF4240F8042B4FEA2343E9D258F839
:10206000242008EB84036AB9043B984504D307E0B5
:10207000984504F1FF3403D253F80429002AF7D01D
:10208000C9F81040304603B0BDE8F08F002003B01F
:10209000BDE8F08F2DE9F04F016C99B0904699465C
:1020A000CDE90489259D044641B1426C4A60012373
:1020B00093408B6001F018FB00232364B9F1000A00
:1020C000B4BF012300232B60754BBCBF2AF0004A2C
:1020D000CDF814A033EA0A0300F0AA80DDE9042356
:1020E0001046194600220023CDE90A0105F0D4FD6F
:1020F000074670B1249A01231360269B002B00F041
:10210000E28268481860431E0393039819B0BDE843
:10211000F08F16AB019317AB00932046DDE90A233D
:1021200001F0E8FE5FEA1A56054640F09780DDE9C7
:1021300016763E4406F23240202840F3B383C0F1C5
:1021400040000AFA00FA06F2124028FA00F04AEAC1
:102150000000FEF7BBF90123013EA1F1F8710F93D6
:10216000514B0022FEF774F847A3D3E9002305F092
:102170002BFB47A3D3E90023FEF76CF880463046DB
:102180008946FEF7B3F944A3D3E9002305F01CFB0D
:1021900002460B4640464946FEF75CF880468946B3
:1021A00005F0C2FD0022834600234046494605F063
:1021B0007DFD002840F07A82BBF1160F00F26982A3
:1021C0003A4B03EBCB03D3E90023DDE90A0105F029
:1021D0006DFD002870D00023BE1B0E93731E0BF103
:1021E000FF3B069300F15C8200230993BBF1000FD3
:1021F00069DA099BCDF81CB0A3EB0B030993CBF173
:1022000000030D93229B092B4FF0000B64D8052B84
:1022100040F34683043B22930026229B023B032B80
:1022200000F26686DFE813F05A0457044E043104C6
:10223000249A42F20F73CAF3130A13605AEA08038E
:102240001AD1269B002B00F06286194B03930833AA
:10225000269A0398136019B0BDE8F08FDDE90A12E1
:10226000C2F31303084643F07F510F97A6F2FF36DF
:10227000169F41F4401173E7269B002B40F0E88342
:102280000C4B039341E700BF61436F63A787D23FC5
:10229000B3C8608B288AC63FFB799F501344D33F55
:1022A0000000F07F25A900080000F83F38A60008CC
:1022B0002CA9000828A90008BE1B731E069300F174
:1022C00085840E900990069B5B44CDE9063B002374
:1022D0000D93229B092B9AD90023CDE922330126A5
:1022E0004FF0FF330C960893089B12930021616412
:1022F000204601F0D3F90390002800F00186039BEB
:102300002364089B0E2B00F21381002E00F0108135
:102310000799002940F35C84AE4B01F00F0203EBF8
:10232000C2034FEA2118C905D3E9006740F11484BC
:10233000A94BDDE90A01D3E9082305F06FFBCDE9DC
:10234000100108F00F084FF0030AB8F1000F13D086
:10235000DFF8849218F0010F09D030463946D9E9E8
:10236000002305F031FA0AF1010A06460F465FEA3A
:10237000680809F10809EDD1DDE9100132463B4654
:1023800005F04CFB804689460E9B43B1934B0022DF
:102390004046494605F08AFC002840F0308550460A
:1023A000FEF7A4F842464B4605F00EFA8C4B00228D
:1023B000FDF750FFA1F15073CDE910011193089B77
:1023C000002B00F09780079B1493089B13930C9BA2
:1023D000002B00F0A584139A7E4B8249039E03EBE9
:1023E000C20353E90223002005F018FBDDE91023A6
:1023F000FDF72EFFCDE910014946404605F094FC5B
:102400000746FEF773F802460B4640464946FDF77D
:102410001FFF3037DDE9102306F8017B804689462F
:1024200005F044FC002840F02985CDF854B0002781
:10243000DDE910AB1095139D13942AE00137AF42EC
:1024400080F22C85684B50465946002205F0BCF9B5
:10245000654B002282468B464046494605F0B4F95A
:102460008946804605F060FC0446FEF73FF80246C8
:102470000B4640464946FDF7EBFE303406F8014B6B
:1024800052465B468046894605F010FC002840F025
:10249000F38442464B4651490020FDF7D9FE52468F
:1024A0005B4605F003FC0028C8D0DDE91343109D0E
:1024B000039A079302E0964200F0C884B24616F8E9
:1024C000013D392BF7D00133DBB23370079B013369
:1024D0000793C8E15046FEF709F842464B4605F01F
:1024E00073F93F4B0022FDF7B5FEA1F15073CDE922
:1024F000100111933D4B404649460022FDF7A8FECE
:10250000DDE910894B46424606460F4605F0ECFBD6
:102510008146002840F0AA84DDE91001024601F15D
:1025200000433046394605F0C1FB002840F04583A2
:10253000179B002BC0F28C80079A0E2A00F388802C
:10254000244B03EBC203D3E900AB239B002B1BDA24
:10255000089B002B18DC40F02E83244B00225046B1
:10256000594605F031F902460B46DDE90A0105F04E
:10257000A7FBDDF820904E46002800F0C782239B81
:10258000DDF80C80DF43C9E2DDE90A7852465B469C
:102590003846414605F042FA05F0C6FB81460990EF
:1025A000FDF7A4FF52465B4605F00EF9039E0B466D
:1025B000024641463846FDF74BFE09F1300306F866
:1025C000013B089B012B00F05C83069401270495D6
:1025D0001C462AE038A6000828A700080000F03FA3
:1025E00000001C400000E03F0000244000001440B8
:1025F00052465B464046494605F010FA05F094FB0A
:102600000546FDF773FF52465B4605F0DDF80137DE
:102610000B46024649464046FDF71AFE05F13003D7
:10262000A74206F8013B00F02983AC4B002205F0DD
:10263000CBF8002200238046894605F02DFB0028B8
:10264000D6D0049D069C079B01330793B2460AE14E
:102650000C9A002A3DD0229A012A40F39C82089BC2
:1026600003F1FF380D9B4345C0F26D82A3EB0808D0
:10267000089B002BC0F23C83069A1A440692099AE2
:1026800017461A4409920121204601F02FF9064607
:1026900023E00123BE1B0E93731E06937FF5A4ADAA
:1026A000C6F101030993002306939FE55846FDF701
:1026B0001DFF42464B4605F0EFFA00287FF47CAD43
:1026C0000BF1FF3B78E5864B0393039819B0BDE807
:1026D000F08FDDF83480099F0C9E002F0CDD0699E9
:1026E00000290B4608DD099AB942A8BF3B46D21A19
:1026F000FF1ACB1A099206930D9BDBB10C9B002BA2
:1027000000F05D82B8F1000F0FDD314642462046F1
:1027100001F0C8F92A4601460646204601F014F9A0
:1027200029460546204600F0DFFF0D9BB3EB08026B
:1027300040F0D8820121204601F0D8F8BBF1000F0B
:10274000814600F3B480229B012B40F386814FF039
:10275000000A0120BBF1000F40F0B580069A10443A
:1027600010F01F0000F09380C0F12003042B40F311
:10277000D283099BC0F11C0003440244099307441F
:102780000692099B002B05DD29461A46204601F0DA
:10279000E9F90546069B002B05DD49461A46204609
:1027A00001F0E0F981460E9B002B40F03681089B3A
:1027B000002B40F31D810C9B002B40F0A080079B59
:1027C00001330793DDF80C80DDF820A0012707E036
:1027D000294600230A22204600F090FF01370546D3
:1027E00049462846FFF7C4FB574500F1300308F877
:1027F000013BEDDB089A002AC8BF9346039AD8BF75
:102800004FF0010B934400272946012220460493F0
:1028100001F0A8F94946054601F01CFA002840F3EA
:10282000A8811BF8013C039A0BF1FF3B04E05A45D9
:1028300000F0AA811BF8013D392B0BF1010AF6D0FB
:1028400001338BF800304946204600F04DFF56B169
:102850002FB1B74203D03946204600F045FF31463C
:10286000204600F041FF2946204600F03DFF0023AE
:102870008AF80030249B079A1A60269B002B3FF4AD
:1028800044AC0398C3F800A019B0BDE8F08F1C2039
:10289000099B03440993069B03440744069370E78E
:1028A0000126BAE4C0F1200008FA00F051E4014624
:1028B0005A46204601F0F6F8229B012B814640F350
:1028C000B3814FF0000AD9F8103009EB830318697F
:1028D00000F0BEFFC0F1200040E700BF0000244030
:1028E00024A90008314600230A22204600F006FFF2
:1028F000129B002B064640F3E782CDE90783002FA9
:1029000000F31A81BAF1000F40F0D581B046049B64
:10291000039F089903F001027B1E1944229B0C922D
:10292000134309910A9349462846FFF721FB314694
:102930008346284601F08EF94246494682462046A3
:1029400001F0A8F9C26801460BF13003002A42D118
:1029500006902846089301F07DF9069904902046D8
:1029600000F0C2FE049A089B1AB90A99002900F0E7
:102970009B82BAF1000FC0F2638122994AEA010AF0
:102980000C9951EA0A0100F05B81002A00F3B4813E
:10299000099A3B7007F1010A9742D34600F0B281D1
:1029A000294600230A22204600F0A8FE4645054697
:1029B00031464FF000034FF00A02204612D000F0DB
:1029C0009DFE4146064600230A22204600F096FE60
:1029D00057468046A7E72046049300F085FE049BF7
:1029E0000122C6E700F08AFE5746064680469AE76F
:1029F000229B022B79DC0C9B002B80D1079B494644
:102A0000013328460793FFF7B3FADDF80CB000F165
:102A100030030BF8013B0027F6E64946284601F053
:102A200019F90028BFF6C3AE294600230A22204622
:102A300000F064FE079B03F1FF380C9B0546002B5A
:102A40007FF450AF129B002B40F335820893B9E618
:102A5000AF4B03930333FFF7FBBBDDE904120029FF
:102A60007FF475AEC2F31303002B7FF470AEA94B55
:102A70001340002B00F0FE81099B01330993069B54
:102A8000013306934FF0010A63E601230C93239B65
:102A9000079A134412930133012B1F460893B8BFC2
:102AA00001270021172F61647FF722AC0122042344
:102AB0005B0003F11400B842114602F10102F7D99C
:102AC000616415E401230C93239B002B4CDD1293CE
:102AD00008931F46E5E700230C93D8E700230C93E7
:102AE000F2E7129BCDF81C800893089B002B7FF423
:102AF00046AD49460522204600F000FE01468146CB
:102B0000284601F0A7F800287FF739AD0398079F02
:102B10003123804600F8013B0137039049462046A7
:102B200000F0E2FD7B1CDDF80CA00793CDF80C80D3
:102B3000002E7FF494AE96E631463A46204601F0E8
:102B400011F80646DEE60D9BCDF83480A8EB0303B2
:102B50009B444FF000088BE5DDE90A234FF0020AA1
:102B6000CDE91023FFF7F1BB012323930893FFF76F
:102B7000BBBB03D1049BDB073FF553AEDA461BF822
:102B8000013D302BFAD05EE6079B039A0133079391
:102B90003123137057E60F9A002A00F0268103F2C2
:102BA0003343069ADDF834801A440692099A174690
:102BB0001A44099267E54FF000094E46DFE42946C2
:102BC0000D9A204600F06EFF0546B3E50E9067E5CE
:102BD00000F00F81079A504B564206F00F0203EBAC
:102BE000C203D3E90023DDE90A0104F0EDFD36114B
:102BF0008046894600F07181484F00234FF0020A59
:102C0000F20706D5D7E9002304F0DEFD0AF1010A38
:102C10000123761007F10807F2D1002B3FF4B4AB83
:102C200080468946FFF7B0BB049B002B7FF449AE7A
:102C3000DDE90412C2F31303002B3FF418AF40E6A2
:102C4000002A12DD294601222046049300F08AFF63
:102C50004946054600F0FEFF0028049B40F318811A
:102C6000392B00F0F9800BF13103BA460AF8013B29
:102C7000079B0133374607934646E4E50995069CD2
:102C8000049D02460B46FDF7E5FA52465B46804638
:102C9000894605F029F860B952465B4640464946E8
:102CA00004F0FAFF00283FF4CEAC099BD9077FF56A
:102CB000CAAC039A02E47168204600F0EFFC0746B4
:102CC000002800F00E81336902339A0006F10C01EE
:102CD0000C3000F045FC39460122204600F042FF4E
:102CE000804614E62946204600F0DCFE054621E534
:102CF000DDE908239F1AC6E4392B00F0AD80BA46FF
:102D00000133B3E7079A01323746079246467BE51F
:102D100028A900080000F07F38A6000828A70008AE
:102D2000DDF84CA0844901EBCA01DDE9102351E92B
:102D3000020104F049FDCDE910014946404604F086
:102D4000F3FF0646FDF7D2FB0B46024649464046D6
:102D5000FDF77EFA039F53463036012B07F8016BCF
:102D60008046894600F0AE80139E039B1E44734B41
:102D700000224046494604F027FD8946804604F07B
:102D8000D3FF8246FDF7B2FB0AF1300A02460B463A
:102D900040464946FDF75CFA07F801ABB74280466A
:102DA0008946E4D1664B0022DDE91001FDF752FAB5
:102DB00042464B4604F07AFF002864D1DDE9102337
:102DC0005F490020FDF744FA42464B4604F08CFF71
:102DD00000283FF4ADABB246013E1AF8013C302B5F
:102DE000F9D0149B013307933DE5169BC3F13603DD
:102DF000D7E6DDE90A894FF0020AFFF7C5BA089B5A
:102E0000002B3FF467AB129B002B7FF791AB079A27
:102E1000013ACDE913324046484B0022494604F0BE
:102E2000D3FC804689460AF10100FDF75FFB42466C
:102E30004B4604F0C9FC434B0022FDF70BFAA1F10D
:102E40005073CDE910011193FFF7C1BA079B01330D
:102E500007933123FFF739BB079BBB460133079329
:102E6000392337460BF8013B4646DCE44FF00009B6
:102E70004E464BE69A466CE4109D139C149B01331E
:102E80000793B246EFE4149B039A0793FFF716BB30
:102E90007FF4EBAEDA077FF5E8AEE1E6DDF854B09B
:102EA000109D139CFFF744BB392BD5D0BAF1000F0E
:102EB0003FF7D9AED9E6229B022B3FF712AECDF8F1
:102EC0001C809BE53E466DE7229B022B3FF709AE37
:102ED000129BCDF81C80089311E54FF0020AFFF712
:102EE00053BA194B19483A4640F2EA2101F040FF23
:102EF000002666643146204600F0D0FB039078B986
:102F0000114B124800224FF4D57101F031FF104BE4
:102F10000393FFF7FAB83FF434ACC0F13C00B7E4D8
:102F2000039B236401224FF0FF33239612930C92EC
:102F30000893FFF7FDBA00BF38A600080000244040
:102F40000000E03F00001C4038A900084CA9000820
:102F50002CA90008F0307047004870473009002065
:102F600000487047300900202DE9F04F01F10B06B1
:102F7000162E83B0044624D8102900F2BA8000F03F
:102F800089FB102618220220B74F3A44A2F108010B
:102F900053688B4200F0BA805A68D96822F0030265
:102FA0001A449D68E9608D60516841F00101204636
:102FB000516003F1080500F06FFB284603B0BDE83F
:102FC000F08F36F0070600F19480B14200F2918054
:102FD00000F060FBB6F5FC7FC0F09681730A00F04C
:102FE0008F80042B00F26B81B30903F1390003F1E8
:102FF000380CC3009C4F3B44A3F108055B689D421D
:1030000006D10CE0002980F22B81DB689D4206D0BE
:103010005A6822F00302911B0F29F3DD60463D69D7
:10302000DFF848C265457CD06A6822F00302931B32
:103030000F2B00F37781002BC7E904CC80F2688165
:10304000B2F5007F80F01681D308796801334FEA2A
:10305000521E012202FA0EF20A4357F833E0C5F875
:1030600008E007EBC3010839E9607A6047F833509C
:10307000CEF80C50831001219940914257D811424B
:1030800006D120F003004900114200F10400FAD0FB
:1030900007EBC0094D468646D5F80C80454508D15A
:1030A00019E1002B80F22081D8F80C80454500F012
:1030B0001281D8F8042022F00302931B0F2BF0DDBD
:1030C0002046D8E9025408EB060146F00106C8F88C
:1030D0000460EC60A56043F00104C7E90411C1E994
:1030E00002CC4C6048F8023000F0D6FA08F108052E
:1030F00002E00C2323600025284603B0BDE8F08FD2
:103100004FF4007340204FF03F0C73E7D3689A42AE
:1031100008BF02307FF440AF3D69DFF850C165451C
:1031200082D17A688310012199409142A7D9BD6864
:103130006B6823F00308464503D8A8EB06030F2B62
:103140007EDCDFF82C91D7F80824D9F80030013262
:10315000334405EB080A00F02F8103F580530F3349
:1031600023F47F6B2BF00F0B5946204600F0CCFF69
:10317000411C024600F0EF80824500F2EA80D9F857
:1031800004105944C9F804100B4600F04B81D7F8DD
:10319000081401311BBFA2EB0A0A5344C7F80824E4
:1031A000C9F8043012F0070300F01281C3F10801DE
:1031B0000A44C3F5805193440831A1EB0B01C1F3DC
:1031C0000B0A514620460192009300F09DFF421CDD
:1031D000DDE9003200F04B81831A03EB0A0BD9F8CA
:1031E0000400BA604BF001030AEB0001BD425360DA
:1031F000C9F8041000F02281B8F10F0F40F22081CD
:103200006B68A8F10C0020F0070003F001030343F2
:103210006B604FF0050C2B180F28C3E901CC00F2AE
:103220002D8153681546D9F82C208A42D9F83020D0
:1032300038BFC9F82C108A4238BFC9F830108CE06A
:10324000AA1943F0010346F001066E602046BA60F9
:10325000536000F021FA0835284603B0BDE8F08F2E
:10326000D9681A449DE600BF3004002038040020CD
:10327000D4090020B2F5206F4FEA522363D3142BF8
:1032800000F2B88003F15C01C9005B3307EB010E6B
:103290007958AEF1080E8E4500F091804B6823F00E
:1032A0000303934202D989688E45F7D1D1F80CE027
:1032B0007A68C5E9021ECEF80850CD60DAE6142B14
:1032C00059D9542B00F29E80330B03F16F0003F1A8
:1032D0006E0CC3008EE60EF1010E1EF0030F05F119
:1032E00008057FF4D9AE51E0424445465368D8F80A
:1032F0000C1043F00103536055F8083F2046D96095
:103300008B6000F0C9F9F7E6F00806F108023BE629
:103310002A442046536843F001035360083500F007
:10332000BBF9E9E6A919204646F0010643F001047D
:103330006E60C7E90411C1E902CC4C60AB5000F0EB
:10334000ABF90835D8E6930903F13901C9003833E0
:103350009CE7BD4260D0BD686B6823F0030B5E45FF
:10336000ABEB060302D80F2B3FF76AAF204600F005
:1033700093F90025C0E603F15C0003F15B0CC30088
:1033800038E659F808394B4540F0968010F0030FA5
:1033900000F1FF30F5D17B6823EA01037B6049002F
:1033A00099423FF6C4AE19B9C1E649000EF1040EC8
:1033B0001942FAD070466BE603F1100BD4E69A106E
:1033C0004FF001087B6808FA02F21A437A6070E74E
:1033D00002EB0B014942C1F30B0A5146204601930F
:1033E000009200F091FE431CDDE900237FF4F4AE6F
:1033F0009A46F4E6542B26D8130B03F16F01C9004B
:103400006E3343E7B3F5AA7F26D8F30B03F17800B8
:1034100003F1770CC300EDE5D9F804305B44C9F83B
:103420000430B4E6CAF30B0000287FF4B0AEBD68E8
:1034300008EB0B0343F001036B60F4E61546F2E67C
:103440000123536092E7B3F5AA7F21D8D30B03F190
:103450007801C900773319E740F25452934221D8DA
:10346000B30C03F17D0003F17C0CC300C2E5083B03
:103470009B44ABEB020B4FF0000AB0E605F10801EC
:10348000204601F03DFDBD68D9F804106B68CAE61E
:1034900040F254518B420BD8930C03F17D01C900CB
:1034A0007C33F3E64FF47E737F204FF07E0CA1E572
:1034B0004FF47E717E23E9E67B6870E70000000030
:1034C00001F0FF01102A2BDB10F0070F08D010F8D5
:1034D000013B013A8B422DD010F0070F42B3F6D1D9
:1034E000F0B441EA012141EA014122F007047FF0F2
:1034F00000070023F0E80256083C85EA010586EA49
:10350000010685FA47F5A3FA87F586FA47F6A5FA84
:1035100087F68EB9EED1F0BC01F0FF0102F0070290
:1035200032B110F8013B013A83EA010313B1F8D13B
:103530000020704701387047002D06BF354603381C
:10354000073815F0010F07D1013015F4807F02BF55
:10355000013015F4C03F0130F0BC0138704700BFA6
:10356000844641EA000313F003036DD1403A41D38E
:1035700051F8043B40F8043B51F8043B40F8043B4D
:1035800051F8043B40F8043B51F8043B40F8043B3D
:1035900051F8043B40F8043B51F8043B40F8043B2D
:1035A00051F8043B40F8043B51F8043B40F8043B1D
:1035B00051F8043B40F8043B51F8043B40F8043B0D
:1035C00051F8043B40F8043B51F8043B40F8043BFD
:1035D00051F8043B40F8043B51F8043B40F8043BED
:1035E00051F8043B40F8043B51F8043B40F8043BDD
:1035F000403ABDD2303211D351F8043B40F8043B7D
:1036000051F8043B40F8043B51F8043B40F8043BBC
:1036100051F8043B40F8043B103AEDD20C3205D38C
:1036200051F8043B40F8043B043AF9D2043208D084
:10363000D2071CBF11F8013B00F8013B01D30B88F6
:1036400003806046704700BF082A13D38B078DD0D4
:1036500010F003038AD0C3F10403D21ADB071CBFA6
:1036600011F8013B00F8013B80D331F8023B20F810
:10367000023B7BE7043AD9D3013A11F8013B00F849
:10368000013BF9D20B7803704B7843708B788370D1
:1036900060467047704700BF704700BFC36C70B58D
:1036A00005460C464BB153F8240080B1026843F83C
:1036B00024200023C0E9033370BD2122042101F03E
:1036C0007DFB0346E8640028EDD1002070BD012198
:1036D00001FA04F6721D9200284601F06FFB0028E3
:1036E000F3D0C0E90146E4E731B1C36C4A6853F84E
:1036F0002200086043F82210704700BF2DE9F04116
:103700000D6907460E461C4601F1140E0020DEF836
:1037100000108BB202FB03434FEA134C090C02FB6F
:1037200001CC01309BB203EB0C4385424EF8043BC5
:103730004FEA1C44EBDC3CB1B368AB4207DD06EB5F
:10374000850301355C6135613046BDE8F081716803
:1037500038460131FFF7A2FF8046A8B13269023234
:1037600006F10C0192000C30FFF7FAFEFB6C726858
:1037700053F82210316043F82260464606EB850379
:1037800001355C613561DFE7024B03484246B521F4
:1037900001F0EEFA38A9000880A900082DE9F843E5
:1037A0000C4628491E46174603F1080281FB0231E8
:1037B000092E4FEAE2730546C3EB610339DD4FF092
:1037C000010C00214FEA4C0C634501F10101F9DCC9
:1037D0002846FFF763FF014668B3089B4361092F42
:1037E0004FF00103036112DC0A340927BE420BDDEE
:1037F000F61B264414F8013B0A22303B2846FFF70B
:103800007DFFA6420146F5D10846BDE8F88304F1E4
:103810000909C8463C4418F8013B0A22303B2846B7
:10382000FFF76CFFA0450146F5D1A7F108044C4411
:10383000DCE70021CCE70A46034B0448CE2101F027
:1038400097FA00BF398EE33838A9000880A900082C
:10385000020C12040346CAB90304102013F07F4F70
:1038600004BF1B02083013F0704F04BF1B0104306B
:1038700013F0404F04BF9B000230002B05DB13F018
:10388000804F00F1010008BF202070470020E5E7CD
:103890000368024613F0070007D0D9071DD4980724
:1038A0001FD55B0813600120704799B209B91B0C42
:1038B0001020D9B209B908301B0A190704BF1B0927
:1038C0000430990704BF9B080230D90703D45B0872
:1038D00000F1010003D013607047002070472020E2
:1038E00070479B0813600220704700BF38B5C36C57
:1038F00004460D464BB15868B0B102685A600022C8
:103900000123C0E90435C26038BD2122042101F041
:1039100055FA0346E0640028EDD1094B094800221E
:103920004FF4A07101F024FA1C220121204601F07D
:1039300045FA0028F1D001220223C0E90123DEE785
:1039400038A9000880A900082DE9F04F0E69156913
:10395000AE4285B08846144605DB2A4623463546E6
:103960000C4616469846A3686168AF19BB42B8BFBB
:103970000131FFF793FE0190002800F08780019B42
:1039800003F1140909EB870AD14505D24B46002201
:1039900043F8042B9A45FBD808F1140808EB860B72
:1039A00004F11403D8451A4603EB85055FD22B1B9F
:1039B000153B23F0030304331534A54238BF042319
:1039C000CDE902A7AC461F46924605E0000C29D17E
:1039D000C34509F1040948D958F8040B85B2002DF4
:1039E000F4D056464C46002356F8040B216882B2A8
:1039F0001FFA81FE05FB02EE000C0A0C734405FB66
:103A0000002202EB13429BB243EA0243B44544F85E
:103A1000043B4FEA1243E7D849F8073058F8040C42
:103A2000000CD5D0D9F80030544619464D46002236
:103A30002688090C00FB06110A449BB243EA0243A4
:103A400045F8043B54F8046B2968360C8BB200FB34
:103A5000063303EB1243A4454FEA1342E8D8C345AB
:103A600049F8073009F10409B6D8DDE902A7002FAB
:103A700002DC05E0013F03D05AF8043D002BF9D0E9
:103A8000019B18461F6105B0BDE8F08F034B044849
:103A9000019A40F25D1101F06BF900BF38A90008EE
:103AA00080A9000812F003032DE9F04114460646F0
:103AB00032D10D46A41020D0D6F84880B8F1000FBE
:103AC00033D0E3074FF0000707D4641015D0D8F8BF
:103AD0000000A8B18046E307F7D5424629463046A4
:103AE000FFF732FFB5B16968F36C641053F8212019
:103AF0002A6043F821500546E9D12846BDE8F08107
:103B0000424641463046FFF71FFFC8F800000760F5
:103B10008046E0E70546D8E7013B0F4A52F82320EC
:103B20000023FFF7EBFD0546C4E701213046FFF710
:103B3000B5FD804640B1012340F27122C0E9043254
:103B40000023B0640360BCE7044B054842464FF4D1
:103B5000A07101F00DF900BF28A6000838A90008DF
:103B600080A900082DE9F0470C4690462669A36815
:103B7000496806EB6216751C9D4207464FEA6219BA
:103B800004DD5B009D4201F10101FADC3846FFF7DC
:103B900085FD8446002851D0B9F1000F00F11400D2
:103BA0000EDD09F105024FEA820E03460CEB82029C
:103BB000002143F8041B9342FBD1AEF114031844D7
:103BC000216904F1140318F01F0803EB81012DD0C3
:103BD000C8F1200986464FF0000A1A6802FA08F276
:103BE00042EA0A024EF8042B53F8042B994222FAB7
:103BF00009FAF2D80B1B153B23F00303043304F13D
:103C00001502914238BF0423BAF1000F18BF2E46A7
:103C100040F803A0FB6C6268CCF8106053F82210E7
:103C20002160604643F82240BDE8F087043853F82D
:103C3000042B40F8042F9942F9D8EBE7034B0448D2
:103C4000624640F2D91101F093F800BF38A900088C
:103C500080A900080B6984460069C01A15D10CF1CF
:103C6000140C14310CEB830210B401EB830301E05C
:103C7000944508D252F8044D53F8041D8C42F7D0F5
:103C800004D24FF0FF3010BC70477047012010BCC9
:103C9000704700BF2DE9F84F0F691369FF1A002F15
:103CA0000E4690467AD101F11405143202EB8302DC
:103CB00005EB830301E09D4273D253F8041D52F8D3
:103CC000044DA142F7D064D37168FFF7E7FC814649
:103CD000002872D03569D8F81020C76008F1140E9A
:103CE00006F1140009F1140A06F1100C0EEB820221
:103CF00000EB8507564600215EF8044B5CF804BFD4
:103D0000A3B211FA8BF1CB1A210CC1EB1B4101EBD1
:103D100023419BB243EA0143724546F8043B4FEA14
:103D20002141E9D8A2EB0804153C08F115084245E9
:103D300024F0030606F1040638BF0426304424F0BC
:103D4000030238BF002287425244B24416D9564675
:103D5000044654F8043B11FA83F10A1402EB1342AF
:103D600089B241EA0243A74246F8043B4FEA2241A6
:103D7000EFD87A1E101A20F00302524423B952F8E9
:103D8000043D013D002BFAD0C9F810504846BDE86B
:103D9000F88F334601274646984695E7F9DB00271A
:103DA00092E70021FFF77AFC814668B101220023E7
:103DB000C9E904234846BDE8F88F074B07484A463F
:103DC0004FF4107100F0D4FF034B04484A4640F210
:103DD000322100F0CDFF00BF38A9000880A90008FB
:103DE0000F4B0B40A3F15073002B02DD002019464E
:103DF00070475B42B3F1A07F4FEA235205DA4FF4DC
:103E00000023002043FA02F17047143A1E2ADABF59
:103E10004FF0004323FA02F20122002110467047BE
:103E20000000F07F2DE9F843066900F1140808EB63
:103E30008606A6F1040956F8047C3846FFF708FD0B
:103E4000C0F120030A280B6036DDC8451ED2B0F150
:103E50000B0356F8082C26D0C3F1200C22FA0CF1E3
:103E60009F400F43A6F1080147F07F55884545F470
:103E700040153AD202FA03F056F80C3C23FA0CF340
:103E800003431C4620462946BDE8F883B0F10B03E6
:103E900008D007FA03F343F07F55002345F440159B
:103EA0001C46EFE71A4647F07F5545F44015144687
:103EB00020462946BDE8F883C0F10B0327FA03F238
:103EC000C84542F07F553CBF56F8082CDA4000F157
:103ED000150328BF002207FA03F345F4401543EA0F
:103EE000020420462946BDE8F88302FA03F31C4683
:103EF000C8E700BF70B5012182B016461D46FFF726
:103F0000CDFB044600284BD02B46C5F30A55C3F31E
:103F100013030DB143F48013002E019322D06846A1
:103F20000096FFF7B5FC002836D0019B0099C0F140
:103F3000200203FA02F20A43C34001936261002B9C
:103F400014BF02210121A3612161ADB1069AA5F23E
:103F5000334303441360079BC0F1350018602046CB
:103F600002B070BD01A8FFF793FC019B0121C4E9D9
:103F700004132030002DE9D104EB8102A0F232437A
:103F80001069069A1360FFF763FC079BC0EB4111B1
:103F90002046196002B070BDDDE900236261CEE702
:103FA000034B0448224640F20A3100F0E1FE00BF14
:103FB00038A9000880A900082DE9F04383B00F4616
:103FC00069468046FFF72EFF04460D46384601A994
:103FD000FFF728FFD8F810303A690F469A1ADDE942
:103FE0000013CB1A03EB4213002B06460BDD05EB47
:103FF00003594D4632463B462046294603F00EFD06
:1040000003B0BDE8F083C3EB033307EB03510F4666
:10401000F0E700BF172870B506460ADD0849094DCC
:104020000020002422462B4603F0CEFB013EF9D1AE
:1040300070BD054B03EBC006D6E9040170BD00BF9F
:104040000000F03F0000244028A600080139491173
:1040500001F1010C116902F1140303EB81018B42A0
:1040600000EB8C0C16D210B5A0F1040E53F8044BE3
:104070004EF8044F9942F9D88B1A153B23F00303ED
:1040800004331844844504D9002340F8043B844594
:10409000FBD810BD844505D9002340F8043B844576
:1040A000FBD87047704700BF03694A11934200F183
:1040B000140009DA00EB830302E053F8042DC2B9BF
:1040C0008342FAD80020704710DD11F01F010DD097
:1040D00010B450F8224000EB820324FA01F202FAF5
:1040E00001F18C420BD0012010BC704700EB820321
:1040F000E6E70120704753F8042D002AF3D18342EC
:10410000F9D8002010BC704738B5074D002204468E
:1041100008462A6004F0C2F8431C00D038BD2B6862
:10412000002BFBD0236038BD080A002000000000EF
:10413000000000000000000000000000000000007F
:1041400090F800F06DE9024520F007016FF0000CD7
:1041500010F0070491F820F040F049804FF000047F
:104160006FF00700D1E9002391F840F000F108005A
:1041700082FA4CF2A4FA8CF283FA4CF3A2FA8CF392
:104180004BBBD1E9022382FA4CF200F10800A4FAF9
:104190008CF283FA4CF3A2FA8CF3E3B9D1E904234D
:1041A00082FA4CF200F10800A4FA8CF283FA4CF384
:1041B000A2FA8CF37BB9D1E9062301F1200182FA3E
:1041C0004CF200F10800A4FA8CF283FA4CF3A2FA44
:1041D0008CF3002BC6D0002A04BF04301A4612BA52
:1041E000B2FA82F2FDE8024500EBD2007047D1E955
:1041F000002304F00305C4F100004FEAC50514F0E4
:10420000040F91F840F00CFA05F562EA05021CBFB4
:1042100063EA050362464FF00004A9E72DE9F04F79
:10422000936883B09146002B6DD017688D688046E7
:104230000C460868083743E0A38913F4906F2ED02A
:10424000D4E90415A0EB010A05EB450505EBD5758E
:104250000AEB06006D100130A8422A4684BF0546CD
:104260002A465B0536D511464046FEF77DFE0028FE
:104270003AD0524621690190FFF772F9A289019B59
:1042800022F4906242F08002A281A5EB0A0203EBC5
:104290000A006561A260236120603546B246594636
:1042A000524600F099FFD9F80830A16820684D1BEC
:1042B00050449E1BA5602060C9F808601EB30837F3
:1042C00057E902B6002EFAD0B542AA46B4D935460F
:1042D000B246E4E7404600F0FBFF03460028D4D195
:1042E0002169404600F00CFE0C23C8F80030A38979
:1042F000002243F040034FF0FF30A381C9E90122BF
:1043000003B0BDE8F08F0020C9F8040003B0BDE899
:10431000F08F00BF2DE9F04FABB0174606938B89A5
:104320001A068846834603D50B69002B00F0A58446
:104330001AAB0D930023CDE90E3309930DF16809F3
:1043400003935E463B78002B00F036813C4604E048
:1043500014F8013F002B00F05781252BF8D1E51B05
:1043600040F054812378002B00F0268100214FF08B
:10437000000263788DF82F20671C08464FF0FF3B42
:1043800005918A460137A3F12002582A00F258818C
:10439000DFE812F0AB0256015601A70256015601A2
:1043A00056015601560156019D02990256013601E9
:1043B000800256017C0259005900590059005900E9
:1043C000590059005900590056015601560156012D
:1043D0005601560156015601560156016202560118
:1043E0005601560156015601560156015601560115
:1043F0005601230156015601560156015601680027
:104400005601560116025601560156015601560133
:104410005601560156015601560107028501560103
:10442000560156015E02850156015601540256019D
:104430003E0225012D02E2015601C10156016A002A
:1044400056015601E601A3F13002002417F8013BA2
:1044500004EB840402EB4404A3F13002092AF5D9E9
:10446000059490E74AF0100A1AF0200100F0098143
:10447000069B073323F00703596853F8080B06938C
:1044800001234FF000028DF82F2000220792BBF18C
:10449000FF3F00F033822AF08002029250EA0102CC
:1044A00040F02A82BBF1000F40F00E84002B40F058
:1044B0008A831AF00103049300F0878330238DF878
:1044C00067300DF16704049A079B5A45B8BF5A46F6
:1044D000019213B1134601330193029B13F00203BF
:1044E000079302D0019B02330193029B13F08403D4
:1044F000089305D1059B019A9D1A002D00F3CB82EC
:10450000DDE90E219DF82F0080B101320DF12F0061
:104510000131C9F80000072A4FF00100CDE90E2152
:10452000C9F8040000F3F18209F10809079B7BB187
:1045300001320CAB0231C9F80030072A4FF00203F8
:10454000CDE90E21C9F8043000F3EC8209F1080925
:10455000089B802B00F00882049BABEB0305002D29
:1045600000F34582049BC9F8004001321944072A30
:10457000CDE90E21C9F8043000F3788209F1080969
:10458000029B5B0705D5059B019A9C1A002C00F342
:10459000D682039B059A01988242ACBF9B181B18D8
:1045A0000393002940F06E8200230E933B780DF1B7
:1045B0006809002B7FF4CAAE0F9B002B40F0A0834C
:1045C000B8F80C3013F0400F039B18BF4FF0FF33C7
:1045D000039303982BB0BDE8F08F4AF0100A1AF04D
:1045E000200141D0069B073323F00703596853F895
:1045F000080B0693002344E7059A5242CDE90523B0
:104600003B784AF0040ABDE6E51BD5D00F9B2B444E
:104610000F930E9B0133072BC9E900750E9305DC40
:1046200009F10809039B2B4403939BE60DAA41461D
:104630003046FFF7F3FD0028C2D10DF16809F1E71C
:10464000002940F06383002BB6D08DF840304FF046
:1046500000038DF82F3001230193049310ACCDF8A3
:1046600008A04FF0000B38E71AF0100347D11AF0FA
:10467000400144D0069A52F8040B0692194680B2C3
:10468000FFE61AF0100340D11AF040013DD0069A1F
:1046900052F8040B0692194680B20123F1E6002974
:1046A00040F04B831AF0200F069B00F0DF800733A9
:1046B00023F007031A465B6852F8080B0692194666
:1046C000002BC0F28E82BBF1FF3F00F0F9829DF813
:1046D0002F30079350EA01032AF0800A00F06D8220
:1046E0000A2871F1000380F09282303001238DF8A6
:1046F0006700CDF808A004930DF16704E3E6069B7C
:1047000053F8040B06930B46BBE6069B53F8040BC9
:1047100006930123B5E6069D55F8044B4FF00003C0
:104720008DF82F30002C00F0E282BBF1FF3F00F04B
:1047300097825A4600212046FEF7C2FE002800F06C
:10474000E882031B04939DF82F300695CDF808A04E
:1047500007934FF0000BB6E63B784AF0200A11E6CB
:10476000002940F0ED82A74A09921AF020012FD0CB
:10477000069A073222F00702516852F8080B069297
:104780001AF0010F0BD050EA010208D08DF8313039
:1047900030238DF830304AF0020A022371E60223FA
:1047A0006FE6069B4FF000028DF82F2053F8042B84
:1047B000069301238DF840200193049310AC4EE73B
:1047C000002940F0B182904A09921AF02001CFD11D
:1047D0001AF0100240F0FB811AF0400100F0F7815E
:1047E000069C54F8040B0694114680B2C8E7069B59
:1047F00053F8040B069330238DF8303078238DF86E
:104800003130804B09934AF0020A0021022338E636
:10481000002940F08C821AF0200F40F017821AF025
:10482000100F40F038821AF0400F00F03482069BDF
:10483000039953F8042B0693118083E53B786C2B86
:1048400003BF7B784AF0200A01374AF0100A99E545
:104850003B784AF0400A95E5002940F06B824AF027
:10486000100A1AF0200F069B7FF421AF53F8040BB7
:1048700006931AF0100F40F0AF811AF0400F00F0CD
:10488000AB8140F3C0310B4600B219E73B784AF0E8
:10489000800A77E53C4614F8013B2A2B00F053824E
:1048A000A3F13002092A27464FF0000B3FF66BAD0B
:1048B00017F8013B0BEB8B0B02EB4B0BA3F1300218
:1048C000092AF5D95FE53B7801212B205AE5069BA3
:1048D00053F8042B0592002AFFF68EAE06933B7820
:1048E00050E53B784AF0010A4CE53B7800287FF41C
:1048F00049AD0121202045E5DDF808A0012B3FF45A
:10490000EFAE022B1AAC12D1099A00F00F03000986
:10491000D35C04F8013D40EA0170090950EA010343
:10492000F3D11AAB1B1BCDF808A00493CBE500F024
:104930000703C00840EA4170C908303350EA010556
:10494000224604F8013DF2D11AF0010FE9D0302BD4
:10495000E7D03023023A04F8013C1AAB9B1ACDF899
:1049600008A004931446AEE5059B01981D1A002D7E
:104970007FF7F2AD102DDFF894A025DD504610230F
:10498000A246044604E0103D102D09F1080918DD87
:1049900001321031072AC9E90043CDE90E21F2DDC9
:1049A0000DAA414630460DF16809FFF737FC002893
:1049B0007FF406AE103D102DDDE90E214FF01003FF
:1049C000E6DC234654469A4601322944072ACDE9BB
:1049D0000E21C9F800A0C9F8045000F37B81049BA4
:1049E000ABEB0305002D09F108097FF7BBAD102DD6
:1049F000DFF818A02CDD0B4651464FF0100BA246F5
:104A00000C460AE0F4A8000808A9000860A70008FE
:104A1000103D102D09F1080916DD01321033072A67
:104A2000C9E9004BCDE90E23F2DD0DAA414630461F
:104A3000FFF7F4FB00287FF4C3AD103D102DDDE936
:104A40000E230DF16809E8DC1946234654469A46C0
:104A500001322944072ACDE90E21C9F800A0C9F87E
:104A6000045000F3C78009F108097BE50DAA41460F
:104A70003046FFF7D3FB00287FF4A2AD0F990DF16C
:104A800068097DE50DAA41463046FFF7C7FB0028BF
:104A90003FF48AAD94E5102DDDE90E21DFF8C8A2C0
:104AA00025DD50461023A246044604E0103D102D9B
:104AB00009F1080918DD01321031072AC9E900435C
:104AC000CDE90E21F2DD0DAA414630460DF168090F
:104AD000FFF7A4FB00287FF473AD103D102DDDE936
:104AE0000E214FF01003E6DC234654469A4601326D
:104AF0002944072ACDE90E21C9F800A0C9F80450BD
:104B000000F3D18009F10809FCE40DAA41463046C2
:104B1000FFF784FB00287FF453ADDDE90E210DF192
:104B2000680903E50DAA41463046FFF777FB0028E8
:104B30007FF446ADDDE90E210DF1680908E5102C82
:104B40000E9BDFF824A225DD0A4651461025B24609
:104B50000E4604E0103C102C09F1080916DD013363
:104B60001032072BC9E90065CDE90E32F2DD0DAA3E
:104B700041465046FFF752FB00287FF421AD103C20
:104B8000102CDDE90E320DF16809E8DC11463246E1
:104B90005646924601332144072BC9E900A4CDE9CA
:104BA0000E317FF7F6AC0DAA41463046FFF736FBD3
:104BB00000287FF405AD0F99EBE4BBF1000F7FF403
:104BC00094ADCDF808A0CDF810B01AAC7BE4069AED
:104BD00052F8040B0692D3E5C1170B46002BBFF623
:104BE00072AD2D2340428DF82F30079361EB4101C8
:104BF00001234CE40DAA41463046FFF70FFB002885
:104C00007FF4DEACDDE90E210DF16809AAE41AACEF
:104C1000CDF804A00A22002382460D46FBF7F0FCE3
:104C2000303204F8012D0023504629460A22FBF7B2
:104C3000E7FCBAF10A0F75F10003EBD21AABDDF80D
:104C400004A0CDF808A01B1B04933CE4069B03982A
:104C500053F8041B0693C217C1E90002FFF772BBA9
:104C600020460695CDF808A0FFF76AFA9DF82F3088
:104C7000049007934FF0000B25E44021FEF774F9F0
:104C8000C8F80000C8F81000002866D04023C8F813
:104C90001430FFF74DBB069B039953F8042B1160AA
:104CA0000693FFF74FBB0DAA41463046FFF7B6FA11
:104CB00000287FF485ACDDE90E210DF1680921E4BF
:104CC0009DF82F3007930BE5012BDDF808A07FF44A
:104CD00018AE0AE50DAA41463046FFF79FFA0028B4
:104CE0007FF46EACDDE90E210DF1680934E45B461A
:104CF000062B28BF06231D4C049306950193AEE4B2
:104D00000DAA41463046FFF789FA59E48DF82F0085
:104D100099E49DF82F30CDF810B00695CDF808A095
:104D200083460793FFF7CFBB8DF82F004BE58DF837
:104D30002F0070E58DF82F0091E58DF82F00B1E47C
:104D40008DF82F000FE5069A7B78274652F8044B22
:104D5000069244EAE47BFFF715BB0C23CBF8003046
:104D60004FF0FF33039334E450A700081CA9000858
:104D700000B50B4C25681446EE681A4685B003460C
:104D80000D464CB107490095CDE90114304606495E
:104D900000F052F801F024FD04490C46F3E700BF8F
:104DA00000000020B4A90008C4A90008C0A9000898
:104DB00008B513460022FFF7DBFF00BF10B502FB6A
:104DC00001F1FEF7D1F8044668B150F8042C22F046
:104DD0000302043A242A18D8132A06D802460023CC
:104DE000C2E900339360204610BD00231B2AC0E9AE
:104DF00000330FD9242AC0E9023311BF00F1100299
:104E0000036100F118024361E9E70021FBF7C0FDEF
:104E1000204610BD00F10802E1E700BF0CB400B568
:104E200083B004AB53F8042B019300F0FDFD03B0F5
:104E30005DF804EB02B070470EB410B583B005AB5B
:104E4000064C53F8042B01930146206800F0ECFD5A
:104E500003B0BDE8104003B0704700BF0000002061
:104E6000F8B5244F0C460646FEF714FCBA685568A0
:104E7000C4F57E630F3325F003052B4423F47F63D1
:104E800023F00F03A3F58054B4F5805F07DB002106
:104E90003046FFF739F9BB682B44984204D03046BE
:104EA000FEF7FAFB0020F8BD61423046FFF72CF90F
:104EB00001300DD0104ABB682D1B45F001055D6027
:104EC000136830461B1B1360FEF7E6FB0120F8BD9C
:104ED00000213046FFF718F9BA68831A0F2BDEDD80
:104EE00043F001035360054B03491B68C01A086077
:104EF000D5E700BF30040020D80900203808002082
:104F0000002961D0F8B50C460646FEF7C3FB54F8FD
:104F1000042C7B4FA4F1080522F0010105EB010CE4
:104F2000B868DCF80430604523F0030300F08B80A0
:104F3000D207CCF8043032D454F8082CAD1A1144FE
:104F4000AA6807F1080082426AD00CEB0304D4F887
:104F500004E0EC68D4601EF0010FA26000F09780BE
:104F600041F001036B60CCF80010B1F5007F35D241
:104F70007A68CB08480901210133814011437960E7
:104F800007EBC30257F83310083AC5E9021247F895
:104F90003350CD603046BDE8F840FEF77DBB0CEBEA
:104FA00003025268D00710D4194407F10800DCF856
:104FB0000830834273D0DCF80C20DA60936041F053
:104FC00001036B606950D0E7704741F00103B1F510
:104FD000007F44F8043CCCF80010C9D3B1F5206F31
:104FE0004FEA512348D28B0903F1390003F138020B
:104FF000C300F818FB580838984259D05A6822F074
:1050000003028A4202D99B689842F7D1D868C5E961
:1050100002308560DD603046BDE8F840FEF73CBBFD
:105020000CEB03025268D20763D40B44DCE9021292
:10503000CA60916043F001026A603046EB50BDE8FF
:10504000F840FEF729BB0B44D10707D454F8082CCD
:10505000AD1A1344D5E90212CA60916043F001020F
:105060006A60284ABD6012689A4293D8264B30463F
:105070001968FFF7F5FE8DE7142B0AD9542B1FD8BA
:105080000B0B03F16F0003F16E02C300B1E719448B
:105090008DE703F15C0003F15B02C300A9E741F077
:1050A0000103C7E90455C5E902006B60695071E767
:1050B00079689210012404FA02F20A437A60A6E7A2
:1050C000B3F5AA7F06D8CB0B03F1780003F1770282
:1050D000C3008EE740F25452934206D88B0C03F182
:1050E0007D0003F17C02C30083E74FF47E737E22D0
:1050F0007FE741F001036B60CCF800104AE700BF86
:10510000300400203C080020D409002042B110B532
:105110000B491046144600F0D7FA18B9094810BDDB
:10512000084870470749204600F0CEFA0028F5D01D
:105130000549204600F0C8FA0028EFD0002010BD35
:10514000F8A90008F4A90008C0A90008014B93F8C9
:10515000280170474008002041B110B50C46204698
:105160000A4900F0B1FA18B9094810BD084870475B
:105170000749204600F0A8FA0028F5D00549204646
:1051800000F0A2FA0028EFD0002010BDF8A9000816
:10519000F4A90008C0A9000810B4034CD4F8E440F6
:1051A000A44610BC604700BF4008002082B049B14F
:1051B0005AB16BB113780B601278101E18BF012022
:1051C00002B0704701A9002AF3D1104602B070471F
:1051D0006FF00100F4E700BF88420DD98B188342BD
:1051E0000AD900EB020CBAB1624613F801CD02F8FD
:1051F00001CD9942F9D170470F2A0ED8034602F12A
:10520000FF3C4AB10CF1010C013B8C4411F8012B1D
:1052100003F8012F6145F9D1704740EA01039B076C
:1052200050D1A2F1100370B501F1200C23F00F054D
:1052300001F1100E00F11004AC441B095EF8105C83
:1052400044F8105C5EF80C5C44F80C5C5EF8085C9A
:1052500044F8085C5EF8045C44F8045C0EF1100E3F
:10526000E64504F11004E9D1013312F00C0F01EB13
:10527000031102F00F0400EB031327D0043C24F0C9
:1052800003064FEA940C1E441C1F8E465EF8045B16
:1052900044F8045FB442F9D10CF1010402F00302B6
:1052A00003EB840301EB840102F1FF3C4AB10CF1F2
:1052B000010C013B8C4411F8012B03F8012F6145CF
:1052C000F9D170BD02F1FF3C03469BE72246EBE7B4
:1052D0002DE9F84F1746002900F0988007F10B05DB
:1052E00080460C46FEF7D6F9162D5DD810252A46C5
:1052F000AF425ED854F8041C21F003069642A4F194
:10530000080962DABC4BD3F808C009EB06008445F3
:1053100000F09780D0F804C02CF0010303445B68D0
:10532000DB0768D42CF0030C06EB0C03934247DA3E
:10533000CB0710D454F8083CA9EB030ADAF8043080
:1053400023F003018C44B444944580F21181731816
:10535000934280F2E88039464046FDF705FE074655
:10536000E0B154F8043C23F001034B44A0F10802DF
:10537000934200F0D280321F242A00F2F580132AD3
:1053800000F2AC80034622461168196051685960EA
:1053900092689A6021464046FFF7B2FD4046FEF70C
:1053A0007BF93846BDE8F88F25F00705002D2A4621
:1053B0009EDA0C23C8F8003000273846BDE8F88F85
:1053C0001E46D0E90223D3609A60731B0F2B22D8AC
:1053D000D9F8043003F0010333434E44C9F80430D4
:1053E000736843F00103736040462746FEF754F9A3
:1053F0003846BDE8F88FC907ADD454F8083CA9EB8E
:10540000030ADAF8041021F00301A0E7BDE8F84F21
:105410001146FDF7A9BDD9F8041001F00101294397
:10542000C9F8041009EB05014E4443F001034B6039
:10543000736843F00103083173604046FFF760FD75
:10544000D2E7DCF8040020F0030B06EB0B0C05F1AF
:10545000100084454DDAC9073FF57DAF54F8081CAC
:10546000A9EB010ADAF8041021F003018B44B344DC
:1054700058453FF76CAF5746DAF80C1057F8080F4D
:10548000321F242AC160886000F2DB80132A40F2B8
:10549000D6802168CAF808106168CAF80C101B2A67
:1054A00000F2DF8008340AF110022168116061689F
:1054B0005160A16891600AEB0501ABEB050242F077
:1054C000010299604A60DAF8043003F001031D43D9
:1054D0004046CAF80450FEF7DFF86EE72368036021
:1054E000636843601B2A68D804F1080200F10803CE
:1054F0004AE709EB05029A60ACEB050343F00103B0
:10550000536054F8043C03F001031D43404644F843
:10551000045CFEF7C1F827464FE750F8043C23F03F
:1055200003031E4451E75746DAF80C1057F8080FEA
:10553000321F242AC16088604CD8132A48D92168B8
:10554000CAF808106168CAF80C101B2A56D808342B
:105550000AF110021E462368136063685360A36853
:105560009360D1463C4630E72146FFF735FE11E710
:10557000D0E902135746CB60996057F8081FDAF854
:105580000C30CB60321F242A99602DD8132A29D9D8
:105590002368CAF808306368CAF80C301B2A42D85E
:1055A00008340AF1100322681A6062685A60A2681F
:1055B0009A606646D1463C4607E7A3688360E36885
:1055C000C360242A26D004F1100200F11003DBE6A8
:1055D0003A46BFE7214638461E46D146FFF7FCFD56
:1055E0003C46F2E63B46DEE7214638466646D14673
:1055F000FFF7F2FD3C46E8E630040020A168CAF857
:105600001010E168CAF81410242A20D010340AF1CE
:1056100018029FE7236903616169416104F118027F
:1056200000F11803B0E6A368CAF81030E368CAF8BE
:105630001430242A21D010340AF11803B3E73A4673
:1056400033E721463846FFF7C7FD164B33E722699B
:10565000CAF818206269CAF81C2018340AF120021E
:1056600078E7A168CAF81010E168CAF81410242A73
:105670000DD010340AF1180217E72369CAF8183060
:105680006369CAF81C3018340AF120038BE72269D9
:10569000CAF818206269CAF81C2018340AF12002DE
:1056A00003E700BF300400200000000000000000FD
:1056B00000000000000000000000000000000000EA
:1056C000A2EB0300704700BF02780B78012A28BFC5
:1056D0009A42F5D16DE9044540EA0104CDE902673B
:1056E0006FF0000C4FEA447212B380EA010414F028
:1056F000070F6AD100F0070420F0070004F003054B
:1057000021F007014FEAC505F0E8042314F0040F67
:10571000F1E804670CFA05F462EA040266EA04069A
:105720000AD063EA0403624667EA0407664603E0B8
:10573000F0E80423F1E8046782FA4CF582EA0604F3
:10574000A4FA8CF46CBB83FA4CF583EA0705A5FA3E
:105750008CF595B950E9022351E9026782FA4CF5BC
:1057600082EA0604A4FA8CF483FA4CF583EA07056E
:10577000A5FA8CF52543DBD09CB92DBAB5FA85F492
:1057800024F0070427FA04F1DDE9026723FA04F3A1
:1057900003F0FF0001F0FF01FDE80445A0EB01006C
:1057A000704724BAB4FA84F424F0070426FA04F10A
:1057B000DDE9026722FA04F202F0FF0001F0FF01C6
:1057C000FDE80445A0EB0100704714F0030F3CD145
:1057D00010F0030428D150F8082B51F8083B82FA46
:1057E0004CF582EA0305A5FA8CF55DB950F8042C56
:1057F00051F8043C82FA4CF582EA0305A5FA8CF5CF
:10580000002DE8D02DBAB5FA85F424F0070423FA68
:1058100004F122FA04F202F0FF0001F0FF01FDE8BA
:105820000445A0EB010070474FEAC40420F00300D8
:1058300050F8082B21F0030151F8083B0CFA04F44E
:1058400062EA040263EA0403C9E710F003041AD011
:10585000A1EB040120F00300E40750F8042B06D06C
:105860000FD28B785FFAA2F4E41A06D12BB1CB7871
:105870005FFAB2F4E41A00D11BB920465DF8104B70
:10588000704701F1040150F8042BCC0721F003010B
:1058900051F8043B48D824D222F07F4482FA4CF5D8
:1058A00094EA1325A5FA8CF50AD165B951F8043BA1
:1058B00084EA0204B4EB036F0ED150F8042BEBE73B
:1058C0004FEA132355E035F07F454DD10878FDE8C8
:1058D0000445C0F1000070474FEA126203F0FF0375
:1058E00047E002EA1C4482FA4CF594EA1345A5FA13
:1058F0008CF50AD165B951F8043B84EA0204B4EB93
:10590000034F0CD150F8042BEBE74FEA134330E080
:1059100015EA1C4528D10B884FEA124229E04FEACC
:10592000124203EA1C4324E002F0FF0482FA4CF521
:1059300094EA1365A5FA8CF50AD165B951F8043BD0
:1059400084EA0204B4EB032F09D150F8042BEBE7EF
:105950004FEA13630DE015F0FF0F05D10B684FEA16
:10596000122223F07F4304E04FF00000FDE80445DD
:10597000704712BA1BBA82FA4CF482EA0304A4FA02
:105980008CF5B5FA85F402FA04F203FA04F34FEA4F
:105990001260FDE80445A0EB136070472DE9F84F55
:1059A0004B6E9C0490462DD59368126843B38B468A
:1059B000064602F1080959E9025A5FEA9A0715D02A
:1059C000043D002401E0A7420ED055F8041F5A46BA
:1059D000304601F03BF9431C04F10104F3D10023EC
:1059E000C8E90133BDE8F88FD8F808302AF0030A77
:1059F000A3EB0A03C8F8083009F10809002BDAD133
:105A00000020ECE701F054F90023C8E90133BDE8B8
:105A1000F88F00BF10B494680CB110BCBEE72046EC
:105A2000546010BC704700BF2DE9F04FABB01C466E
:105A3000884617460693834618B1836B002B00F007
:105A40002582B8F90C1088048AB20AD4D8F86430D8
:105A500041F4005223F40053A8F80C20C8F8643035
:105A600092B2130740F1A480D8F81030002B00F058
:105A70009F8002F01A020A2A00F0A8801AAB0D9348
:105A80000023CDE90E3309930DF1680905933B78A6
:105A9000002B00F00D813C4604E014F8013F002B80
:105AA00000F0E880252BF8D1E51B40F0E580237855
:105AB000002B00F0FD804FF0000200218DF82F2018
:105AC000637804914FF0FF32671C084602928A46C1
:105AD0000137A3F12002582A00F2F780DFE812F024
:105AE0003302F500F5002F02F500F500F500F50092
:105AF000F500F500E5012B02F500F001F401F500D9
:105B000027025900590059005900590059005900FD
