:020000040800F2
:10000000008001203D0A0008210A0008230A000898
:10001000250A0008270A0008290A00080000000035
:100020000000000000000000000000002B0A000893
:100030002D0A0008000000002F0A0008310A0008FD
:100040008D0A00088D0A00088D0A00088D0A000834
:100050008D0A00088D0A00088D0A00088D0A000824
:100060008D0A00088D0A00088D0A00088D0A000814
:100070008D0A00088D0A00088D0A00088D0A000804
:100080008D0A00088D0A00088D0A00088D0A0008F4
:100090008D0A00088D0A00088D0A00088D0A0008E4
:1000A0008D0A00088D0A00088D0A00088D0A0008D4
:1000B0008D0A00088D0A00088D0A00088D0A0008C4
:1000C0008D0A00088D0A00088D0A00088D0A0008B4
:1000D0008D0A00088D0A00088D0A00088D0A0008A4
:1000E0008D0A00088D0A00088D0A00088D0A000894
:1000F0008D0A00088D0A00088D0A00088D0A000884
:100100008D0A00088D0A00088D0A00088D0A000873
:100110008D0A00088D0A00088D0A00088D0A000863
:100120008D0A00088D0A00088D0A00088D0A000853
:100130008D0A00088D0A00088D0A00088D0A000843
:100140008D0A00088D0A00088D0A00088D0A000833
:100150008D0A00088D0A00088D0A00088D0A000823
:100160008D0A00088D0A00088D0A00088D0A000813
:100170008D0A00088D0A00088D0A000800000000A2
:080180008D0A00088D0A000839
:100188000348044B834202D0034B03B1184770471E
:100198003C0400203C0400200000000005480649FB
:1001A8000B1AD90F01EBA301491002D0034B03B17D
:1001B800184770473C0400203C0400200000000061
:1001C80010B5064C237843B9FFF7DAFF044B13B197
:1001D8000448AFF300800123237010BD3C040020C5
:1001E800000000008C2E000808B5044B1BB1044920
:1001F8000448AFF30080BDE80840CFE700000000E6
:10020800400400208C2E000853B94AB9002908BFC1
:1002180000281CBF4FF0FF314FF0FF3000F074B9D9
:10022800ADF1080C6DE904CE00F006F8DDF804E045
:10023800DDE9022304B070472DE9F047089E0D461A
:1002480004468846002B4DD18A42944668D9B2FAB2
:1002580082F252B101FA02F3C2F1200120FA01F14F
:100268000CFA02FC41EA030894404FEA1C45210CB1
:10027800B8FBF5FE1FFA8CF705FB1E8341EA034322
:100288000EFB07F199420BD91CEB03030EF1FF306B
:1002980080F01E81994240F21B81AEF1020E634448
:1002A8005B1AA4B2B3FBF5F005FB103344EA034430
:1002B80000FB07F7A7420AD91CEB040400F1FF333F
:1002C80080F00881A74240F2058164440238E41BAB
:1002D80040EA0E4000211EB1D4400023C6E9004385
:1002E800BDE8F0878B4208D9002E00F0EE8000218F
:1002F800C6E900050846BDE8F087B3FA83F100298E
:100308004AD1AB4202D3824200F2F980841A65EBEB
:10031800030301209846002EE2D0C6E90048DFE733
:1003280002B9FFDEB2FA82F2002A40F09180A1EB16
:100338000C054FEA1C471FFA8CFE0121B5FBF7F3A9
:1003480007FB1350250C45EA00450EFB03F0A842B5
:1003580008D91CEB050503F1FF3802D2A84200F2C8
:10036800CB8043462D1AA4B2B5FBF7F007FB105516
:1003780044EA05440EFB00FEA64508D91CEB04041C
:1003880000F1FF3502D2A64500F2BB802846A4EB57
:100398000E0440EA03409EE7C1F120078B4022FA91
:1003A80007FC4CEA030C20FA07F405FA01F31C4396
:1003B800FD404FEA1C4900FA01F3B5FBF9F8200C9F
:1003C8001FFA8CFE09FB185540EA054508FB0EF09C
:1003D800A84202FA01F20BD91CEB050508F1FF3A15
:1003E80080F08880A84240F28580A8F10208654420
:1003F8002D1AA4B2B5FBF9F009FB105544EA0545DE
:1004080000FB0EFEAE4508D91CEB050500F1FF34D4
:100418006CD2AE456AD90238654440EA0840A0FB70
:100428000294A5EB0E05A542C846A64656D353D05E
:100438005EB1B3EB080265EB0E0505FA07F722FA81
:1004480001F3CD401F43C6E900750021BDE8F087E0
:10045800C2F1200320FA03F10CFA02FC25FA03F397
:1004680095400D434FEA1C471FFA8CFEB3FBF7F18A
:1004780007FB11302B0C43EA004301FB0EF09842B6
:1004880004FA02F408D91CEB030301F1FF382FD258
:1004980098422DD9023963441B1AADB2B3FBF7F069
:1004A80007FB103345EA034500FB0EF3AB4208D9BE
:1004B8001CEB050500F1FF3816D2AB4214D90238FF
:1004C8006544ED1A40EA014138E73146304607E70E
:1004D8008646E5E61846FAE64B45A9D2B9EB020886
:1004E80064EB0C0E0138A3E74046EAE7204694E7A0
:1004F8004146D1E7D0467BE7023B654432E70846F0
:1005080009E76444023842E7704700BF0023014608
:100518001A46184600F08CB838B5084B084D5B1BD6
:100528009C1007D0043B1D44013C55F804399847FA
:10053800002CF9D1BDE8384002F0AABC042F00080D
:10054800002F000870B50D4E0D4D761BB61006D065
:10055800002455F8043B01349847A642F9D1094EC6
:10056800094D761B02F08EFCB61006D0002455F813
:10057800043B01349847A642F9D170BDF82E000813
:10058800F82E0008002F0008F82E0008830730B561
:1005980048D0541E002A3FD0CAB2034601E0013CAD
:1005A8003AD303F8012B9D07F9D1032C2DD9CDB2ED
:1005B80045EA05250F2C45EA054536D9A4F1100270
:1005C80022F00F0C03F1200EE6444FEA121C03F14F
:1005D800100242E9045542E9025510327245F8D139
:1005E8000CF1010214F00C0F03EB021204F00F0CD3
:1005F80013D0ACF1040323F003030433134442F88B
:10060800045B9342FBD10CF003042CB1CAB21C4426
:1006180003F8012B9C42FBD130BD64461346002CE5
:10062800F4D1F9E703461446BFE71A46A446E0E7C3
:1006380070B4184C2568D5F848411CB365681F2D5F
:1006480025DC38B9AB1C0135656044F8231000205F
:1006580070BC704704EB850C0228CCF88820D4F8CD
:1006680088614FF0010202FA05F246EA0206C4F870
:100678008861CCF80831E5D1D4F88C311343C4F83B
:100688008C31DFE705F5A674C5F84841D6E74FF089
:10069800FF30DDE7A42E000810B58AB000240594C9
:1006A8000694079408940994214BDA6C42F00402EA
:1006B800DA64DA6C02F004020192019ADA6C42F010
:1006C8008002DA64DA6C02F080020292029ADA6C32
:1006D80042F00102DA64DA6C02F001020392039A32
:1006E800DA6C42F00202DA64DB6C03F00203049372
:1006F800049B224620214FF0904000F08DFB4FF4E0
:10070800005305934FF404130693079405A9094869
:1007180000F07CFA2023059301230693079408949C
:1007280005A94FF0904000F071FA0AB010BD00BF63
:10073800001002400008004872B6FEE708B50B48F2
:100748000B4B03604FF4E133436000238360C360C5
:1007580003610C2242618361C3610362436202F058
:1007680056FB00B908BDFFF7E7FF00BFA40400204F
:100778000044004000B58FB000230A930B930C93FC
:100788000D9307930893099300930193029303939E
:1007980004930593069320484FF0804202604F224D
:1007A80042608360FF22C2604FF4807202618361FD
:1007B80001F07EFD28BB4FF480530A930AA916481E
:1007C80001F0C6FEF8B9144801F0A2FDE8B900230B
:1007D8000793099307A9104801F0FAFFB8B96023F5
:1007E80000930A23019300220292049269460A4860
:1007F80001F004FE68B9084800F0A5F80FB05DF8EC
:1008080004FBFFF799FFFFF797FFFFF795FFFFF747
:1008180093FFFFF791FF00BF5804002000B597B081
:100828004422002105A8FFF7B1FE0023009301939D
:100838000293039304934FF4007000F003FB18BB7A
:10084800022305934FF480720892102209920F93A5
:100858001093119312221292072213921493159354
:1008680005A800F0D9FB88B90F230093032301934F
:1008780000230293039304930421684600F0DAFEF0
:1008880030B917B05DF804FBFFF756FFFFF754FFC8
:10089800FFF752FF10B500F01FF9FFF7BFFFFFF792
:1008A800FBFEFFF74BFFFFF765FF00210F4801F044
:1008B800DFFE18E04FF080435C630A2000F034F953
:1008C8000134FE2CF6DDFF2406E04FF080435C6324
:1008D8000A2000F029F9013C002CF6DC20214FF019
:1008E800904000F09EFA0024EBE700BF5804002077
:1008F80082B00A4B1A6E42F001021A661A6E02F0B2
:1009080001020092009A9A6D42F080529A659B6D9E
:1009180003F080530193019B02B07047001002401E
:100928000368B3F1804F00D0704782B003F50433F9
:100938009A6D42F001029A659B6D03F001030193E1
:10094800019B02B0704700B587B000230193029362
:100958000393049305930368B3F1804F02D007B063
:100968005DF804FB03F50433DA6C42F00102DA6443
:10097800DB6C03F001030093009B01230193022227
:100988000292059301A94FF0904000F03FF9E6E785
:1009980010B5AAB0044600212591269127912891E7
:1009A8002991882203A8FFF7F1FD2268184B9A4283
:1009B80001D02AB010BD0223039303A801F086F8E2
:1009C80010BB144B9A6D42F400329A659A6D02F48A
:1009D80000320192019ADA6C42F00102DA64DB6CAF
:1009E80003F001030293029B0C2325930223269311
:1009F80000232793032328930723299325A94FF03E
:100A0800904000F003F9D4E7FFF796FED9E700BF5E
:100A18000044004000100240FEE7FEE7FEE7FEE764
:100A2800FEE770477047704708B500F06BF808BDDF
:100A380070470000DFF834D0FFF7FAFF0C480D4983
:100A48000D4A002302E0D458C4500433C4188C4221
:100A5800F9D30A4A0A4C002301E013600432A24287
:100A6800FBD3FFF76FFDFFF715FFFEE700800120BE
:100A7800000000203C040020042F00083C04002053
:100A880030050020FEE70000104B1B780BB9012051
:100A9800704710B504464FF47A70B0FBF3F30C4A74
:100AA8001068B0FBF3F000F09DF868B90F2C01D97D
:100AB80001200AE0002221464FF0FF3000F05AF8EA
:100AC800044B1C60002000E0012010BD340400200D
:100AD800300400203804002010B5094A136843F494
:100AE80080731360032000F033F80020FFF7CCFF79
:100AF80010B10124204610BD0446FFF7F9FEF9E7BE
:100B080000200240034B1B78034A11680B44136012
:100B1800704700BF340400202C050020014B1868E2
:100B2800704700BF2C05002038B50446FFF7F6FFD4
:100B38000546B4F1FF3F02D0044B1B781C44FFF775
:100B4800EDFF401BA042FAD338BD00BF340400209B
:100B5800074AD36823F4E0631B041B0C000200F46B
:100B6800E060034343F0BF6343F40033D36070474E
:100B780000ED00E000B5194BDB68C3F30223C3F1B5
:100B8800070CBCF1040F28BF4FF0040C03F1040E4E
:100B9800BEF1060F18D9033B4FF0FF3E0EFA0CFCCE
:100BA80021EA0C0199400EFA03F322EA03031943E0
:100BB80000280BDB0901C9B200F1604000F5614073
:100BC80080F800135DF804FB0023E5E700F00F0050
:100BD8000901C9B2024B1954F4E700BF00ED00E067
:100BE80014ED00E00138B0F1807F0BD24FF0E02324
:100BF8005861054AF02182F82310002098610722E5
:100C08001A6170470120704700ED00E070B582B0AE
:100C180000236EE085685E000324B44025EA0405DD
:100C2800CC68B4402C438460456825EA0C054C68C0
:100C3800C4F300149C402C4344606DE0C56A25EA67
:100C48000C0CC4F3C0049C4044EA0C04C46269E080
:100C5800DD08083550F8256003F007044FEA840CD6
:100C68000F2404FA0CF426EA040E0C6904FA0CF4B6
:100C780044EA0E0440F825406CE0062400E0002415
:100C880004FA0EF42C430CF1020C5F4D45F82C408D
:100C98005E4CA568D44325EA0206D1F804C01CF4CA
:100CA800801F01D042EA0506584DAE60ED6804EA9F
:100CB8000506D1F804C01CF4001F01D042EA05065D
:100CC800524DEE606D6804EA0506D1F804C01CF4C4
:100CD800003F01D042EA05064C4D6E602D682C405D
:100CE8004E6816F4803F01D042EA0504474A146072
:100CF80001330A6832FA03F400F083804FF0010CE4
:100D08000CFA03FC1CEA0202F2D04C6804F003045B
:100D1800013C012C7FF67EAF4C6804F0030EBEF157
:100D2800030F8BD04C6804F00304032C0CD0C46868
:100D38005D004FF0030C0CFA05FC24EA0C0C8C68DF
:100D4800AC4044EA0C04C4604C6804F00304022C70
:100D58003FF47EAF04684FEA430E4FF0030C0CFAE1
:100D68000EFC24EA0C0C4C6804F0030404FA0EF49C
:100D780044EA0C0404604C6814F4403FB8D0244C96
:100D8800256E45F001052566246E04F001040194E2
:100D9800019C4FEA930C0CF102051B4C54F82550AA
:100DA80003F003044FEA840E0F2404FA0EF425EA34
:100DB8000405B0F1904F3FF462AF164CA04216D034
:100DC80004F58064A04214D004F58064A04212D0D7
:100DD80004F58064A04210D004F58064A0420ED0CF
:100DE80004F58064A0423FF448AF072448E7012493
:100DF80046E7022444E7032442E7042440E70524A5
:100E08003EE702B070BD00BF000001400004014091
:100E180000100240000400480AB1816170478162F5
:100E28007047436901EA030221EA030141EA0241EA
:100E380081617047024B186800F4C060704700BFBA
:100E480000700040B0F5007F0FD01F4B1B6803F403
:100E5800C063B3F5806F34D01B4A136823F4C063B2
:100E680043F48063136000207047174B1B6803F43A
:100E7800C063B3F5007F20D0134A136823F4C0631E
:100E880043F400731360114B1B68322202FB03F317
:100E98000F4AA2FB03239B0C013300E0013B0A4AE3
:100EA800526912F4806F01D0002BF7D1064B5B69B1
:100EB80013F4806F03D1002070470020704703208F
:100EC80070470020704700BF0070004030040020C9
:100ED80083DE1B4330B583B00446204B9B6D13F073
:100EE800805F0BD0FFF7A6FFB0F5007F17D0802CEE
:100EF8001FD82DD0702C2DD000211BE0174DAB6DC5
:100F080043F08053AB65AB6D03F080530193019BB5
:100F1800FFF790FFAB6D23F08053AB65E4E7802CBF
:100F280003D9A02C03D9022104E0002102E0012109
:100F380000E003210A4A136823F007030B431360F8
:100F4800136803F007038B4206D1002003B030BDBD
:100F58000221EFE70121EDE70120F7E70010024049
:100F680000200240284A9368D26802F0030213F076
:100F78000C030AD00C2B06D0042B1FD0082B20D032
:100F88000020024610E0012AF6D11F4A126812F02A
:100F9800080F0CD11C4AD2F89420C2F303221B4933
:100FA80051F8222043B100200C2B0DD07047164A6F
:100FB8001268C2F30312F2E71046F5E7144800225C
:100FC800F2E714480022EFE70F4BDB6803F0030356
:100FD800022B16D0032B00D10E4A0B49C868C0F368
:100FE8000210431CC868C0F3062002FB00F0B0FBE7
:100FF800F3F0CB68C3F3416301335B00B0FBF3F05C
:10100800D4E7034AE9E700BF00100240C02E0008F9
:101018000024F40000127A00002800F0F182F0B5F4
:1010280083B00446964B9D6805F00C05DE6806F013
:101038000306036813F0100F5AD0E5B10C2D18D031
:10104800A369002B00F0BB808D4A136843F00103AD
:101058001360FFF763FD0746894B1B6813F0020F07
:1010680040F09A80FFF75AFDC01B0228F4D90320EC
:10107800D1E2012EE4D1824B1B6813F0020F03D09A
:10108800A369002B00F0BE82206A7D4B1B6813F019
:10109800080F5BD07A4B1B6803F0F00398425CD8CA
:1010A800774B1A6842F008021A601A6822F0F002B8
:1010B800216A0A431A605A6822F47F42E16942EAC7
:1010C80001225A60002D60D0FFF74CFF6C4B9B68E3
:1010D800C3F303136B4AD35C03F01F03D8406A4B76
:1010E80018606A4B1868FFF7CFFC002840F093821D
:1010F800236813F0010F00F08180082D75D00C2DA6
:1011080071D06368B3F5803F00F09780B3F5A02FE6
:1011180000F099805A4B1A6822F480321A601A68D3
:1011280022F480221A606368002B00F09980FFF790
:10113800F5FC0746524B1B6813F4003F5ED1FFF7DE
:10114800EDFCC01B6428F5D9032064E24C4BD3F8AE
:1011580094301B0903F0F003A0E7FFF7BBFE00285B
:1011680040F05282464B1A6842F008021A601A6828
:1011780022F0F002216A0A431A605A6822F47F4278
:10118800E16942EA01225A609EE7206AFFF7A2FE5F
:10119800002899D001203EE2394B1A6842F0080233
:1011A8001A601A6822F0F002216A0A431A605A6823
:1011B80022F47F42E16942EA01225A6098E7304A04
:1011C800136823F001031360FFF7A8FC07462C4BB4
:1011D8001B6813F0020F8BD0FFF7A0FCC01B02287E
:1011E800F5D9032017E2032E8BD1254B1B6813F486
:1011F800003F03D06368002B00F00882236813F0D7
:10120800020F58D0042D45D00C2D41D0E368002B97
:1012180077D01B4A136843F480731360FFF77EFC92
:101228000646174B1B6813F4806F61D1FFF776FCF5
:10123800801B0228F5D90320EDE1114A136843F415
:10124800803313606FE703F18043A3F53C331A68DA
:1012580042F480221A601A6842F480321A6062E707
:10126800FFF75CFC0746064B1B6813F4003FC5D02C
:10127800FFF754FCC01B6428F5D90320CBE100BF5D
:1012880000100240A82E0008300400203804002076
:10129800022EBBD1A34B1B6813F4806F03D0E36805
:1012A800002B00F0B5819F4A536823F0F853216959
:1012B80043EA01635360236813F0080F4CD0636955
:1012C8009BB3984AD2F8943043F00103C2F89430A3
:1012D800FFF724FC0646934BD3F8943013F0020F23
:1012E8003AD1FFF71BFC801B0228F4D9032092E1B6
:1012F8008C4A536823F0F853216943EA0163536029
:10130800D9E7884A136823F480731360FFF706FC53
:101318000646844B1B6813F4806FCCD0FFF7FEFBA6
:10132800801B0228F5D9032075E17E4AD2F8943053
:1013380023F00103C2F89430FFF7F0FB0646794B1F
:10134800D3F8943013F0020F06D0FFF7E7FB801BA9
:101358000228F4D903205EE1236813F0040F7AD041
:10136800704B9B6D13F0805F36D16E4B9A6D42F0D7
:1013780080529A659B6D03F080530193019B01266F
:10138800694B1B6813F4807F28D0A368012B39D0E0
:10139800052B3FD0634BD3F8902022F00102C3F80D
:1013A8009020D3F8902022F00402C3F89020A3687C
:1013B800002B3DD0FFF7B2FB07465A4BD3F89030CD
:1013C80013F0020F46D1FFF7A9FBC01B41F2883387
:1013D8009842F2D903201EE10026D1E7524A136849
:1013E80043F480731360FFF799FB07464E4B1B6865
:1013F80013F4807FC9D1FFF791FBC01B0228F5D9F0
:10140800032008E1474AD2F8903043F00103C2F8BC
:101418009030CCE7434BD3F8902042F00402C3F855
:101428009020D3F8902042F00102C3F89020BEE744
:10143800FFF774FB07463B4BD3F8903013F0020FCD
:1014480008D0FFF76BFBC01B41F288339842F2D9F2
:101458000320E0E0EEB9A36A002B00F0DB80022B4A
:101468001DD00C2D00F0DD802E4A136823F0807308
:101478001360FFF753FB04462A4B1B6813F0007FE9
:1014880000F0B780FFF74AFB001B0228F4D90320BD
:10149800C1E0244A936D23F080539365DBE7214B29
:1014A800DB6803F00301E26A91420FD00C2D00F0D3
:1014B800B4801C4B1B6813F0806F40F0B080194B50
:1014C8001B6813F0805F31D00120A4E003F07002A4
:1014D800216B0139B2EB011FE8D103F4FE42616BC5
:1014E800B2EB012FE2D103F40031A26B073A18BF27
:1014F80001229142DAD103F4C001E26B5208013AA9
:10150800B1EB425FD2D103F0C063226C5208013ABA
:10151800B3EB426FCAD1034B1B6813F0007F4ED068
:10152800002078E000100240007000403E4A136836
:1015380023F080731360FFF7F1FA05463A4B1B68F6
:1015480013F0007F06D0FFF7E9FA401B0228F5D90F
:10155800032060E0344AD36834491940E36A206BB9
:10156800013843EA0013606B43EA0023E06B40084C
:10157800013843EA4053206C4008013843EA40638D
:10158800A06B000943EA40430B43D360136843F060
:1015980080731360D36843F08073D360FFF7BEFA9B
:1015A8000446214B1B6813F0007F06D1FFF7B6FAFB
:1015B800001B0228F5D903202DE000202BE01A4B50
:1015C8001A6842F080721A60DA6842F08072DA6053
:1015D800FFF7A4FA0446144B1B6813F0007F06D1EA
:1015E800FFF79CFA031B022BF5D9032013E0002018
:1015F80011E00D4AD1680E4B0B40D36000200AE081
:1016080001207047012006E0012004E0012002E0EB
:10161800012000E0002003B0F0BD0120FBE701201D
:10162800F9E70120F7E700BF001002408C809DF920
:10163800FCFFEEFE002800F0AF8070B50D460446B2
:10164800594B1B6803F007038B420BD2564A1368A9
:1016580023F007030B431360136803F007038B425F
:1016680040F09C80236813F0020F0CD0A2684F4B07
:101678009B6803F0F0039A4205D94C498B6823F024
:10168800F0031A438A60236813F0010F39D06368A6
:10169800032B09D0022B26D063BB444A126812F0F0
:1016A800020F06D1012076E0404A126812F0007F4E
:1016B80076D03E498A6822F0030213438B60FFF715
:1016C8002DFA0646394B9B6803F00C036268B3EBAE
:1016D800820F16D0FFF722FA801B41F28833984216
:1016E800F0D9032057E0314A126812F4003FE0D1E4
:1016F800012050E02D4A126812F4806FD9D10120E0
:1017080049E0236813F0020F0CD0A268274B9B68AE
:1017180003F0F0039A4205D224498B6823F0F003C2
:101728001A438A60204B1B6803F00703AB420AD9AF
:101738001D4A136823F007032B431360136803F053
:101748000703AB422ED1236813F0040F06D0174AC3
:10175800936823F4E063E1680B439360236813F014
:10176800080F07D0114A936823F46053216943EAAC
:10177800C1039360FFF7F6FB0C4B9B68C3F303139D
:101788000B4AD35C03F01F03D8400A4B18600A4B7E
:101798001868FFF779F970BD012070470120FAE752
:1017A8000120F8E70120F6E700200240001002407F
:1017B800A82E00083004002038040020014B1868C7
:1017C800704700BF3004002008B5FFF7F7FF054B4E
:1017D8009B68C3F30223044AD35C03F01F03D84079
:1017E80008BD00BF00100240B82E000808B5FFF77A
:1017F800E5FF054B9B68C3F3C223044AD35C03F09F
:101808001F03D84008BD00BF00100240B82E0008D2
:10181800F8B504460F46594BDB6813F0030F18D090
:10182800564BDB6803F003030268934202D001259C
:101838002846F8BD002A00F09E80504BDB68C3F3B1
:10184800021301334268934201D00125F0E70025D5
:1018580009E00368022B57D0032B5CD0012B42D040
:101868000125002DE4D1454A136823F080631360F5
:10187800FFF754F90646414B1B6813F0006F05D07B
:10188800FFF74CF9831B022BF5D90325002DCFD187
:10189800002F4ED139490B6923F41F3323F44073C9
:1018A800A068E2681209520442EA002213430B615D
:1018B800324A136843F080631360FFF72FF9064636
:1018C8002E4B1B6813F0006F05D1FFF727F9831B18
:1018D800022BF5D90325002DAAD1284A1369A1693D
:1018E8000B431361A4E7254A126812F0020F1ED0B9
:1018F8002248C26822F073026168013943EA011381
:101908001343C3600025ACE71C4A126812F4806FC9
:10191800EED10125A5E7194A126812F4003FE7D174
:10192800164A126812F4802FE2D1012599E70125A1
:1019380097E7012F0FD01148026922F0C06222F404
:10194800FE42A16863695B08013B5B0643EA012329
:1019580013430361ACE70948026922F4C00222F488
:10196800FE42A16823695B08013B5B0543EA01234A
:10197800134303619CE701255AE700BF00100240AA
:10198800F8B504460F46504BDB6813F0030F18D028
:101998004D4BDB6803F003030268934202D0012534
:1019A8002846F8BD002A00F08C80474BDB68C3F35B
:1019B800021301334268934201D00125F0E7002564
:1019C80009E00368022B57D0032B5CD0012B42D0CF
:1019D8000125002DE4D13C4A136823F0805313609D
:1019E800FFF79CF80646384B1B6813F0005F05D0DC
:1019F800FFF794F8831B022BF5D90325002DCFD1CF
:101A0800002F4ED130494B6923F41F3323F4407320
:101A1800A068E2681209520442EA002213434B61AB
:101A2800294A136843F080531360FFF777F8064696
:101A3800254B1B6813F0005F05D1FFF76FF8831B78
:101A4800022BF5D90325002DAAD11F4A53696169D4
:101A58000B435361A4E71C4A126812F0020F1ED010
:101A68001948C26822F073026168013943EA011318
:101A78001343C3600025ACE7134A126812F4806F61
:101A8800EED10125A5E7104A126812F4003FE7D10C
:101A98000D4A126812F4802FE2D1012599E7012539
:101AA80097E70948426922F0C06222F4FE42A16821
:101AB80023695B08013B5B0643EA01231343436147
:101AC800AEE701256CE700BF001002402DE9F041A8
:101AD80082B00446036813F4006F33D0436EB3F545
:101AE800000F1FD00CD823B3B3F5800F05D1002108
:101AF8002030FFF745FF064620E001273E4623E059
:101B0800B3F5400F0BD10026604AD2F8883023F491
:101B18004003616E0B43C2F88830002714E00127A8
:101B28003E4611E0594AD36843F48033D360002617
:101B3800EAE700210430FFF76BFE0646002EE3D0EB
:101B4800374601E000273E46236813F4805F30D013
:101B5800A36EB3F1007F1FD00DD81BB3B3F1807F04
:101B680006D1002104F12000FFF70AFF064605E030
:101B780001273E461DE0B3F1407F0AD1C6B9434A6A
:101B8800D2F8883023F04073A16E0B43C2F8883036
:101B98000FE001273E460CE03C4AD36843F480330B
:101BA800D360EBE70021201DFFF732FE0646E5E78C
:101BB8003746236813F4003F71D0344B9B6D13F004
:101BC800805F4ED1314B9A6D42F080529A659B6D81
:101BD80003F080530193019B4FF001082C4A1368CE
:101BE80043F480731360FEF799FF0546284B1B6882
:101BF80013F4807F05D1FEF791FF401B0228F5D929
:101C08000326002E46D1214BD3F8903013F44073AD
:101C180016D0D4F884209A4212D01C4AD2F89030B8
:101C280023F44073D2F8901041F48031C2F8901038
:101C3800D2F8901021F48031C2F89010C2F8903098
:101C480013F0010F10D1002E40F027810F4AD2F86F
:101C5800903023F44073D4F884100B43C2F89030CA
:101C680019E04FF00008B9E7FEF758FF0546074BA3
:101C7800D3F8903013F0020FE5D1FEF74FFF401B69
:101C880041F288339842F2D90326DCE7001002407B
:101C9800007000403746B8F1000F40F0008123681B
:101CA80013F0010F08D09D4AD2F8883023F00303BF
:101CB800A16B0B43C2F88830236813F0020F08D0D9
:101CC800964AD2F8883023F00C03E16B0B43C2F834
:101CD8008830236813F0040F08D0904AD2F888306F
:101CE80023F03003216C0B43C2F88830236813F0CB
:101CF800080F08D0894AD2F8883023F0C003616CF5
:101D08000B43C2F88830236813F0100F08D0834AB9
:101D1800D2F8883023F44073A16C0B43C2F88830A2
:101D2800236813F0200F08D07C4AD2F8883023F4B7
:101D38004063E16C0B43C2F88830236813F4007FDA
:101D480008D0764AD2F8883023F44023E16D0B435B
:101D5800C2F88830236813F4806F08D06F4AD2F82D
:101D6800883023F44013216E0B43C2F8883023686F
:101D780013F0400F08D0694AD2F8883023F4405352
:101D8800216D0B43C2F88830236813F0800F08D008
:101D9800624AD2F8883023F44043616D0B43C2F89D
:101DA8008830236813F4807F08D05C4AD2F88830E2
:101DB80023F44033A16D0B43C2F88830236813F431
:101DC800005F0FD0554AD2F8883023F04063E16EA7
:101DD8000B43C2F88830E36EB3F1006F65D0B3F1FE
:101DE800806F67D0236813F4002F0FD04B4AD2F8C6
:101DF800883023F04063216F0B43C2F88830236F8B
:101E0800B3F1006F5ED0B3F1806F60D0236813F434
:101E1800802F0FD0414AD2F8883023F04063616F99
:101E28000B43C2F88830636FB3F1006F57D0B3F13A
:101E3800806F59D0236813F4804F0FD0374AD2F8F7
:101E4800883023F04053A16F0B43C2F88830A36F4A
:101E5800B3F1805F50D0B3F1005F55D0236813F41D
:101E6800004F08D02D4AD2F8883023F08043E16F24
:101E78000B43C2F88830236813F4803F09D0274AFF
:101E8800D2F8883023F00043D4F880100B43C2F80E
:101E98008830384602B0BDE8F0813746FBE61F4A75
:101EA800936D23F080539365F9E6D36843F4801368
:101EB800D36097E70121201DFFF7AAFC002891D0E5
:101EC80007468FE7D36843F48013D3609EE7012168
:101ED800201DFFF79DFC002898D0074696E7D36899
:101EE80043F48013D360A5E70121201DFFF790FC80
:101EF80000289FD007469DE70221201DFFF788FC98
:101F08000028ABD00746A9E7022104F12000FFF71B
:101F180037FD0028A2D00746A0E700BF0010024006
:101F280030B4036A026A22F00102026245688269DB
:101F380022F4803222F073020C68224323F0020359
:101F48008C6823431D4CA0420FD004F50064A042C6
:101F58000BD004F54064A04207D004F58064A04289
:101F680003D004F58064A04205D123F00803CC68AF
:101F7800234323F00403114CA0420FD004F500645E
:101F8800A0420BD004F54064A04207D004F5806459
:101F9800A04203D004F58064A04207D125F4407C18
:101FA8004C6944EA0C0C8D6945EA0C054560826170
:101FB8004A684263036230BC704700BF002C01408E
:101FC80030B4036A026A22F4807202624468C26909
:101FD80022F4803222F073020D682A4323F400733E
:101FE8008D6843EA0523184DA84203D005F500651E
:101FF800A84206D123F40063CD6843EA052323F4FD
:102008008063114DA8420FD005F50065A8420BD09A
:1020180005F54065A84207D005F58065A84203D0BC
:1020280005F58065A84207D124F4405C4C694CEA68
:10203800041C8C694CEA04144460C2614A68C26397
:10204800036230BC704700BF002C014030B4036A03
:10205800026A22F4805202624468C26922F08072E5
:1020680022F4E6420D6842EA052223F400538D6803
:1020780043EA05330F4DA8420FD005F50065A84285
:102088000BD005F54065A84207D005F58065A84244
:1020980003D005F58065A84204D124F480444D6935
:1020A80044EA85144460C2614A680264036230BC31
:1020B800704700BF002C014030B4036A026A22F462
:1020C800803202624468426D22F4803222F070024B
:1020D8000D682A4323F400338D6843EA05430F4D06
:1020E800A8420FD005F50065A8420BD005F540655C
:1020F800A84207D005F58065A84203D005F580659C
:10210800A84204D124F480344D6944EA052444608B
:1021180042654A688265036230BC7047002C014002
:1021280030B4036A026A22F4801202624468426D83
:1021380022F0807222F4E0420D6842EA052223F47C
:1021480000138D6843EA05530F4DA8420FD005F5DB
:102158000065A8420BD005F54065A84207D005F5F3
:102168008065A84203D005F58065A84204D124F40F
:1021780080244D6944EA8524446042654A68C26502
:10218800036230BC704700BF002C014010B4036AE2
:10219800046A24F001040462846924F0F00C4CEA17
:1021A800021223F00A030B438261036210BC7047DA
:1021B80010B4036A046A24F010040462846924F4E5
:1021C800704C4CEA023223F0A00343EA0113826107
:1021D800036210BC7047836823F070030B4343F01D
:1021E80007038360704770470368304A904212D0F3
:1021F800B0F1804F0FD0A2F5943290420BD002F587
:102208008062904207D002F58062904203D002F5C6
:102218009432904203D123F070034A681343234A4F
:1022280090421ED0B0F1804F1BD0A2F5943290425C
:1022380017D002F58062904213D002F58062904276
:102248000FD002F5943290420BD002F540629042D2
:1022580007D002F58062904203D002F58062904276
:1022680003D123F44073CA68134323F080034A69F7
:10227800134303608B68C3620B6883620B4B9842FD
:102288000FD003F5006398420BD003F540639842E2
:1022980007D003F58063984203D003F58063984222
:1022A80001D10B690363012343617047002C01408E
:1022B80060B310B5044690F83D3013B3022384F898
:1022C8003D30214651F8040BFFF78EFF012384F8B7
:1022D800483084F83E3084F83F3084F8403084F841
:1022E800413084F8423084F8433084F8443084F82C
:1022F800453084F8463084F8473084F83D30002073
:1023080010BD80F83C30FEF70BFBD7E70120704783
:1023180060B310B5044690F83D3013B3022384F837
:102328003D30214651F8040BFFF75EFF012384F886
:10233800483084F83E3084F83F3084F8403084F8E0
:10234800413084F8423084F8433084F8443084F8CB
:10235800453084F8463084F8473084F83D30002012
:1023680010BD80F83C30FFF73EFFD7E701207047EB
:1023780030B4036A026A22F0100202624468826979
:1023880022F0807222F4E6420D6842EA052223F028
:1023980020038D6843EA0513174DA84203D005F5BD
:1023A8000065A84206D123F08003CD6843EA0513EF
:1023B80023F04003104DA8420FD005F50065A84250
:1023C8000BD005F54065A84207D005F58065A84201
:1023D80003D005F58065A84207D124F4406C4C6908
:1023E8004CEA840C8C694CEA8404446082614A6833
:1023F8008263036230BC7047002C014038B590F806
:102408003C30012B00F0958004460D46012380F8EE
:102418003C30142A00F28880DFE802F00B868686BA
:102428001F86868634868686488686865D86868664
:1024380071000068FFF774FD2268936943F0080390
:1024480093612268936923F0040393612268936976
:1024580029690B439361002067E00068FFF788FF54
:102468002268936943F4006393612268936923F4B3
:102478008063936122689369296943EA0123936120
:10248800002052E00068FFF79BFD2268D36943F003
:102498000803D3612268D36923F00403D361226857
:1024A800D36929690B43D36100203EE00068FFF738
:1024B800CDFD2268D36943F40063D3612268D369F0
:1024C80023F48063D3612268D369296943EA01232D
:1024D800D361002029E00068FFF7EEFD2268536D04
:1024E80043F0080353652268536D23F004035365D2
:1024F8002268536D29690B435365002015E0006875
:10250800FFF70EFE2268536D43F40063536522689B
:10251800536D23F4806353652268536D296943EA38
:1025280001235365002000E00120002384F83C309B
:1025380038BD0220FCE710B4846824F47F4C42EADA
:1025480003220A4342EA0C02826010BC7047000072
:1025580090F83C30012B76D010B50446012380F862
:102568003C30022380F83D3002689068374B0340C6
:1025780093600B68602B4CD029D8402B54D00CD9D1
:10258800502B22D1CA6849682068FFF7FFFD502107
:102598002068FFF720FE002005E0202B0DD009D988
:1025A800302B0AD00120012384F83D30002384F821
:1025B8003C3010BD0BB1102B05D119462068FFF730
:1025C8000AFE0020EFE70120EDE70120EBE7B3F575
:1025D800805F34D0B3F5005F0CD1CB684A68896856
:1025E8002068FFF7A8FF2268936843F4804393604C
:1025F8000020D8E7702B24D1CB684A688968206806
:10260800FFF799FF2268936843F0770393600020EF
:10261800C9E7CA6849682068FFF7CAFD60212068D1
:10262800FFF7D9FD0020BEE7CA6849682068FFF7B0
:10263800ADFD40212068FFF7CEFD0020B3E7002064
:10264800B1E70120AFE70220704700BF8800FEFF16
:1026580001F01F01012303FA01FC036A23EA0C03BA
:102668000362036A02FA01F10B4303627047000038
:1026780010B50446084600294BD194F83E30DBB229
:10268800013B18BF0123002B40F0988000286BD134
:10269800022384F83E30012201462068FFF7D8FF64
:1026A8002368494A93420FD002F5006293420BD047
:1026B80002F54062934207D002F58062934203D04C
:1026C80002F58062934203D15A6C42F400425A6484
:1026D80023683D4A934263D0B3F1804F60D0A2F59E
:1026E800943293425CD002F58062934258D002F54E
:1026F8008062934254D002F59432934250D002F54E
:10270800406293424CD01A6842F001021A600020DD
:1027180055E004290CD0082911D00C2916D010290D
:102728001BD094F84330DBB2013B18BF0123AAE762
:1027380094F83F30DBB2013B18BF0123A3E794F8BC
:102748004030DBB2013B18BF01239CE794F84130CD
:10275800DBB2013B18BF012395E794F84230DBB2A6
:10276800013B18BF01238EE7042809D008280BD0A5
:102778000C280DD010280FD0022384F843308AE7A4
:10278800022384F83F3086E7022384F8403082E74A
:10279800022384F841307EE7022384F842307AE746
:1027A80099680A4A0A40062A0AD0B2F5803F09D039
:1027B8001A6842F001021A60002000E0012010BDF2
:1027C8000020FCE70020FAE7002C01400700010088
:1027D80090F83C30012B42D030B4012380F83C30D3
:1027E800022380F83D300268536894681D4DAA4260
:1027F80003D005F50065AA4203D123F470034D68A0
:102808002B4323F070030D682B4353600368154A6C
:10281800934216D0B3F1804F13D0A2F5943293426D
:102828000FD002F5806293420BD002F5806293428A
:1028380007D002F59432934203D002F540629342E6
:1028480004D124F080048A6814439C60012380F832
:102858003D30002380F83C30184630BC70470220D9
:10286800704700BF002C0140026852E8003F23F483
:10287800907342E800310029F6D1026802F108039A
:1028880053E8003F23F00103083242E800310029F1
:10289800F3D1036E012B06D02023C0F8803000232B
:1028A800036683667047026852E8003F23F010030E
:1028B80042E800310029F6D1EEE7000010B50446E1
:1028C800016883680269134342691343C269134369
:1028D80008688E4A024013430B602268536823F449
:1028E8004053E1680B435360A1692268884B9A42C0
:1028F80001D0236A1943936823F430630B43936030
:102908002368844A934210D0834A934221D0834A51
:10291800934237D0824A93425CD0824A93426BD02A
:102928007B4A93427DD010223AE002F55842D2F811
:10293800882002F00302032A09D8DFE802F0020423
:10294800870601222CE004222AE0082228E010222F
:1029580026E002F5E632D2F8882002F00C020C2AB2
:102968000ED8DFE802F0070D0D0D090D0D0D750DE0
:102978000D0D0B00002213E0042211E008220FE0E5
:1029880010220DE002F5E432D2F8882002F030027D
:10299800202A5FD01AD8002A5ED0102A5ED10422DD
:1029A8005B498B4276D0E069B0F5004F00F0A38018
:1029B800082A00F20E81DFE812F0DD00F300DB00E8
:1029C8000C01F6000C010C010C01F900302A47D16A
:1029D8000822E5E702F5E232D2F8882002F0C002C8
:1029E800802A3FD004D8FAB3402A3FD10422D7E73F
:1029F800C02A3DD10822D3E702F5E032D2F8882078
:102A080002F44072B2F5007F34D005D8A2B3B2F513
:102A1800807F33D10422C3E7B2F5407F30D108224A
:102A2800BEE702F5C832D2F8882002F44062B2F557
:102A3800006F27D005D83AB3B2F5806F26D10422AB
:102A4800AEE7B2F5406F23D10822A9E70222A7E733
:102A58000222A5E70222A3E70022A1E710229FE7AE
:102A680010229DE702229BE7002299E7102297E7B0
:102A7800102295E7022293E7002291E710228FE7C0
:102A880010228DE702228BE7002289E7102287E7D0
:102A9800102285E7082A00F28C80DFE802F0088A15
:102AA8002A8A278A8A8A05004FF4004003E0FEF745
:102AB8008BFE00287FD0626802EB420383427CD8F9
:102AC800B0EB023F7BD8010E00025308C0184FF04C
:102AD800000341F10001FDF797FBA0F54072124B8E
:102AE8009A426ED82368D860002055E0FEF73AFA7B
:102AF800DFE70E48DFE7082A65D8DFE802F0193378
:102B08000564366464641D00084815E0F369FFEF46
:102B18000080004000380140004400400048004068
:102B2800004C004000500040FFFC0F000024F4005F
:102B3800FEF74AFE002848D06268530803EB4000BD
:102B4800B0FBF2F0A0F110024FF6EF739A423ED8B4
:102B580083B223F00F03C0F3420018432368D86000
:102B6800002019E0FEF742FEE4E7FEF7FBF9E1E793
:102B78001B4802E0FEF728FE68B3636800EB5300C9
:102B8800B0FBF3F0A0F110024FF6EF739A4224D88D
:102B9800236880B2D86000200023A366E36610BDD6
:102BA800FEF724FEE8E7FEF7DDF9E5E74FF400401D
:102BB800E3E70120F0E70020EEE70120ECE7012041
:102BC800EAE70120E8E70120E6E70020E4E7012042
:102BD800E2E70120E0E70020DEE70120DCE700BFB4
:102BE8000024F400436A13F0080F06D00268536803
:102BF80023F40043416B0B435360436A13F0010F06
:102C080006D00268536823F40033816A0B4353608B
:102C1800436A13F0020F06D00268536823F4803326
:102C2800C16A0B435360436A13F0040F06D002686D
:102C3800536823F48023016B0B435360436A13F0FA
:102C4800100F06D00268936823F48053816B0B43FE
:102C58009360436A13F0200F06D00268936823F448
:102C68000053C16B0B439360436A13F0400F0AD0C3
:102C78000268536823F48013016C0B435360036CA0
:102C8800B3F5801F0BD0436A13F0800F06D002689B
:102C9800536823F40023816C0B4353607047026828
:102CA800536823F4C003416C0B435360EBE72DE9F1
:102CB800F84305460F4616469946DDF820802C68ED
:102CC800E46937EA04030CBF4FF0010C4FF0000C25
:102CD800B44532D1B8F1FF3FF1D0FDF71FFFA0EBAB
:102CE800090040452CD8B8F1000F2BD02B681A6882
:102CF80012F0040FE3D0DA6912F0080F11D1DA6983
:102D080012F4006FDBD04FF400621A622846FFF716
:102D1800ABFD2023C5F88430002385F878300320E4
:102D28000CE008241C622846FFF79EFDC5F8844085
:102D3800002385F87830012000E00020BDE8F88302
:102D48000320FBE70320F9E730B583B004460023EE
:102D5800C0F88430FDF7E2FE05462268126812F0DA
:102D6800080F0FD123681B6813F0040F26D1202306
:102D7800E367C4F8803000202066606684F8780035
:102D880003B030BD6FF07E430093034600224FF43A
:102D980000112046FFF78BFF0028E3D0226852E895
:102DA800003F23F0800342E800310029F6D12023B8
:102DB800E367002384F878300320E1E76FF07E436F
:102DC80000932B4600224FF480012046FFF76FFF47
:102DD8000028CCD0226852E8003F23F4907342E8E0
:102DE80000310029F6D1226802F1080353E8003FB8
:102DF80023F00103083242E800310029F3D12023EF
:102E0800C4F88030002384F878300320B8E768B32A
:102E180010B50446C36F03B32423E367226813681D
:102E280023F001031360636AE3B92046FFF746FD08
:102E3800012811D02268536823F490435360226814
:102E4800936823F02A0393602268136843F0010310
:102E580013602046FFF778FF10BD80F87830FDF743
:102E680097FDD9E72046FFF7BDFEDEE70120704752
:102E7800024B13B10248FDF749BB70470000000040
:102E880021050008F8B500BFF8BC08BC9E4670478D
:0C2E9800F8B500BFF8BC08BC9E467047AF
:102EA40008000020000000000000000001020304EC
:102EB400060708090000000001020304A0860100BF
:102EC400400D0300801A060000350C0040420F003C
:102ED40080841E0000093D0000127A000024F400E2
:0C2EE40000366E010048E801006CDC02C2
:082EF00050D3FF7F0100000038
:082EF800792E0008F101000829
:042F0000C9010008FB
:102F0400080000200000000000000000F40200207F
:102F14005C030020C4030020000000000000000047
:102F2400000000000000000000000000000000009D
:102F3400000000000000000000000000000000008D
:102F4400000000000000000000000000000000007D
:102F5400000000000000000000000000000000006D
:102F6400000000000000000000000000000000005D
:102F7400000000000000000000000000000000004D
:102F8400000000000000000000000000000000003D
:102F9400000000000000000000000000000000002D
:102FA400000000000000000000000000000000001D
:102FB40001000000000000000E33CDAB34126DE6BA
:102FC400ECDE05000B000000000000000000000023
:102FD40000000000000000000000000000000000ED
:102FE40000000000000000000000000000000000DD
:102FF40000000000000000000000000000000000CD
:1030040000000000000000000000000000000000BC
:0C33340000093D00010000001000000036
:0400000508000A3DA8
:00000001FF
